{
	"solana.sol": {
		"GottaBeytToken": {
			"abi": [
				{
					"inputs": [
						{
							"internalType": "uint256",
							"name": "_totalSupply",
							"type": "uint256"
						},
						{
							"internalType": "address",
							"name": "_liquidityPool",
							"type": "address"
						},
						{
							"internalType": "address",
							"name": "_authorityWallet",
							"type": "address"
						}
					],
					"stateMutability": "nonpayable",
					"type": "constructor"
				},
				{
					"anonymous": false,
					"inputs": [
						{
							"indexed": true,
							"internalType": "address",
							"name": "owner",
							"type": "address"
						},
						{
							"indexed": true,
							"internalType": "address",
							"name": "spender",
							"type": "address"
						},
						{
							"indexed": false,
							"internalType": "uint256",
							"name": "value",
							"type": "uint256"
						}
					],
					"name": "Approval",
					"type": "event"
				},
				{
					"anonymous": false,
					"inputs": [
						{
							"indexed": false,
							"internalType": "uint256",
							"name": "lpFee",
							"type": "uint256"
						},
						{
							"indexed": false,
							"internalType": "uint256",
							"name": "authorityFee",
							"type": "uint256"
						},
						{
							"indexed": false,
							"internalType": "uint256",
							"name": "burnAmount",
							"type": "uint256"
						}
					],
					"name": "FeesDistributed",
					"type": "event"
				},
				{
					"anonymous": false,
					"inputs": [
						{
							"indexed": true,
							"internalType": "address",
							"name": "user",
							"type": "address"
						},
						{
							"indexed": false,
							"internalType": "uint256",
							"name": "rewardAmount",
							"type": "uint256"
						}
					],
					"name": "RewardsClaimed",
					"type": "event"
				},
				{
					"anonymous": false,
					"inputs": [
						{
							"indexed": true,
							"internalType": "address",
							"name": "from",
							"type": "address"
						},
						{
							"indexed": true,
							"internalType": "address",
							"name": "to",
							"type": "address"
						},
						{
							"indexed": false,
							"internalType": "uint256",
							"name": "value",
							"type": "uint256"
						}
					],
					"name": "Transfer",
					"type": "event"
				},
				{
					"inputs": [],
					"name": "AUTHORITY_FEE",
					"outputs": [
						{
							"internalType": "uint256",
							"name": "",
							"type": "uint256"
						}
					],
					"stateMutability": "view",
					"type": "function"
				},
				{
					"inputs": [],
					"name": "BURN_FEE",
					"outputs": [
						{
							"internalType": "uint256",
							"name": "",
							"type": "uint256"
						}
					],
					"stateMutability": "view",
					"type": "function"
				},
				{
					"inputs": [],
					"name": "Contractowner",
					"outputs": [
						{
							"internalType": "address",
							"name": "",
							"type": "address"
						}
					],
					"stateMutability": "view",
					"type": "function"
				},
				{
					"inputs": [],
					"name": "FEE_DENOMINATOR",
					"outputs": [
						{
							"internalType": "uint256",
							"name": "",
							"type": "uint256"
						}
					],
					"stateMutability": "view",
					"type": "function"
				},
				{
					"inputs": [],
					"name": "LP_FEE",
					"outputs": [
						{
							"internalType": "uint256",
							"name": "",
							"type": "uint256"
						}
					],
					"stateMutability": "view",
					"type": "function"
				},
				{
					"inputs": [],
					"name": "REWARD_DENOMINATOR",
					"outputs": [
						{
							"internalType": "uint256",
							"name": "",
							"type": "uint256"
						}
					],
					"stateMutability": "view",
					"type": "function"
				},
				{
					"inputs": [],
					"name": "REWARD_FIRST_MONTH",
					"outputs": [
						{
							"internalType": "uint256",
							"name": "",
							"type": "uint256"
						}
					],
					"stateMutability": "view",
					"type": "function"
				},
				{
					"inputs": [],
					"name": "REWARD_ONE_YEAR",
					"outputs": [
						{
							"internalType": "uint256",
							"name": "",
							"type": "uint256"
						}
					],
					"stateMutability": "view",
					"type": "function"
				},
				{
					"inputs": [],
					"name": "REWARD_SIXTH_MONTH",
					"outputs": [
						{
							"internalType": "uint256",
							"name": "",
							"type": "uint256"
						}
					],
					"stateMutability": "view",
					"type": "function"
				},
				{
					"inputs": [],
					"name": "REWARD_THIRD_MONTH",
					"outputs": [
						{
							"internalType": "uint256",
							"name": "",
							"type": "uint256"
						}
					],
					"stateMutability": "view",
					"type": "function"
				},
				{
					"inputs": [
						{
							"internalType": "address",
							"name": "owner",
							"type": "address"
						},
						{
							"internalType": "address",
							"name": "spender",
							"type": "address"
						}
					],
					"name": "allowance",
					"outputs": [
						{
							"internalType": "uint256",
							"name": "",
							"type": "uint256"
						}
					],
					"stateMutability": "view",
					"type": "function"
				},
				{
					"inputs": [
						{
							"internalType": "address",
							"name": "",
							"type": "address"
						},
						{
							"internalType": "address",
							"name": "",
							"type": "address"
						}
					],
					"name": "allowances",
					"outputs": [
						{
							"internalType": "uint256",
							"name": "",
							"type": "uint256"
						}
					],
					"stateMutability": "view",
					"type": "function"
				},
				{
					"inputs": [
						{
							"internalType": "address",
							"name": "spender",
							"type": "address"
						},
						{
							"internalType": "uint256",
							"name": "amount",
							"type": "uint256"
						}
					],
					"name": "approve",
					"outputs": [
						{
							"internalType": "bool",
							"name": "",
							"type": "bool"
						}
					],
					"stateMutability": "nonpayable",
					"type": "function"
				},
				{
					"inputs": [],
					"name": "authorityWallet",
					"outputs": [
						{
							"internalType": "address",
							"name": "",
							"type": "address"
						}
					],
					"stateMutability": "view",
					"type": "function"
				},
				{
					"inputs": [
						{
							"internalType": "address",
							"name": "account",
							"type": "address"
						}
					],
					"name": "balanceOf",
					"outputs": [
						{
							"internalType": "uint256",
							"name": "",
							"type": "uint256"
						}
					],
					"stateMutability": "view",
					"type": "function"
				},
				{
					"inputs": [
						{
							"internalType": "address",
							"name": "",
							"type": "address"
						}
					],
					"name": "balances",
					"outputs": [
						{
							"internalType": "uint256",
							"name": "",
							"type": "uint256"
						}
					],
					"stateMutability": "view",
					"type": "function"
				},
				{
					"inputs": [
						{
							"internalType": "address",
							"name": "user",
							"type": "address"
						}
					],
					"name": "calculateReward",
					"outputs": [
						{
							"internalType": "uint256",
							"name": "",
							"type": "uint256"
						}
					],
					"stateMutability": "view",
					"type": "function"
				},
				{
					"inputs": [],
					"name": "claimRewards",
					"outputs": [],
					"stateMutability": "nonpayable",
					"type": "function"
				},
				{
					"inputs": [],
					"name": "decimals",
					"outputs": [
						{
							"internalType": "uint8",
							"name": "",
							"type": "uint8"
						}
					],
					"stateMutability": "view",
					"type": "function"
				},
				{
					"inputs": [
						{
							"internalType": "address",
							"name": "",
							"type": "address"
						}
					],
					"name": "lastClaimedTime",
					"outputs": [
						{
							"internalType": "uint256",
							"name": "",
							"type": "uint256"
						}
					],
					"stateMutability": "view",
					"type": "function"
				},
				{
					"inputs": [],
					"name": "liquidityPool",
					"outputs": [
						{
							"internalType": "address",
							"name": "",
							"type": "address"
						}
					],
					"stateMutability": "view",
					"type": "function"
				},
				{
					"inputs": [],
					"name": "name",
					"outputs": [
						{
							"internalType": "string",
							"name": "",
							"type": "string"
						}
					],
					"stateMutability": "view",
					"type": "function"
				},
				{
					"inputs": [
						{
							"internalType": "uint256",
							"name": "amount",
							"type": "uint256"
						}
					],
					"name": "stakeTokens",
					"outputs": [],
					"stateMutability": "nonpayable",
					"type": "function"
				},
				{
					"inputs": [
						{
							"internalType": "address",
							"name": "",
							"type": "address"
						}
					],
					"name": "stakingBalances",
					"outputs": [
						{
							"internalType": "uint256",
							"name": "",
							"type": "uint256"
						}
					],
					"stateMutability": "view",
					"type": "function"
				},
				{
					"inputs": [],
					"name": "symbol",
					"outputs": [
						{
							"internalType": "string",
							"name": "",
							"type": "string"
						}
					],
					"stateMutability": "view",
					"type": "function"
				},
				{
					"inputs": [],
					"name": "totalSupply",
					"outputs": [
						{
							"internalType": "uint256",
							"name": "",
							"type": "uint256"
						}
					],
					"stateMutability": "view",
					"type": "function"
				},
				{
					"inputs": [
						{
							"internalType": "address",
							"name": "recipient",
							"type": "address"
						},
						{
							"internalType": "uint256",
							"name": "amount",
							"type": "uint256"
						}
					],
					"name": "transfer",
					"outputs": [
						{
							"internalType": "bool",
							"name": "",
							"type": "bool"
						}
					],
					"stateMutability": "nonpayable",
					"type": "function"
				},
				{
					"inputs": [
						{
							"internalType": "address",
							"name": "sender",
							"type": "address"
						},
						{
							"internalType": "address",
							"name": "recipient",
							"type": "address"
						},
						{
							"internalType": "uint256",
							"name": "amount",
							"type": "uint256"
						}
					],
					"name": "transferFrom",
					"outputs": [
						{
							"internalType": "bool",
							"name": "",
							"type": "bool"
						}
					],
					"stateMutability": "nonpayable",
					"type": "function"
				},
				{
					"inputs": [
						{
							"internalType": "uint256",
							"name": "amount",
							"type": "uint256"
						}
					],
					"name": "unstakeTokens",
					"outputs": [],
					"stateMutability": "nonpayable",
					"type": "function"
				}
			],
			"devdoc": {
				"kind": "dev",
				"methods": {},
				"version": 1
			},
			"evm": {
				"assembly": "    /* \"solana.sol\":207:5842  contract GottaBeytToken {... */\n  mstore(0x40, 0x80)\n    /* \"solana.sol\":238:271  string public name = \"Gotta Beyt\" */\n  mload(0x40)\n  dup1\n  0x40\n  add\n  0x40\n  mstore\n  dup1\n  0x0a\n  dup2\n  mstore\n  0x20\n  add\n  0x476f747461204265797400000000000000000000000000000000000000000000\n  dup2\n  mstore\n  pop\n  0x00\n  swap1\n  dup2\n  tag_1\n  swap2\n  swap1\n  tag_2\n  jump\t// in\ntag_1:\n  pop\n    /* \"solana.sol\":278:308  string public symbol = \"GBETY\" */\n  mload(0x40)\n  dup1\n  0x40\n  add\n  0x40\n  mstore\n  dup1\n  0x05\n  dup2\n  mstore\n  0x20\n  add\n  0x4742455459000000000000000000000000000000000000000000000000000000\n  dup2\n  mstore\n  pop\n  0x01\n  swap1\n  dup2\n  tag_3\n  swap2\n  swap1\n  tag_2\n  jump\t// in\ntag_3:\n  pop\n    /* \"solana.sol\":339:340  6 */\n  0x06\n    /* \"solana.sol\":315:340  uint8 public decimals = 6 */\n  0x02\n  exp(0x0100, 0x00)\n  dup2\n  sload\n  dup2\n  0xff\n  mul\n  not\n  and\n  swap1\n  dup4\n  0xff\n  and\n  mul\n  or\n  swap1\n  sstore\n  pop\n    /* \"solana.sol\":1581:2090  constructor(uint256 _totalSupply, address _liquidityPool, address _authorityWallet) {... */\n  callvalue\n  dup1\n  iszero\n  tag_4\n  jumpi\n  revert(0x00, 0x00)\ntag_4:\n  pop\n  mload(0x40)\n  sub(codesize, bytecodeSize)\n  dup1\n  bytecodeSize\n  dup4\n  codecopy\n  dup2\n  dup2\n  add\n  0x40\n  mstore\n  dup2\n  add\n  swap1\n  tag_5\n  swap2\n  swap1\n  tag_6\n  jump\t// in\ntag_5:\n    /* \"solana.sol\":1710:1711  0 */\n  0x00\n    /* \"solana.sol\":1684:1712  _liquidityPool != address(0) */\n  0xffffffffffffffffffffffffffffffffffffffff\n  and\n    /* \"solana.sol\":1684:1698  _liquidityPool */\n  dup3\n    /* \"solana.sol\":1684:1712  _liquidityPool != address(0) */\n  0xffffffffffffffffffffffffffffffffffffffff\n  and\n  sub\n    /* \"solana.sol\":1676:1747  require(_liquidityPool != address(0), \"Invalid liquidity pool address\") */\n  tag_9\n  jumpi\n  mload(0x40)\n  0x08c379a000000000000000000000000000000000000000000000000000000000\n  dup2\n  mstore\n  0x04\n  add\n  tag_10\n  swap1\n  tag_11\n  jump\t// in\ntag_10:\n  mload(0x40)\n  dup1\n  swap2\n  sub\n  swap1\n  revert\ntag_9:\n    /* \"solana.sol\":1794:1795  0 */\n  0x00\n    /* \"solana.sol\":1766:1796  _authorityWallet != address(0) */\n  0xffffffffffffffffffffffffffffffffffffffff\n  and\n    /* \"solana.sol\":1766:1782  _authorityWallet */\n  dup2\n    /* \"solana.sol\":1766:1796  _authorityWallet != address(0) */\n  0xffffffffffffffffffffffffffffffffffffffff\n  and\n  sub\n    /* \"solana.sol\":1758:1833  require(_authorityWallet != address(0), \"Invalid authority wallet address\") */\n  tag_12\n  jumpi\n  mload(0x40)\n  0x08c379a000000000000000000000000000000000000000000000000000000000\n  dup2\n  mstore\n  0x04\n  add\n  tag_13\n  swap1\n  tag_14\n  jump\t// in\ntag_13:\n  mload(0x40)\n  dup1\n  swap2\n  sub\n  swap1\n  revert\ntag_12:\n    /* \"solana.sol\":1862:1872  msg.sender */\n  caller\n    /* \"solana.sol\":1846:1859  Contractowner */\n  0x04\n  0x00\n    /* \"solana.sol\":1846:1872  Contractowner = msg.sender */\n  0x0100\n  exp\n  dup2\n  sload\n  dup2\n  0xffffffffffffffffffffffffffffffffffffffff\n  mul\n  not\n  and\n  swap1\n  dup4\n  0xffffffffffffffffffffffffffffffffffffffff\n  and\n  mul\n  or\n  swap1\n  sstore\n  pop\n    /* \"solana.sol\":1899:1913  _liquidityPool */\n  dup2\n    /* \"solana.sol\":1883:1896  liquidityPool */\n  0x05\n  0x00\n    /* \"solana.sol\":1883:1913  liquidityPool = _liquidityPool */\n  0x0100\n  exp\n  dup2\n  sload\n  dup2\n  0xffffffffffffffffffffffffffffffffffffffff\n  mul\n  not\n  and\n  swap1\n  dup4\n  0xffffffffffffffffffffffffffffffffffffffff\n  and\n  mul\n  or\n  swap1\n  sstore\n  pop\n    /* \"solana.sol\":1942:1958  _authorityWallet */\n  dup1\n    /* \"solana.sol\":1924:1939  authorityWallet */\n  0x06\n  0x00\n    /* \"solana.sol\":1924:1958  authorityWallet = _authorityWallet */\n  0x0100\n  exp\n  dup2\n  sload\n  dup2\n  0xffffffffffffffffffffffffffffffffffffffff\n  mul\n  not\n  and\n  swap1\n  dup4\n  0xffffffffffffffffffffffffffffffffffffffff\n  and\n  mul\n  or\n  swap1\n  sstore\n  pop\n    /* \"solana.sol\":1983:1995  _totalSupply */\n  dup3\n    /* \"solana.sol\":1969:1980  totalSupply */\n  0x03\n    /* \"solana.sol\":1969:1995  totalSupply = _totalSupply */\n  dup2\n  swap1\n  sstore\n  pop\n    /* \"solana.sol\":2031:2043  _totalSupply */\n  dup3\n    /* \"solana.sol\":2008:2016  balances */\n  0x07\n    /* \"solana.sol\":2008:2028  balances[msg.sender] */\n  0x00\n    /* \"solana.sol\":2017:2027  msg.sender */\n  caller\n    /* \"solana.sol\":2008:2028  balances[msg.sender] */\n  0xffffffffffffffffffffffffffffffffffffffff\n  and\n  0xffffffffffffffffffffffffffffffffffffffff\n  and\n  dup2\n  mstore\n  0x20\n  add\n  swap1\n  dup2\n  mstore\n  0x20\n  add\n  0x00\n  keccak256\n    /* \"solana.sol\":2008:2043  balances[msg.sender] = _totalSupply */\n  dup2\n  swap1\n  sstore\n  pop\n    /* \"solana.sol\":1581:2090  constructor(uint256 _totalSupply, address _liquidityPool, address _authorityWallet) {... */\n  pop\n  pop\n  pop\n    /* \"solana.sol\":207:5842  contract GottaBeytToken {... */\n  jump(tag_15)\n    /* \"#utility.yul\":7:106   */\ntag_16:\n    /* \"#utility.yul\":59:65   */\n  0x00\n    /* \"#utility.yul\":93:98   */\n  dup2\n    /* \"#utility.yul\":87:99   */\n  mload\n    /* \"#utility.yul\":77:99   */\n  swap1\n  pop\n    /* \"#utility.yul\":7:106   */\n  swap2\n  swap1\n  pop\n  jump\t// out\n    /* \"#utility.yul\":112:292   */\ntag_17:\n    /* \"#utility.yul\":160:237   */\n  0x4e487b7100000000000000000000000000000000000000000000000000000000\n    /* \"#utility.yul\":157:158   */\n  0x00\n    /* \"#utility.yul\":150:238   */\n  mstore\n    /* \"#utility.yul\":257:261   */\n  0x41\n    /* \"#utility.yul\":254:255   */\n  0x04\n    /* \"#utility.yul\":247:262   */\n  mstore\n    /* \"#utility.yul\":281:285   */\n  0x24\n    /* \"#utility.yul\":278:279   */\n  0x00\n    /* \"#utility.yul\":271:286   */\n  revert\n    /* \"#utility.yul\":298:478   */\ntag_18:\n    /* \"#utility.yul\":346:423   */\n  0x4e487b7100000000000000000000000000000000000000000000000000000000\n    /* \"#utility.yul\":343:344   */\n  0x00\n    /* \"#utility.yul\":336:424   */\n  mstore\n    /* \"#utility.yul\":443:447   */\n  0x22\n    /* \"#utility.yul\":440:441   */\n  0x04\n    /* \"#utility.yul\":433:448   */\n  mstore\n    /* \"#utility.yul\":467:471   */\n  0x24\n    /* \"#utility.yul\":464:465   */\n  0x00\n    /* \"#utility.yul\":457:472   */\n  revert\n    /* \"#utility.yul\":484:804   */\ntag_19:\n    /* \"#utility.yul\":528:534   */\n  0x00\n    /* \"#utility.yul\":565:566   */\n  0x02\n    /* \"#utility.yul\":559:563   */\n  dup3\n    /* \"#utility.yul\":555:567   */\n  div\n    /* \"#utility.yul\":545:567   */\n  swap1\n  pop\n    /* \"#utility.yul\":612:613   */\n  0x01\n    /* \"#utility.yul\":606:610   */\n  dup3\n    /* \"#utility.yul\":602:614   */\n  and\n    /* \"#utility.yul\":633:651   */\n  dup1\n    /* \"#utility.yul\":623:704   */\n  tag_55\n  jumpi\n    /* \"#utility.yul\":689:693   */\n  0x7f\n    /* \"#utility.yul\":681:687   */\n  dup3\n    /* \"#utility.yul\":677:694   */\n  and\n    /* \"#utility.yul\":667:694   */\n  swap2\n  pop\n    /* \"#utility.yul\":623:704   */\ntag_55:\n    /* \"#utility.yul\":751:753   */\n  0x20\n    /* \"#utility.yul\":743:749   */\n  dup3\n    /* \"#utility.yul\":740:754   */\n  lt\n    /* \"#utility.yul\":720:738   */\n  dup2\n    /* \"#utility.yul\":717:755   */\n  sub\n    /* \"#utility.yul\":714:798   */\n  tag_56\n  jumpi\n    /* \"#utility.yul\":770:788   */\n  tag_57\n  tag_18\n  jump\t// in\ntag_57:\n    /* \"#utility.yul\":714:798   */\ntag_56:\n    /* \"#utility.yul\":535:804   */\n  pop\n    /* \"#utility.yul\":484:804   */\n  swap2\n  swap1\n  pop\n  jump\t// out\n    /* \"#utility.yul\":810:951   */\ntag_20:\n    /* \"#utility.yul\":859:863   */\n  0x00\n    /* \"#utility.yul\":882:885   */\n  dup2\n    /* \"#utility.yul\":874:885   */\n  swap1\n  pop\n    /* \"#utility.yul\":905:908   */\n  dup2\n    /* \"#utility.yul\":902:903   */\n  0x00\n    /* \"#utility.yul\":895:909   */\n  mstore\n    /* \"#utility.yul\":939:943   */\n  0x20\n    /* \"#utility.yul\":936:937   */\n  0x00\n    /* \"#utility.yul\":926:944   */\n  keccak256\n    /* \"#utility.yul\":918:944   */\n  swap1\n  pop\n    /* \"#utility.yul\":810:951   */\n  swap2\n  swap1\n  pop\n  jump\t// out\n    /* \"#utility.yul\":957:1050   */\ntag_21:\n    /* \"#utility.yul\":994:1000   */\n  0x00\n    /* \"#utility.yul\":1041:1043   */\n  0x20\n    /* \"#utility.yul\":1036:1038   */\n  0x1f\n    /* \"#utility.yul\":1029:1034   */\n  dup4\n    /* \"#utility.yul\":1025:1039   */\n  add\n    /* \"#utility.yul\":1021:1044   */\n  div\n    /* \"#utility.yul\":1011:1044   */\n  swap1\n  pop\n    /* \"#utility.yul\":957:1050   */\n  swap2\n  swap1\n  pop\n  jump\t// out\n    /* \"#utility.yul\":1056:1163   */\ntag_22:\n    /* \"#utility.yul\":1100:1108   */\n  0x00\n    /* \"#utility.yul\":1150:1155   */\n  dup3\n    /* \"#utility.yul\":1144:1148   */\n  dup3\n    /* \"#utility.yul\":1140:1156   */\n  shl\n    /* \"#utility.yul\":1119:1156   */\n  swap1\n  pop\n    /* \"#utility.yul\":1056:1163   */\n  swap3\n  swap2\n  pop\n  pop\n  jump\t// out\n    /* \"#utility.yul\":1169:1562   */\ntag_23:\n    /* \"#utility.yul\":1238:1244   */\n  0x00\n    /* \"#utility.yul\":1288:1289   */\n  0x08\n    /* \"#utility.yul\":1276:1286   */\n  dup4\n    /* \"#utility.yul\":1272:1290   */\n  mul\n    /* \"#utility.yul\":1311:1408   */\n  tag_62\n    /* \"#utility.yul\":1341:1407   */\n  0xffffffffffffffffffffffffffffffffffffffffffffffffffffffffffffffff\n    /* \"#utility.yul\":1330:1339   */\n  dup3\n    /* \"#utility.yul\":1311:1408   */\n  tag_22\n  jump\t// in\ntag_62:\n    /* \"#utility.yul\":1429:1468   */\n  tag_63\n    /* \"#utility.yul\":1459:1467   */\n  dup7\n    /* \"#utility.yul\":1448:1457   */\n  dup4\n    /* \"#utility.yul\":1429:1468   */\n  tag_22\n  jump\t// in\ntag_63:\n    /* \"#utility.yul\":1417:1468   */\n  swap6\n  pop\n    /* \"#utility.yul\":1501:1505   */\n  dup1\n    /* \"#utility.yul\":1497:1506   */\n  not\n    /* \"#utility.yul\":1490:1495   */\n  dup5\n    /* \"#utility.yul\":1486:1507   */\n  and\n    /* \"#utility.yul\":1477:1507   */\n  swap4\n  pop\n    /* \"#utility.yul\":1550:1554   */\n  dup1\n    /* \"#utility.yul\":1540:1548   */\n  dup7\n    /* \"#utility.yul\":1536:1555   */\n  and\n    /* \"#utility.yul\":1529:1534   */\n  dup5\n    /* \"#utility.yul\":1526:1556   */\n  or\n    /* \"#utility.yul\":1516:1556   */\n  swap3\n  pop\n    /* \"#utility.yul\":1245:1562   */\n  pop\n  pop\n    /* \"#utility.yul\":1169:1562   */\n  swap4\n  swap3\n  pop\n  pop\n  pop\n  jump\t// out\n    /* \"#utility.yul\":1568:1645   */\ntag_24:\n    /* \"#utility.yul\":1605:1612   */\n  0x00\n    /* \"#utility.yul\":1634:1639   */\n  dup2\n    /* \"#utility.yul\":1623:1639   */\n  swap1\n  pop\n    /* \"#utility.yul\":1568:1645   */\n  swap2\n  swap1\n  pop\n  jump\t// out\n    /* \"#utility.yul\":1651:1711   */\ntag_25:\n    /* \"#utility.yul\":1679:1682   */\n  0x00\n    /* \"#utility.yul\":1700:1705   */\n  dup2\n    /* \"#utility.yul\":1693:1705   */\n  swap1\n  pop\n    /* \"#utility.yul\":1651:1711   */\n  swap2\n  swap1\n  pop\n  jump\t// out\n    /* \"#utility.yul\":1717:1859   */\ntag_26:\n    /* \"#utility.yul\":1767:1776   */\n  0x00\n    /* \"#utility.yul\":1800:1853   */\n  tag_67\n    /* \"#utility.yul\":1818:1852   */\n  tag_68\n    /* \"#utility.yul\":1827:1851   */\n  tag_69\n    /* \"#utility.yul\":1845:1850   */\n  dup5\n    /* \"#utility.yul\":1827:1851   */\n  tag_24\n  jump\t// in\ntag_69:\n    /* \"#utility.yul\":1818:1852   */\n  tag_25\n  jump\t// in\ntag_68:\n    /* \"#utility.yul\":1800:1853   */\n  tag_24\n  jump\t// in\ntag_67:\n    /* \"#utility.yul\":1787:1853   */\n  swap1\n  pop\n    /* \"#utility.yul\":1717:1859   */\n  swap2\n  swap1\n  pop\n  jump\t// out\n    /* \"#utility.yul\":1865:1940   */\ntag_27:\n    /* \"#utility.yul\":1908:1911   */\n  0x00\n    /* \"#utility.yul\":1929:1934   */\n  dup2\n    /* \"#utility.yul\":1922:1934   */\n  swap1\n  pop\n    /* \"#utility.yul\":1865:1940   */\n  swap2\n  swap1\n  pop\n  jump\t// out\n    /* \"#utility.yul\":1946:2215   */\ntag_28:\n    /* \"#utility.yul\":2056:2095   */\n  tag_72\n    /* \"#utility.yul\":2087:2094   */\n  dup4\n    /* \"#utility.yul\":2056:2095   */\n  tag_26\n  jump\t// in\ntag_72:\n    /* \"#utility.yul\":2117:2208   */\n  tag_73\n    /* \"#utility.yul\":2166:2207   */\n  tag_74\n    /* \"#utility.yul\":2190:2206   */\n  dup3\n    /* \"#utility.yul\":2166:2207   */\n  tag_27\n  jump\t// in\ntag_74:\n    /* \"#utility.yul\":2158:2164   */\n  dup5\n    /* \"#utility.yul\":2151:2155   */\n  dup5\n    /* \"#utility.yul\":2145:2156   */\n  sload\n    /* \"#utility.yul\":2117:2208   */\n  tag_23\n  jump\t// in\ntag_73:\n    /* \"#utility.yul\":2111:2115   */\n  dup3\n    /* \"#utility.yul\":2104:2209   */\n  sstore\n    /* \"#utility.yul\":2022:2215   */\n  pop\n    /* \"#utility.yul\":1946:2215   */\n  pop\n  pop\n  pop\n  jump\t// out\n    /* \"#utility.yul\":2221:2294   */\ntag_29:\n    /* \"#utility.yul\":2266:2269   */\n  0x00\n    /* \"#utility.yul\":2287:2288   */\n  0x00\n    /* \"#utility.yul\":2280:2288   */\n  swap1\n  pop\n    /* \"#utility.yul\":2221:2294   */\n  swap1\n  jump\t// out\n    /* \"#utility.yul\":2300:2489   */\ntag_30:\n    /* \"#utility.yul\":2377:2409   */\n  tag_77\n  tag_29\n  jump\t// in\ntag_77:\n    /* \"#utility.yul\":2418:2483   */\n  tag_78\n    /* \"#utility.yul\":2476:2482   */\n  dup2\n    /* \"#utility.yul\":2468:2474   */\n  dup5\n    /* \"#utility.yul\":2462:2466   */\n  dup5\n    /* \"#utility.yul\":2418:2483   */\n  tag_28\n  jump\t// in\ntag_78:\n    /* \"#utility.yul\":2353:2489   */\n  pop\n    /* \"#utility.yul\":2300:2489   */\n  pop\n  pop\n  jump\t// out\n    /* \"#utility.yul\":2495:2681   */\ntag_31:\n    /* \"#utility.yul\":2555:2675   */\ntag_80:\n    /* \"#utility.yul\":2572:2575   */\n  dup2\n    /* \"#utility.yul\":2565:2570   */\n  dup2\n    /* \"#utility.yul\":2562:2576   */\n  lt\n    /* \"#utility.yul\":2555:2675   */\n  iszero\n  tag_82\n  jumpi\n    /* \"#utility.yul\":2626:2665   */\n  tag_83\n    /* \"#utility.yul\":2663:2664   */\n  0x00\n    /* \"#utility.yul\":2656:2661   */\n  dup3\n    /* \"#utility.yul\":2626:2665   */\n  tag_30\n  jump\t// in\ntag_83:\n    /* \"#utility.yul\":2599:2600   */\n  0x01\n    /* \"#utility.yul\":2592:2597   */\n  dup2\n    /* \"#utility.yul\":2588:2601   */\n  add\n    /* \"#utility.yul\":2579:2601   */\n  swap1\n  pop\n    /* \"#utility.yul\":2555:2675   */\n  jump(tag_80)\ntag_82:\n    /* \"#utility.yul\":2495:2681   */\n  pop\n  pop\n  jump\t// out\n    /* \"#utility.yul\":2687:3230   */\ntag_32:\n    /* \"#utility.yul\":2788:2790   */\n  0x1f\n    /* \"#utility.yul\":2783:2786   */\n  dup3\n    /* \"#utility.yul\":2780:2791   */\n  gt\n    /* \"#utility.yul\":2777:3223   */\n  iszero\n  tag_85\n  jumpi\n    /* \"#utility.yul\":2822:2860   */\n  tag_86\n    /* \"#utility.yul\":2854:2859   */\n  dup2\n    /* \"#utility.yul\":2822:2860   */\n  tag_20\n  jump\t// in\ntag_86:\n    /* \"#utility.yul\":2906:2935   */\n  tag_87\n    /* \"#utility.yul\":2924:2934   */\n  dup5\n    /* \"#utility.yul\":2906:2935   */\n  tag_21\n  jump\t// in\ntag_87:\n    /* \"#utility.yul\":2896:2904   */\n  dup2\n    /* \"#utility.yul\":2892:2936   */\n  add\n    /* \"#utility.yul\":3089:3091   */\n  0x20\n    /* \"#utility.yul\":3077:3087   */\n  dup6\n    /* \"#utility.yul\":3074:3092   */\n  lt\n    /* \"#utility.yul\":3071:3120   */\n  iszero\n  tag_88\n  jumpi\n    /* \"#utility.yul\":3110:3118   */\n  dup2\n    /* \"#utility.yul\":3095:3118   */\n  swap1\n  pop\n    /* \"#utility.yul\":3071:3120   */\ntag_88:\n    /* \"#utility.yul\":3133:3213   */\n  tag_89\n    /* \"#utility.yul\":3189:3211   */\n  tag_90\n    /* \"#utility.yul\":3207:3210   */\n  dup6\n    /* \"#utility.yul\":3189:3211   */\n  tag_21\n  jump\t// in\ntag_90:\n    /* \"#utility.yul\":3179:3187   */\n  dup4\n    /* \"#utility.yul\":3175:3212   */\n  add\n    /* \"#utility.yul\":3162:3173   */\n  dup3\n    /* \"#utility.yul\":3133:3213   */\n  tag_31\n  jump\t// in\ntag_89:\n    /* \"#utility.yul\":2792:3223   */\n  pop\n  pop\n    /* \"#utility.yul\":2777:3223   */\ntag_85:\n    /* \"#utility.yul\":2687:3230   */\n  pop\n  pop\n  pop\n  jump\t// out\n    /* \"#utility.yul\":3236:3353   */\ntag_33:\n    /* \"#utility.yul\":3290:3298   */\n  0x00\n    /* \"#utility.yul\":3340:3345   */\n  dup3\n    /* \"#utility.yul\":3334:3338   */\n  dup3\n    /* \"#utility.yul\":3330:3346   */\n  shr\n    /* \"#utility.yul\":3309:3346   */\n  swap1\n  pop\n    /* \"#utility.yul\":3236:3353   */\n  swap3\n  swap2\n  pop\n  pop\n  jump\t// out\n    /* \"#utility.yul\":3359:3528   */\ntag_34:\n    /* \"#utility.yul\":3403:3409   */\n  0x00\n    /* \"#utility.yul\":3436:3487   */\n  tag_93\n    /* \"#utility.yul\":3484:3485   */\n  0x00\n    /* \"#utility.yul\":3480:3486   */\n  not\n    /* \"#utility.yul\":3472:3477   */\n  dup5\n    /* \"#utility.yul\":3469:3470   */\n  0x08\n    /* \"#utility.yul\":3465:3478   */\n  mul\n    /* \"#utility.yul\":3436:3487   */\n  tag_33\n  jump\t// in\ntag_93:\n    /* \"#utility.yul\":3432:3488   */\n  not\n    /* \"#utility.yul\":3517:3521   */\n  dup1\n    /* \"#utility.yul\":3511:3515   */\n  dup4\n    /* \"#utility.yul\":3507:3522   */\n  and\n    /* \"#utility.yul\":3497:3522   */\n  swap2\n  pop\n    /* \"#utility.yul\":3410:3528   */\n  pop\n    /* \"#utility.yul\":3359:3528   */\n  swap3\n  swap2\n  pop\n  pop\n  jump\t// out\n    /* \"#utility.yul\":3533:3828   */\ntag_35:\n    /* \"#utility.yul\":3609:3613   */\n  0x00\n    /* \"#utility.yul\":3755:3784   */\n  tag_95\n    /* \"#utility.yul\":3780:3783   */\n  dup4\n    /* \"#utility.yul\":3774:3778   */\n  dup4\n    /* \"#utility.yul\":3755:3784   */\n  tag_34\n  jump\t// in\ntag_95:\n    /* \"#utility.yul\":3747:3784   */\n  swap2\n  pop\n    /* \"#utility.yul\":3817:3820   */\n  dup3\n    /* \"#utility.yul\":3814:3815   */\n  0x02\n    /* \"#utility.yul\":3810:3821   */\n  mul\n    /* \"#utility.yul\":3804:3808   */\n  dup3\n    /* \"#utility.yul\":3801:3822   */\n  or\n    /* \"#utility.yul\":3793:3822   */\n  swap1\n  pop\n    /* \"#utility.yul\":3533:3828   */\n  swap3\n  swap2\n  pop\n  pop\n  jump\t// out\n    /* \"#utility.yul\":3833:5228   */\ntag_2:\n    /* \"#utility.yul\":3950:3987   */\n  tag_97\n    /* \"#utility.yul\":3983:3986   */\n  dup3\n    /* \"#utility.yul\":3950:3987   */\n  tag_16\n  jump\t// in\ntag_97:\n    /* \"#utility.yul\":4052:4070   */\n  0xffffffffffffffff\n    /* \"#utility.yul\":4044:4050   */\n  dup2\n    /* \"#utility.yul\":4041:4071   */\n  gt\n    /* \"#utility.yul\":4038:4094   */\n  iszero\n  tag_98\n  jumpi\n    /* \"#utility.yul\":4074:4092   */\n  tag_99\n  tag_17\n  jump\t// in\ntag_99:\n    /* \"#utility.yul\":4038:4094   */\ntag_98:\n    /* \"#utility.yul\":4118:4156   */\n  tag_100\n    /* \"#utility.yul\":4150:4154   */\n  dup3\n    /* \"#utility.yul\":4144:4155   */\n  sload\n    /* \"#utility.yul\":4118:4156   */\n  tag_19\n  jump\t// in\ntag_100:\n    /* \"#utility.yul\":4203:4270   */\n  tag_101\n    /* \"#utility.yul\":4263:4269   */\n  dup3\n    /* \"#utility.yul\":4255:4261   */\n  dup3\n    /* \"#utility.yul\":4249:4253   */\n  dup6\n    /* \"#utility.yul\":4203:4270   */\n  tag_32\n  jump\t// in\ntag_101:\n    /* \"#utility.yul\":4297:4298   */\n  0x00\n    /* \"#utility.yul\":4321:4325   */\n  0x20\n    /* \"#utility.yul\":4308:4325   */\n  swap1\n  pop\n    /* \"#utility.yul\":4353:4355   */\n  0x1f\n    /* \"#utility.yul\":4345:4351   */\n  dup4\n    /* \"#utility.yul\":4342:4356   */\n  gt\n    /* \"#utility.yul\":4370:4371   */\n  0x01\n    /* \"#utility.yul\":4365:4983   */\n  dup2\n  eq\n  tag_103\n  jumpi\n    /* \"#utility.yul\":5027:5028   */\n  0x00\n    /* \"#utility.yul\":5044:5050   */\n  dup5\n    /* \"#utility.yul\":5041:5118   */\n  iszero\n  tag_104\n  jumpi\n    /* \"#utility.yul\":5093:5102   */\n  dup3\n    /* \"#utility.yul\":5088:5091   */\n  dup8\n    /* \"#utility.yul\":5084:5103   */\n  add\n    /* \"#utility.yul\":5078:5104   */\n  mload\n    /* \"#utility.yul\":5069:5104   */\n  swap1\n  pop\n    /* \"#utility.yul\":5041:5118   */\ntag_104:\n    /* \"#utility.yul\":5144:5211   */\n  tag_105\n    /* \"#utility.yul\":5204:5210   */\n  dup6\n    /* \"#utility.yul\":5197:5202   */\n  dup3\n    /* \"#utility.yul\":5144:5211   */\n  tag_35\n  jump\t// in\ntag_105:\n    /* \"#utility.yul\":5138:5142   */\n  dup7\n    /* \"#utility.yul\":5131:5212   */\n  sstore\n    /* \"#utility.yul\":5000:5222   */\n  pop\n    /* \"#utility.yul\":4335:5222   */\n  jump(tag_102)\n    /* \"#utility.yul\":4365:4983   */\ntag_103:\n    /* \"#utility.yul\":4417:4421   */\n  0x1f\n    /* \"#utility.yul\":4413:4422   */\n  not\n    /* \"#utility.yul\":4405:4411   */\n  dup5\n    /* \"#utility.yul\":4401:4423   */\n  and\n    /* \"#utility.yul\":4451:4488   */\n  tag_106\n    /* \"#utility.yul\":4483:4487   */\n  dup7\n    /* \"#utility.yul\":4451:4488   */\n  tag_20\n  jump\t// in\ntag_106:\n    /* \"#utility.yul\":4510:4511   */\n  0x00\n    /* \"#utility.yul\":4524:4732   */\ntag_107:\n    /* \"#utility.yul\":4538:4545   */\n  dup3\n    /* \"#utility.yul\":4535:4536   */\n  dup2\n    /* \"#utility.yul\":4532:4546   */\n  lt\n    /* \"#utility.yul\":4524:4732   */\n  iszero\n  tag_109\n  jumpi\n    /* \"#utility.yul\":4617:4626   */\n  dup5\n    /* \"#utility.yul\":4612:4615   */\n  dup10\n    /* \"#utility.yul\":4608:4627   */\n  add\n    /* \"#utility.yul\":4602:4628   */\n  mload\n    /* \"#utility.yul\":4594:4600   */\n  dup3\n    /* \"#utility.yul\":4587:4629   */\n  sstore\n    /* \"#utility.yul\":4668:4669   */\n  0x01\n    /* \"#utility.yul\":4660:4666   */\n  dup3\n    /* \"#utility.yul\":4656:4670   */\n  add\n    /* \"#utility.yul\":4646:4670   */\n  swap2\n  pop\n    /* \"#utility.yul\":4715:4717   */\n  0x20\n    /* \"#utility.yul\":4704:4713   */\n  dup6\n    /* \"#utility.yul\":4700:4718   */\n  add\n    /* \"#utility.yul\":4687:4718   */\n  swap5\n  pop\n    /* \"#utility.yul\":4561:4565   */\n  0x20\n    /* \"#utility.yul\":4558:4559   */\n  dup2\n    /* \"#utility.yul\":4554:4566   */\n  add\n    /* \"#utility.yul\":4549:4566   */\n  swap1\n  pop\n    /* \"#utility.yul\":4524:4732   */\n  jump(tag_107)\ntag_109:\n    /* \"#utility.yul\":4760:4766   */\n  dup7\n    /* \"#utility.yul\":4751:4758   */\n  dup4\n    /* \"#utility.yul\":4748:4767   */\n  lt\n    /* \"#utility.yul\":4745:4924   */\n  iszero\n  tag_110\n  jumpi\n    /* \"#utility.yul\":4818:4827   */\n  dup5\n    /* \"#utility.yul\":4813:4816   */\n  dup10\n    /* \"#utility.yul\":4809:4828   */\n  add\n    /* \"#utility.yul\":4803:4829   */\n  mload\n    /* \"#utility.yul\":4861:4909   */\n  tag_111\n    /* \"#utility.yul\":4903:4907   */\n  0x1f\n    /* \"#utility.yul\":4895:4901   */\n  dup10\n    /* \"#utility.yul\":4891:4908   */\n  and\n    /* \"#utility.yul\":4880:4889   */\n  dup3\n    /* \"#utility.yul\":4861:4909   */\n  tag_34\n  jump\t// in\ntag_111:\n    /* \"#utility.yul\":4853:4859   */\n  dup4\n    /* \"#utility.yul\":4846:4910   */\n  sstore\n    /* \"#utility.yul\":4768:4924   */\n  pop\n    /* \"#utility.yul\":4745:4924   */\ntag_110:\n    /* \"#utility.yul\":4970:4971   */\n  0x01\n    /* \"#utility.yul\":4966:4967   */\n  0x02\n    /* \"#utility.yul\":4958:4964   */\n  dup9\n    /* \"#utility.yul\":4954:4968   */\n  mul\n    /* \"#utility.yul\":4950:4972   */\n  add\n    /* \"#utility.yul\":4944:4948   */\n  dup9\n    /* \"#utility.yul\":4937:4973   */\n  sstore\n    /* \"#utility.yul\":4372:4983   */\n  pop\n  pop\n  pop\n    /* \"#utility.yul\":4335:5222   */\ntag_102:\n  pop\n    /* \"#utility.yul\":3925:5228   */\n  pop\n  pop\n  pop\n    /* \"#utility.yul\":3833:5228   */\n  pop\n  pop\n  jump\t// out\n    /* \"#utility.yul\":5315:5432   */\ntag_37:\n    /* \"#utility.yul\":5424:5425   */\n  0x00\n    /* \"#utility.yul\":5421:5422   */\n  0x00\n    /* \"#utility.yul\":5414:5426   */\n  revert\n    /* \"#utility.yul\":5561:5683   */\ntag_39:\n    /* \"#utility.yul\":5634:5658   */\n  tag_116\n    /* \"#utility.yul\":5652:5657   */\n  dup2\n    /* \"#utility.yul\":5634:5658   */\n  tag_24\n  jump\t// in\ntag_116:\n    /* \"#utility.yul\":5627:5632   */\n  dup2\n    /* \"#utility.yul\":5624:5659   */\n  eq\n    /* \"#utility.yul\":5614:5677   */\n  tag_117\n  jumpi\n    /* \"#utility.yul\":5673:5674   */\n  0x00\n    /* \"#utility.yul\":5670:5671   */\n  0x00\n    /* \"#utility.yul\":5663:5675   */\n  revert\n    /* \"#utility.yul\":5614:5677   */\ntag_117:\n    /* \"#utility.yul\":5561:5683   */\n  pop\n  jump\t// out\n    /* \"#utility.yul\":5689:5832   */\ntag_40:\n    /* \"#utility.yul\":5746:5751   */\n  0x00\n    /* \"#utility.yul\":5777:5783   */\n  dup2\n    /* \"#utility.yul\":5771:5784   */\n  mload\n    /* \"#utility.yul\":5762:5784   */\n  swap1\n  pop\n    /* \"#utility.yul\":5793:5826   */\n  tag_119\n    /* \"#utility.yul\":5820:5825   */\n  dup2\n    /* \"#utility.yul\":5793:5826   */\n  tag_39\n  jump\t// in\ntag_119:\n    /* \"#utility.yul\":5689:5832   */\n  swap3\n  swap2\n  pop\n  pop\n  jump\t// out\n    /* \"#utility.yul\":5838:5964   */\ntag_41:\n    /* \"#utility.yul\":5875:5882   */\n  0x00\n    /* \"#utility.yul\":5915:5957   */\n  0xffffffffffffffffffffffffffffffffffffffff\n    /* \"#utility.yul\":5908:5913   */\n  dup3\n    /* \"#utility.yul\":5904:5958   */\n  and\n    /* \"#utility.yul\":5893:5958   */\n  swap1\n  pop\n    /* \"#utility.yul\":5838:5964   */\n  swap2\n  swap1\n  pop\n  jump\t// out\n    /* \"#utility.yul\":5970:6066   */\ntag_42:\n    /* \"#utility.yul\":6007:6014   */\n  0x00\n    /* \"#utility.yul\":6036:6060   */\n  tag_122\n    /* \"#utility.yul\":6054:6059   */\n  dup3\n    /* \"#utility.yul\":6036:6060   */\n  tag_41\n  jump\t// in\ntag_122:\n    /* \"#utility.yul\":6025:6060   */\n  swap1\n  pop\n    /* \"#utility.yul\":5970:6066   */\n  swap2\n  swap1\n  pop\n  jump\t// out\n    /* \"#utility.yul\":6072:6194   */\ntag_43:\n    /* \"#utility.yul\":6145:6169   */\n  tag_124\n    /* \"#utility.yul\":6163:6168   */\n  dup2\n    /* \"#utility.yul\":6145:6169   */\n  tag_42\n  jump\t// in\ntag_124:\n    /* \"#utility.yul\":6138:6143   */\n  dup2\n    /* \"#utility.yul\":6135:6170   */\n  eq\n    /* \"#utility.yul\":6125:6188   */\n  tag_125\n  jumpi\n    /* \"#utility.yul\":6184:6185   */\n  0x00\n    /* \"#utility.yul\":6181:6182   */\n  0x00\n    /* \"#utility.yul\":6174:6186   */\n  revert\n    /* \"#utility.yul\":6125:6188   */\ntag_125:\n    /* \"#utility.yul\":6072:6194   */\n  pop\n  jump\t// out\n    /* \"#utility.yul\":6200:6343   */\ntag_44:\n    /* \"#utility.yul\":6257:6262   */\n  0x00\n    /* \"#utility.yul\":6288:6294   */\n  dup2\n    /* \"#utility.yul\":6282:6295   */\n  mload\n    /* \"#utility.yul\":6273:6295   */\n  swap1\n  pop\n    /* \"#utility.yul\":6304:6337   */\n  tag_127\n    /* \"#utility.yul\":6331:6336   */\n  dup2\n    /* \"#utility.yul\":6304:6337   */\n  tag_43\n  jump\t// in\ntag_127:\n    /* \"#utility.yul\":6200:6343   */\n  swap3\n  swap2\n  pop\n  pop\n  jump\t// out\n    /* \"#utility.yul\":6349:7012   */\ntag_6:\n    /* \"#utility.yul\":6437:6443   */\n  0x00\n    /* \"#utility.yul\":6445:6451   */\n  0x00\n    /* \"#utility.yul\":6453:6459   */\n  0x00\n    /* \"#utility.yul\":6502:6504   */\n  0x60\n    /* \"#utility.yul\":6490:6499   */\n  dup5\n    /* \"#utility.yul\":6481:6488   */\n  dup7\n    /* \"#utility.yul\":6477:6500   */\n  sub\n    /* \"#utility.yul\":6473:6505   */\n  slt\n    /* \"#utility.yul\":6470:6589   */\n  iszero\n  tag_129\n  jumpi\n    /* \"#utility.yul\":6508:6587   */\n  tag_130\n  tag_37\n  jump\t// in\ntag_130:\n    /* \"#utility.yul\":6470:6589   */\ntag_129:\n    /* \"#utility.yul\":6628:6629   */\n  0x00\n    /* \"#utility.yul\":6653:6717   */\n  tag_131\n    /* \"#utility.yul\":6709:6716   */\n  dup7\n    /* \"#utility.yul\":6700:6706   */\n  dup3\n    /* \"#utility.yul\":6689:6698   */\n  dup8\n    /* \"#utility.yul\":6685:6707   */\n  add\n    /* \"#utility.yul\":6653:6717   */\n  tag_40\n  jump\t// in\ntag_131:\n    /* \"#utility.yul\":6643:6717   */\n  swap4\n  pop\n    /* \"#utility.yul\":6599:6727   */\n  pop\n    /* \"#utility.yul\":6766:6768   */\n  0x20\n    /* \"#utility.yul\":6792:6856   */\n  tag_132\n    /* \"#utility.yul\":6848:6855   */\n  dup7\n    /* \"#utility.yul\":6839:6845   */\n  dup3\n    /* \"#utility.yul\":6828:6837   */\n  dup8\n    /* \"#utility.yul\":6824:6846   */\n  add\n    /* \"#utility.yul\":6792:6856   */\n  tag_44\n  jump\t// in\ntag_132:\n    /* \"#utility.yul\":6782:6856   */\n  swap3\n  pop\n    /* \"#utility.yul\":6737:6866   */\n  pop\n    /* \"#utility.yul\":6905:6907   */\n  0x40\n    /* \"#utility.yul\":6931:6995   */\n  tag_133\n    /* \"#utility.yul\":6987:6994   */\n  dup7\n    /* \"#utility.yul\":6978:6984   */\n  dup3\n    /* \"#utility.yul\":6967:6976   */\n  dup8\n    /* \"#utility.yul\":6963:6985   */\n  add\n    /* \"#utility.yul\":6931:6995   */\n  tag_44\n  jump\t// in\ntag_133:\n    /* \"#utility.yul\":6921:6995   */\n  swap2\n  pop\n    /* \"#utility.yul\":6876:7005   */\n  pop\n    /* \"#utility.yul\":6349:7012   */\n  swap3\n  pop\n  swap3\n  pop\n  swap3\n  jump\t// out\n    /* \"#utility.yul\":7018:7187   */\ntag_45:\n    /* \"#utility.yul\":7102:7113   */\n  0x00\n    /* \"#utility.yul\":7136:7142   */\n  dup3\n    /* \"#utility.yul\":7131:7134   */\n  dup3\n    /* \"#utility.yul\":7124:7143   */\n  mstore\n    /* \"#utility.yul\":7176:7180   */\n  0x20\n    /* \"#utility.yul\":7171:7174   */\n  dup3\n    /* \"#utility.yul\":7167:7181   */\n  add\n    /* \"#utility.yul\":7152:7181   */\n  swap1\n  pop\n    /* \"#utility.yul\":7018:7187   */\n  swap3\n  swap2\n  pop\n  pop\n  jump\t// out\n    /* \"#utility.yul\":7193:7373   */\ntag_46:\n    /* \"#utility.yul\":7333:7365   */\n  0x496e76616c6964206c697175696469747920706f6f6c20616464726573730000\n    /* \"#utility.yul\":7329:7330   */\n  0x00\n    /* \"#utility.yul\":7321:7327   */\n  dup3\n    /* \"#utility.yul\":7317:7331   */\n  add\n    /* \"#utility.yul\":7310:7366   */\n  mstore\n    /* \"#utility.yul\":7193:7373   */\n  pop\n  jump\t// out\n    /* \"#utility.yul\":7379:7745   */\ntag_47:\n    /* \"#utility.yul\":7521:7524   */\n  0x00\n    /* \"#utility.yul\":7542:7609   */\n  tag_137\n    /* \"#utility.yul\":7606:7608   */\n  0x1e\n    /* \"#utility.yul\":7601:7604   */\n  dup4\n    /* \"#utility.yul\":7542:7609   */\n  tag_45\n  jump\t// in\ntag_137:\n    /* \"#utility.yul\":7535:7609   */\n  swap2\n  pop\n    /* \"#utility.yul\":7618:7711   */\n  tag_138\n    /* \"#utility.yul\":7707:7710   */\n  dup3\n    /* \"#utility.yul\":7618:7711   */\n  tag_46\n  jump\t// in\ntag_138:\n    /* \"#utility.yul\":7736:7738   */\n  0x20\n    /* \"#utility.yul\":7731:7734   */\n  dup3\n    /* \"#utility.yul\":7727:7739   */\n  add\n    /* \"#utility.yul\":7720:7739   */\n  swap1\n  pop\n    /* \"#utility.yul\":7379:7745   */\n  swap2\n  swap1\n  pop\n  jump\t// out\n    /* \"#utility.yul\":7751:8170   */\ntag_11:\n    /* \"#utility.yul\":7917:7921   */\n  0x00\n    /* \"#utility.yul\":7955:7957   */\n  0x20\n    /* \"#utility.yul\":7944:7953   */\n  dup3\n    /* \"#utility.yul\":7940:7958   */\n  add\n    /* \"#utility.yul\":7932:7958   */\n  swap1\n  pop\n    /* \"#utility.yul\":8004:8013   */\n  dup2\n    /* \"#utility.yul\":7998:8002   */\n  dup2\n    /* \"#utility.yul\":7994:8014   */\n  sub\n    /* \"#utility.yul\":7990:7991   */\n  0x00\n    /* \"#utility.yul\":7979:7988   */\n  dup4\n    /* \"#utility.yul\":7975:7992   */\n  add\n    /* \"#utility.yul\":7968:8015   */\n  mstore\n    /* \"#utility.yul\":8032:8163   */\n  tag_140\n    /* \"#utility.yul\":8158:8162   */\n  dup2\n    /* \"#utility.yul\":8032:8163   */\n  tag_47\n  jump\t// in\ntag_140:\n    /* \"#utility.yul\":8024:8163   */\n  swap1\n  pop\n    /* \"#utility.yul\":7751:8170   */\n  swap2\n  swap1\n  pop\n  jump\t// out\n    /* \"#utility.yul\":8176:8358   */\ntag_48:\n    /* \"#utility.yul\":8316:8350   */\n  0x496e76616c696420617574686f726974792077616c6c65742061646472657373\n    /* \"#utility.yul\":8312:8313   */\n  0x00\n    /* \"#utility.yul\":8304:8310   */\n  dup3\n    /* \"#utility.yul\":8300:8314   */\n  add\n    /* \"#utility.yul\":8293:8351   */\n  mstore\n    /* \"#utility.yul\":8176:8358   */\n  pop\n  jump\t// out\n    /* \"#utility.yul\":8364:8730   */\ntag_49:\n    /* \"#utility.yul\":8506:8509   */\n  0x00\n    /* \"#utility.yul\":8527:8594   */\n  tag_143\n    /* \"#utility.yul\":8591:8593   */\n  0x20\n    /* \"#utility.yul\":8586:8589   */\n  dup4\n    /* \"#utility.yul\":8527:8594   */\n  tag_45\n  jump\t// in\ntag_143:\n    /* \"#utility.yul\":8520:8594   */\n  swap2\n  pop\n    /* \"#utility.yul\":8603:8696   */\n  tag_144\n    /* \"#utility.yul\":8692:8695   */\n  dup3\n    /* \"#utility.yul\":8603:8696   */\n  tag_48\n  jump\t// in\ntag_144:\n    /* \"#utility.yul\":8721:8723   */\n  0x20\n    /* \"#utility.yul\":8716:8719   */\n  dup3\n    /* \"#utility.yul\":8712:8724   */\n  add\n    /* \"#utility.yul\":8705:8724   */\n  swap1\n  pop\n    /* \"#utility.yul\":8364:8730   */\n  swap2\n  swap1\n  pop\n  jump\t// out\n    /* \"#utility.yul\":8736:9155   */\ntag_14:\n    /* \"#utility.yul\":8902:8906   */\n  0x00\n    /* \"#utility.yul\":8940:8942   */\n  0x20\n    /* \"#utility.yul\":8929:8938   */\n  dup3\n    /* \"#utility.yul\":8925:8943   */\n  add\n    /* \"#utility.yul\":8917:8943   */\n  swap1\n  pop\n    /* \"#utility.yul\":8989:8998   */\n  dup2\n    /* \"#utility.yul\":8983:8987   */\n  dup2\n    /* \"#utility.yul\":8979:8999   */\n  sub\n    /* \"#utility.yul\":8975:8976   */\n  0x00\n    /* \"#utility.yul\":8964:8973   */\n  dup4\n    /* \"#utility.yul\":8960:8977   */\n  add\n    /* \"#utility.yul\":8953:9000   */\n  mstore\n    /* \"#utility.yul\":9017:9148   */\n  tag_146\n    /* \"#utility.yul\":9143:9147   */\n  dup2\n    /* \"#utility.yul\":9017:9148   */\n  tag_49\n  jump\t// in\ntag_146:\n    /* \"#utility.yul\":9009:9148   */\n  swap1\n  pop\n    /* \"#utility.yul\":8736:9155   */\n  swap2\n  swap1\n  pop\n  jump\t// out\n    /* \"solana.sol\":207:5842  contract GottaBeytToken {... */\ntag_15:\n  dataSize(sub_0)\n  dup1\n  dataOffset(sub_0)\n  0x00\n  codecopy\n  0x00\n  return\nstop\n\nsub_0: assembly {\n        /* \"solana.sol\":207:5842  contract GottaBeytToken {... */\n      mstore(0x40, 0x80)\n      callvalue\n      dup1\n      iszero\n      tag_1\n      jumpi\n      revert(0x00, 0x00)\n    tag_1:\n      pop\n      jumpi(tag_2, lt(calldatasize, 0x04))\n      shr(0xe0, calldataload(0x00))\n      dup1\n      0x608e4dd0\n      gt\n      tag_32\n      jumpi\n      dup1\n      0x95d89b41\n      gt\n      tag_33\n      jumpi\n      dup1\n      0xdd62ed3e\n      gt\n      tag_34\n      jumpi\n      dup1\n      0xdd62ed3e\n      eq\n      tag_28\n      jumpi\n      dup1\n      0xf3f91fa0\n      eq\n      tag_29\n      jumpi\n      dup1\n      0xfe71264e\n      eq\n      tag_30\n      jumpi\n      dup1\n      0xfefcb3a9\n      eq\n      tag_31\n      jumpi\n      jump(tag_2)\n    tag_34:\n      dup1\n      0x95d89b41\n      eq\n      tag_24\n      jumpi\n      dup1\n      0xa9059cbb\n      eq\n      tag_25\n      jumpi\n      dup1\n      0xd73792a9\n      eq\n      tag_26\n      jumpi\n      dup1\n      0xd82e3962\n      eq\n      tag_27\n      jumpi\n      jump(tag_2)\n    tag_33:\n      dup1\n      0x70a08231\n      gt\n      tag_35\n      jumpi\n      dup1\n      0x70a08231\n      eq\n      tag_20\n      jumpi\n      dup1\n      0x7547c7a3\n      eq\n      tag_21\n      jumpi\n      dup1\n      0x819a9398\n      eq\n      tag_22\n      jumpi\n      dup1\n      0x951f894b\n      eq\n      tag_23\n      jumpi\n      jump(tag_2)\n    tag_35:\n      dup1\n      0x608e4dd0\n      eq\n      tag_17\n      jumpi\n      dup1\n      0x61b8b5dc\n      eq\n      tag_18\n      jumpi\n      dup1\n      0x665a11ca\n      eq\n      tag_19\n      jumpi\n      jump(tag_2)\n    tag_32:\n      dup1\n      0x372500ab\n      gt\n      tag_36\n      jumpi\n      dup1\n      0x58f442d2\n      gt\n      tag_37\n      jumpi\n      dup1\n      0x58f442d2\n      eq\n      tag_13\n      jumpi\n      dup1\n      0x5d025358\n      eq\n      tag_14\n      jumpi\n      dup1\n      0x5e3f2727\n      eq\n      tag_15\n      jumpi\n      dup1\n      0x604453ed\n      eq\n      tag_16\n      jumpi\n      jump(tag_2)\n    tag_37:\n      dup1\n      0x372500ab\n      eq\n      tag_10\n      jumpi\n      dup1\n      0x480df058\n      eq\n      tag_11\n      jumpi\n      dup1\n      0x55b6ed5c\n      eq\n      tag_12\n      jumpi\n      jump(tag_2)\n    tag_36:\n      dup1\n      0x18160ddd\n      gt\n      tag_38\n      jumpi\n      dup1\n      0x18160ddd\n      eq\n      tag_6\n      jumpi\n      dup1\n      0x23b872dd\n      eq\n      tag_7\n      jumpi\n      dup1\n      0x27e235e3\n      eq\n      tag_8\n      jumpi\n      dup1\n      0x313ce567\n      eq\n      tag_9\n      jumpi\n      jump(tag_2)\n    tag_38:\n      dup1\n      0x0361dfb7\n      eq\n      tag_3\n      jumpi\n      dup1\n      0x06fdde03\n      eq\n      tag_4\n      jumpi\n      dup1\n      0x095ea7b3\n      eq\n      tag_5\n      jumpi\n    tag_2:\n      revert(0x00, 0x00)\n        /* \"solana.sol\":452:482  address public authorityWallet */\n    tag_3:\n      tag_39\n      tag_40\n      jump\t// in\n    tag_39:\n      mload(0x40)\n      tag_41\n      swap2\n      swap1\n      tag_42\n      jump\t// in\n    tag_41:\n      mload(0x40)\n      dup1\n      swap2\n      sub\n      swap1\n      return\n        /* \"solana.sol\":238:271  string public name = \"Gotta Beyt\" */\n    tag_4:\n      tag_43\n      tag_44\n      jump\t// in\n    tag_43:\n      mload(0x40)\n      tag_45\n      swap2\n      swap1\n      tag_46\n      jump\t// in\n    tag_45:\n      mload(0x40)\n      dup1\n      swap2\n      sub\n      swap1\n      return\n        /* \"solana.sol\":2501:2707  function approve(address spender, uint256 amount) public returns (bool) {... */\n    tag_5:\n      tag_47\n      0x04\n      dup1\n      calldatasize\n      sub\n      dup2\n      add\n      swap1\n      tag_48\n      swap2\n      swap1\n      tag_49\n      jump\t// in\n    tag_48:\n      tag_50\n      jump\t// in\n    tag_47:\n      mload(0x40)\n      tag_51\n      swap2\n      swap1\n      tag_52\n      jump\t// in\n    tag_51:\n      mload(0x40)\n      dup1\n      swap2\n      sub\n      swap1\n      return\n        /* \"solana.sol\":347:373  uint256 public totalSupply */\n    tag_6:\n      tag_53\n      tag_54\n      jump\t// in\n    tag_53:\n      mload(0x40)\n      tag_55\n      swap2\n      swap1\n      tag_56\n      jump\t// in\n    tag_55:\n      mload(0x40)\n      dup1\n      swap2\n      sub\n      swap1\n      return\n        /* \"solana.sol\":2856:3161  function transferFrom(address sender, address recipient, uint256 amount) public returns (bool) {... */\n    tag_7:\n      tag_57\n      0x04\n      dup1\n      calldatasize\n      sub\n      dup2\n      add\n      swap1\n      tag_58\n      swap2\n      swap1\n      tag_59\n      jump\t// in\n    tag_58:\n      tag_60\n      jump\t// in\n    tag_57:\n      mload(0x40)\n      tag_61\n      swap2\n      swap1\n      tag_52\n      jump\t// in\n    tag_61:\n      mload(0x40)\n      dup1\n      swap2\n      sub\n      swap1\n      return\n        /* \"solana.sol\":1023:1066  mapping(address => uint256) public balances */\n    tag_8:\n      tag_62\n      0x04\n      dup1\n      calldatasize\n      sub\n      dup2\n      add\n      swap1\n      tag_63\n      swap2\n      swap1\n      tag_64\n      jump\t// in\n    tag_63:\n      tag_65\n      jump\t// in\n    tag_62:\n      mload(0x40)\n      tag_66\n      swap2\n      swap1\n      tag_56\n      jump\t// in\n    tag_66:\n      mload(0x40)\n      dup1\n      swap2\n      sub\n      swap1\n      return\n        /* \"solana.sol\":315:340  uint8 public decimals = 6 */\n    tag_9:\n      tag_67\n      tag_68\n      jump\t// in\n    tag_67:\n      mload(0x40)\n      tag_69\n      swap2\n      swap1\n      tag_70\n      jump\t// in\n    tag_69:\n      mload(0x40)\n      dup1\n      swap2\n      sub\n      swap1\n      return\n        /* \"solana.sol\":4810:5141  function claimRewards() public {... */\n    tag_10:\n      tag_71\n      tag_72\n      jump\t// in\n    tag_71:\n      stop\n        /* \"solana.sol\":602:639  uint256 public constant BURN_FEE = 35 */\n    tag_11:\n      tag_73\n      tag_74\n      jump\t// in\n    tag_73:\n      mload(0x40)\n      tag_75\n      swap2\n      swap1\n      tag_56\n      jump\t// in\n    tag_75:\n      mload(0x40)\n      dup1\n      swap2\n      sub\n      swap1\n      return\n        /* \"solana.sol\":1073:1138  mapping(address => mapping(address => uint256)) public allowances */\n    tag_12:\n      tag_76\n      0x04\n      dup1\n      calldatasize\n      sub\n      dup2\n      add\n      swap1\n      tag_77\n      swap2\n      swap1\n      tag_78\n      jump\t// in\n    tag_77:\n      tag_79\n      jump\t// in\n    tag_76:\n      mload(0x40)\n      tag_80\n      swap2\n      swap1\n      tag_56\n      jump\t// in\n    tag_80:\n      mload(0x40)\n      dup1\n      swap2\n      sub\n      swap1\n      return\n        /* \"solana.sol\":903:948  uint256 public constant REWARD_ONE_YEAR = 425 */\n    tag_13:\n      tag_81\n      tag_82\n      jump\t// in\n    tag_81:\n      mload(0x40)\n      tag_83\n      swap2\n      swap1\n      tag_56\n      jump\t// in\n    tag_83:\n      mload(0x40)\n      dup1\n      swap2\n      sub\n      swap1\n      return\n        /* \"solana.sol\":543:586  uint256 public constant AUTHORITY_FEE = 215 */\n    tag_14:\n      tag_84\n      tag_85\n      jump\t// in\n    tag_84:\n      mload(0x40)\n      tag_86\n      swap2\n      swap1\n      tag_56\n      jump\t// in\n    tag_86:\n      mload(0x40)\n      dup1\n      swap2\n      sub\n      swap1\n      return\n        /* \"solana.sol\":491:527  uint256 public constant LP_FEE = 200 */\n    tag_15:\n      tag_87\n      tag_88\n      jump\t// in\n    tag_87:\n      mload(0x40)\n      tag_89\n      swap2\n      swap1\n      tag_56\n      jump\t// in\n    tag_89:\n      mload(0x40)\n      dup1\n      swap2\n      sub\n      swap1\n      return\n        /* \"solana.sol\":711:759  uint256 public constant REWARD_FIRST_MONTH = 115 */\n    tag_16:\n      tag_90\n      tag_91\n      jump\t// in\n    tag_90:\n      mload(0x40)\n      tag_92\n      swap2\n      swap1\n      tag_56\n      jump\t// in\n    tag_92:\n      mload(0x40)\n      dup1\n      swap2\n      sub\n      swap1\n      return\n        /* \"solana.sol\":5551:5839  function unstakeTokens(uint256 amount) public {... */\n    tag_17:\n      tag_93\n      0x04\n      dup1\n      calldatasize\n      sub\n      dup2\n      add\n      swap1\n      tag_94\n      swap2\n      swap1\n      tag_95\n      jump\t// in\n    tag_94:\n      tag_96\n      jump\t// in\n    tag_93:\n      stop\n        /* \"solana.sol\":1145:1195  mapping(address => uint256) public stakingBalances */\n    tag_18:\n      tag_97\n      0x04\n      dup1\n      calldatasize\n      sub\n      dup2\n      add\n      swap1\n      tag_98\n      swap2\n      swap1\n      tag_64\n      jump\t// in\n    tag_98:\n      tag_99\n      jump\t// in\n    tag_97:\n      mload(0x40)\n      tag_100\n      swap2\n      swap1\n      tag_56\n      jump\t// in\n    tag_100:\n      mload(0x40)\n      dup1\n      swap2\n      sub\n      swap1\n      return\n        /* \"solana.sol\":417:445  address public liquidityPool */\n    tag_19:\n      tag_101\n      tag_102\n      jump\t// in\n    tag_101:\n      mload(0x40)\n      tag_103\n      swap2\n      swap1\n      tag_42\n      jump\t// in\n    tag_103:\n      mload(0x40)\n      dup1\n      swap2\n      sub\n      swap1\n      return\n        /* \"solana.sol\":2220:2329  function balanceOf(address account) public view returns (uint256) {... */\n    tag_20:\n      tag_104\n      0x04\n      dup1\n      calldatasize\n      sub\n      dup2\n      add\n      swap1\n      tag_105\n      swap2\n      swap1\n      tag_64\n      jump\t// in\n    tag_105:\n      tag_106\n      jump\t// in\n    tag_104:\n      mload(0x40)\n      tag_107\n      swap2\n      swap1\n      tag_56\n      jump\t// in\n    tag_107:\n      mload(0x40)\n      dup1\n      swap2\n      sub\n      swap1\n      return\n        /* \"solana.sol\":5149:5543  function stakeTokens(uint256 amount) public {... */\n    tag_21:\n      tag_108\n      0x04\n      dup1\n      calldatasize\n      sub\n      dup2\n      add\n      swap1\n      tag_109\n      swap2\n      swap1\n      tag_95\n      jump\t// in\n    tag_109:\n      tag_110\n      jump\t// in\n    tag_108:\n      stop\n        /* \"solana.sol\":964:1014  uint256 public constant REWARD_DENOMINATOR = 10000 */\n    tag_22:\n      tag_111\n      tag_112\n      jump\t// in\n    tag_111:\n      mload(0x40)\n      tag_113\n      swap2\n      swap1\n      tag_56\n      jump\t// in\n    tag_113:\n      mload(0x40)\n      dup1\n      swap2\n      sub\n      swap1\n      return\n        /* \"solana.sol\":839:887  uint256 public constant REWARD_SIXTH_MONTH = 335 */\n    tag_23:\n      tag_114\n      tag_115\n      jump\t// in\n    tag_114:\n      mload(0x40)\n      tag_116\n      swap2\n      swap1\n      tag_56\n      jump\t// in\n    tag_116:\n      mload(0x40)\n      dup1\n      swap2\n      sub\n      swap1\n      return\n        /* \"solana.sol\":278:308  string public symbol = \"GBETY\" */\n    tag_24:\n      tag_117\n      tag_118\n      jump\t// in\n    tag_117:\n      mload(0x40)\n      tag_119\n      swap2\n      swap1\n      tag_46\n      jump\t// in\n    tag_119:\n      mload(0x40)\n      dup1\n      swap2\n      sub\n      swap1\n      return\n        /* \"solana.sol\":2337:2493  function transfer(address recipient, uint256 amount) public returns (bool) {... */\n    tag_25:\n      tag_120\n      0x04\n      dup1\n      calldatasize\n      sub\n      dup2\n      add\n      swap1\n      tag_121\n      swap2\n      swap1\n      tag_49\n      jump\t// in\n    tag_121:\n      tag_122\n      jump\t// in\n    tag_120:\n      mload(0x40)\n      tag_123\n      swap2\n      swap1\n      tag_52\n      jump\t// in\n    tag_123:\n      mload(0x40)\n      dup1\n      swap2\n      sub\n      swap1\n      return\n        /* \"solana.sol\":655:702  uint256 public constant FEE_DENOMINATOR = 10000 */\n    tag_26:\n      tag_124\n      tag_125\n      jump\t// in\n    tag_124:\n      mload(0x40)\n      tag_126\n      swap2\n      swap1\n      tag_56\n      jump\t// in\n    tag_126:\n      mload(0x40)\n      dup1\n      swap2\n      sub\n      swap1\n      return\n        /* \"solana.sol\":4083:4802  function calculateReward(address user) public view returns (uint256) {... */\n    tag_27:\n      tag_127\n      0x04\n      dup1\n      calldatasize\n      sub\n      dup2\n      add\n      swap1\n      tag_128\n      swap2\n      swap1\n      tag_64\n      jump\t// in\n    tag_128:\n      tag_129\n      jump\t// in\n    tag_127:\n      mload(0x40)\n      tag_130\n      swap2\n      swap1\n      tag_56\n      jump\t// in\n    tag_130:\n      mload(0x40)\n      dup1\n      swap2\n      sub\n      swap1\n      return\n        /* \"solana.sol\":2715:2848  function allowance(address owner, address spender) public view returns (uint256) {... */\n    tag_28:\n      tag_131\n      0x04\n      dup1\n      calldatasize\n      sub\n      dup2\n      add\n      swap1\n      tag_132\n      swap2\n      swap1\n      tag_78\n      jump\t// in\n    tag_132:\n      tag_133\n      jump\t// in\n    tag_131:\n      mload(0x40)\n      tag_134\n      swap2\n      swap1\n      tag_56\n      jump\t// in\n    tag_134:\n      mload(0x40)\n      dup1\n      swap2\n      sub\n      swap1\n      return\n        /* \"solana.sol\":1202:1252  mapping(address => uint256) public lastClaimedTime */\n    tag_29:\n      tag_135\n      0x04\n      dup1\n      calldatasize\n      sub\n      dup2\n      add\n      swap1\n      tag_136\n      swap2\n      swap1\n      tag_64\n      jump\t// in\n    tag_136:\n      tag_137\n      jump\t// in\n    tag_135:\n      mload(0x40)\n      tag_138\n      swap2\n      swap1\n      tag_56\n      jump\t// in\n    tag_138:\n      mload(0x40)\n      dup1\n      swap2\n      sub\n      swap1\n      return\n        /* \"solana.sol\":382:410  address public Contractowner */\n    tag_30:\n      tag_139\n      tag_140\n      jump\t// in\n    tag_139:\n      mload(0x40)\n      tag_141\n      swap2\n      swap1\n      tag_42\n      jump\t// in\n    tag_141:\n      mload(0x40)\n      dup1\n      swap2\n      sub\n      swap1\n      return\n        /* \"solana.sol\":775:823  uint256 public constant REWARD_THIRD_MONTH = 225 */\n    tag_31:\n      tag_142\n      tag_143\n      jump\t// in\n    tag_142:\n      mload(0x40)\n      tag_144\n      swap2\n      swap1\n      tag_56\n      jump\t// in\n    tag_144:\n      mload(0x40)\n      dup1\n      swap2\n      sub\n      swap1\n      return\n        /* \"solana.sol\":452:482  address public authorityWallet */\n    tag_40:\n      0x06\n      0x00\n      swap1\n      sload\n      swap1\n      0x0100\n      exp\n      swap1\n      div\n      0xffffffffffffffffffffffffffffffffffffffff\n      and\n      dup2\n      jump\t// out\n        /* \"solana.sol\":238:271  string public name = \"Gotta Beyt\" */\n    tag_44:\n      0x00\n      dup1\n      sload\n      tag_145\n      swap1\n      tag_146\n      jump\t// in\n    tag_145:\n      dup1\n      0x1f\n      add\n      0x20\n      dup1\n      swap2\n      div\n      mul\n      0x20\n      add\n      mload(0x40)\n      swap1\n      dup2\n      add\n      0x40\n      mstore\n      dup1\n      swap3\n      swap2\n      swap1\n      dup2\n      dup2\n      mstore\n      0x20\n      add\n      dup3\n      dup1\n      sload\n      tag_147\n      swap1\n      tag_146\n      jump\t// in\n    tag_147:\n      dup1\n      iszero\n      tag_148\n      jumpi\n      dup1\n      0x1f\n      lt\n      tag_149\n      jumpi\n      0x0100\n      dup1\n      dup4\n      sload\n      div\n      mul\n      dup4\n      mstore\n      swap2\n      0x20\n      add\n      swap2\n      jump(tag_148)\n    tag_149:\n      dup3\n      add\n      swap2\n      swap1\n      0x00\n      mstore\n      keccak256(0x00, 0x20)\n      swap1\n    tag_150:\n      dup2\n      sload\n      dup2\n      mstore\n      swap1\n      0x01\n      add\n      swap1\n      0x20\n      add\n      dup1\n      dup4\n      gt\n      tag_150\n      jumpi\n      dup3\n      swap1\n      sub\n      0x1f\n      and\n      dup3\n      add\n      swap2\n    tag_148:\n      pop\n      pop\n      pop\n      pop\n      pop\n      dup2\n      jump\t// out\n        /* \"solana.sol\":2501:2707  function approve(address spender, uint256 amount) public returns (bool) {... */\n    tag_50:\n        /* \"solana.sol\":2567:2571  bool */\n      0x00\n        /* \"solana.sol\":2618:2624  amount */\n      dup2\n        /* \"solana.sol\":2584:2594  allowances */\n      0x08\n        /* \"solana.sol\":2584:2606  allowances[msg.sender] */\n      0x00\n        /* \"solana.sol\":2595:2605  msg.sender */\n      caller\n        /* \"solana.sol\":2584:2606  allowances[msg.sender] */\n      0xffffffffffffffffffffffffffffffffffffffff\n      and\n      0xffffffffffffffffffffffffffffffffffffffff\n      and\n      dup2\n      mstore\n      0x20\n      add\n      swap1\n      dup2\n      mstore\n      0x20\n      add\n      0x00\n      keccak256\n        /* \"solana.sol\":2584:2615  allowances[msg.sender][spender] */\n      0x00\n        /* \"solana.sol\":2607:2614  spender */\n      dup6\n        /* \"solana.sol\":2584:2615  allowances[msg.sender][spender] */\n      0xffffffffffffffffffffffffffffffffffffffff\n      and\n      0xffffffffffffffffffffffffffffffffffffffff\n      and\n      dup2\n      mstore\n      0x20\n      add\n      swap1\n      dup2\n      mstore\n      0x20\n      add\n      0x00\n      keccak256\n        /* \"solana.sol\":2584:2624  allowances[msg.sender][spender] = amount */\n      dup2\n      swap1\n      sstore\n      pop\n        /* \"solana.sol\":2661:2668  spender */\n      dup3\n        /* \"solana.sol\":2640:2677  Approval(msg.sender, spender, amount) */\n      0xffffffffffffffffffffffffffffffffffffffff\n      and\n        /* \"solana.sol\":2649:2659  msg.sender */\n      caller\n        /* \"solana.sol\":2640:2677  Approval(msg.sender, spender, amount) */\n      0xffffffffffffffffffffffffffffffffffffffff\n      and\n      0x8c5be1e5ebec7d5bd14f71427d1e84f3dd0314c0f7b2291e5b200ac8c7c3b925\n        /* \"solana.sol\":2670:2676  amount */\n      dup5\n        /* \"solana.sol\":2640:2677  Approval(msg.sender, spender, amount) */\n      mload(0x40)\n      tag_152\n      swap2\n      swap1\n      tag_56\n      jump\t// in\n    tag_152:\n      mload(0x40)\n      dup1\n      swap2\n      sub\n      swap1\n      log3\n        /* \"solana.sol\":2695:2699  true */\n      0x01\n        /* \"solana.sol\":2688:2699  return true */\n      swap1\n      pop\n        /* \"solana.sol\":2501:2707  function approve(address spender, uint256 amount) public returns (bool) {... */\n      swap3\n      swap2\n      pop\n      pop\n      jump\t// out\n        /* \"solana.sol\":347:373  uint256 public totalSupply */\n    tag_54:\n      sload(0x03)\n      dup2\n      jump\t// out\n        /* \"solana.sol\":2856:3161  function transferFrom(address sender, address recipient, uint256 amount) public returns (bool) {... */\n    tag_60:\n        /* \"solana.sol\":2945:2949  bool */\n      0x00\n        /* \"solana.sol\":3004:3010  amount */\n      dup2\n        /* \"solana.sol\":2970:2980  allowances */\n      0x08\n        /* \"solana.sol\":2970:2988  allowances[sender] */\n      0x00\n        /* \"solana.sol\":2981:2987  sender */\n      dup7\n        /* \"solana.sol\":2970:2988  allowances[sender] */\n      0xffffffffffffffffffffffffffffffffffffffff\n      and\n      0xffffffffffffffffffffffffffffffffffffffff\n      and\n      dup2\n      mstore\n      0x20\n      add\n      swap1\n      dup2\n      mstore\n      0x20\n      add\n      0x00\n      keccak256\n        /* \"solana.sol\":2970:3000  allowances[sender][msg.sender] */\n      0x00\n        /* \"solana.sol\":2989:2999  msg.sender */\n      caller\n        /* \"solana.sol\":2970:3000  allowances[sender][msg.sender] */\n      0xffffffffffffffffffffffffffffffffffffffff\n      and\n      0xffffffffffffffffffffffffffffffffffffffff\n      and\n      dup2\n      mstore\n      0x20\n      add\n      swap1\n      dup2\n      mstore\n      0x20\n      add\n      0x00\n      keccak256\n      sload\n        /* \"solana.sol\":2970:3010  allowances[sender][msg.sender] >= amount */\n      lt\n      iszero\n        /* \"solana.sol\":2962:3033  require(allowances[sender][msg.sender] >= amount, \"Allowance exceeded\") */\n      tag_154\n      jumpi\n      mload(0x40)\n      0x08c379a000000000000000000000000000000000000000000000000000000000\n      dup2\n      mstore\n      0x04\n      add\n      tag_155\n      swap1\n      tag_156\n      jump\t// in\n    tag_155:\n      mload(0x40)\n      dup1\n      swap2\n      sub\n      swap1\n      revert\n    tag_154:\n        /* \"solana.sol\":3078:3084  amount */\n      dup2\n        /* \"solana.sol\":3044:3054  allowances */\n      0x08\n        /* \"solana.sol\":3044:3062  allowances[sender] */\n      0x00\n        /* \"solana.sol\":3055:3061  sender */\n      dup7\n        /* \"solana.sol\":3044:3062  allowances[sender] */\n      0xffffffffffffffffffffffffffffffffffffffff\n      and\n      0xffffffffffffffffffffffffffffffffffffffff\n      and\n      dup2\n      mstore\n      0x20\n      add\n      swap1\n      dup2\n      mstore\n      0x20\n      add\n      0x00\n      keccak256\n        /* \"solana.sol\":3044:3074  allowances[sender][msg.sender] */\n      0x00\n        /* \"solana.sol\":3063:3073  msg.sender */\n      caller\n        /* \"solana.sol\":3044:3074  allowances[sender][msg.sender] */\n      0xffffffffffffffffffffffffffffffffffffffff\n      and\n      0xffffffffffffffffffffffffffffffffffffffff\n      and\n      dup2\n      mstore\n      0x20\n      add\n      swap1\n      dup2\n      mstore\n      0x20\n      add\n      0x00\n      keccak256\n      0x00\n        /* \"solana.sol\":3044:3084  allowances[sender][msg.sender] -= amount */\n      dup3\n      dup3\n      sload\n      tag_157\n      swap2\n      swap1\n      tag_158\n      jump\t// in\n    tag_157:\n      swap3\n      pop\n      pop\n      dup2\n      swap1\n      sstore\n      pop\n        /* \"solana.sol\":3095:3131  _transfer(sender, recipient, amount) */\n      tag_159\n        /* \"solana.sol\":3105:3111  sender */\n      dup5\n        /* \"solana.sol\":3113:3122  recipient */\n      dup5\n        /* \"solana.sol\":3124:3130  amount */\n      dup5\n        /* \"solana.sol\":3095:3104  _transfer */\n      tag_160\n        /* \"solana.sol\":3095:3131  _transfer(sender, recipient, amount) */\n      jump\t// in\n    tag_159:\n        /* \"solana.sol\":3149:3153  true */\n      0x01\n        /* \"solana.sol\":3142:3153  return true */\n      swap1\n      pop\n        /* \"solana.sol\":2856:3161  function transferFrom(address sender, address recipient, uint256 amount) public returns (bool) {... */\n      swap4\n      swap3\n      pop\n      pop\n      pop\n      jump\t// out\n        /* \"solana.sol\":1023:1066  mapping(address => uint256) public balances */\n    tag_65:\n      mstore(0x20, 0x07)\n      dup1\n      0x00\n      mstore\n      keccak256(0x00, 0x40)\n      0x00\n      swap2\n      pop\n      swap1\n      pop\n      sload\n      dup2\n      jump\t// out\n        /* \"solana.sol\":315:340  uint8 public decimals = 6 */\n    tag_68:\n      0x02\n      0x00\n      swap1\n      sload\n      swap1\n      0x0100\n      exp\n      swap1\n      div\n      0xff\n      and\n      dup2\n      jump\t// out\n        /* \"solana.sol\":4810:5141  function claimRewards() public {... */\n    tag_72:\n        /* \"solana.sol\":4852:4866  uint256 reward */\n      0x00\n        /* \"solana.sol\":4869:4896  calculateReward(msg.sender) */\n      tag_162\n        /* \"solana.sol\":4885:4895  msg.sender */\n      caller\n        /* \"solana.sol\":4869:4884  calculateReward */\n      tag_129\n        /* \"solana.sol\":4869:4896  calculateReward(msg.sender) */\n      jump\t// in\n    tag_162:\n        /* \"solana.sol\":4852:4896  uint256 reward = calculateReward(msg.sender) */\n      swap1\n      pop\n        /* \"solana.sol\":4924:4925  0 */\n      0x00\n        /* \"solana.sol\":4915:4921  reward */\n      dup2\n        /* \"solana.sol\":4915:4925  reward > 0 */\n      gt\n        /* \"solana.sol\":4907:4950  require(reward > 0, \"No rewards available\") */\n      tag_163\n      jumpi\n      mload(0x40)\n      0x08c379a000000000000000000000000000000000000000000000000000000000\n      dup2\n      mstore\n      0x04\n      add\n      tag_164\n      swap1\n      tag_165\n      jump\t// in\n    tag_164:\n      mload(0x40)\n      dup1\n      swap2\n      sub\n      swap1\n      revert\n    tag_163:\n        /* \"solana.sol\":4987:4993  reward */\n      dup1\n        /* \"solana.sol\":4963:4971  balances */\n      0x07\n        /* \"solana.sol\":4963:4983  balances[msg.sender] */\n      0x00\n        /* \"solana.sol\":4972:4982  msg.sender */\n      caller\n        /* \"solana.sol\":4963:4983  balances[msg.sender] */\n      0xffffffffffffffffffffffffffffffffffffffff\n      and\n      0xffffffffffffffffffffffffffffffffffffffff\n      and\n      dup2\n      mstore\n      0x20\n      add\n      swap1\n      dup2\n      mstore\n      0x20\n      add\n      0x00\n      keccak256\n      0x00\n        /* \"solana.sol\":4963:4993  balances[msg.sender] += reward */\n      dup3\n      dup3\n      sload\n      tag_166\n      swap2\n      swap1\n      tag_167\n      jump\t// in\n    tag_166:\n      swap3\n      pop\n      pop\n      dup2\n      swap1\n      sstore\n      pop\n        /* \"solana.sol\":5019:5025  reward */\n      dup1\n        /* \"solana.sol\":5004:5015  totalSupply */\n      0x03\n      0x00\n        /* \"solana.sol\":5004:5025  totalSupply += reward */\n      dup3\n      dup3\n      sload\n      tag_168\n      swap2\n      swap1\n      tag_167\n      jump\t// in\n    tag_168:\n      swap3\n      pop\n      pop\n      dup2\n      swap1\n      sstore\n      pop\n        /* \"solana.sol\":5066:5081  block.timestamp */\n      timestamp\n        /* \"solana.sol\":5036:5051  lastClaimedTime */\n      0x0a\n        /* \"solana.sol\":5036:5063  lastClaimedTime[msg.sender] */\n      0x00\n        /* \"solana.sol\":5052:5062  msg.sender */\n      caller\n        /* \"solana.sol\":5036:5063  lastClaimedTime[msg.sender] */\n      0xffffffffffffffffffffffffffffffffffffffff\n      and\n      0xffffffffffffffffffffffffffffffffffffffff\n      and\n      dup2\n      mstore\n      0x20\n      add\n      swap1\n      dup2\n      mstore\n      0x20\n      add\n      0x00\n      keccak256\n        /* \"solana.sol\":5036:5081  lastClaimedTime[msg.sender] = block.timestamp */\n      dup2\n      swap1\n      sstore\n      pop\n        /* \"solana.sol\":5114:5124  msg.sender */\n      caller\n        /* \"solana.sol\":5099:5133  RewardsClaimed(msg.sender, reward) */\n      0xffffffffffffffffffffffffffffffffffffffff\n      and\n      0xfc30cddea38e2bf4d6ea7d3f9ed3b6ad7f176419f4963bd81318067a4aee73fe\n        /* \"solana.sol\":5126:5132  reward */\n      dup3\n        /* \"solana.sol\":5099:5133  RewardsClaimed(msg.sender, reward) */\n      mload(0x40)\n      tag_169\n      swap2\n      swap1\n      tag_56\n      jump\t// in\n    tag_169:\n      mload(0x40)\n      dup1\n      swap2\n      sub\n      swap1\n      log2\n        /* \"solana.sol\":4841:5141  {... */\n      pop\n        /* \"solana.sol\":4810:5141  function claimRewards() public {... */\n      jump\t// out\n        /* \"solana.sol\":602:639  uint256 public constant BURN_FEE = 35 */\n    tag_74:\n        /* \"solana.sol\":637:639  35 */\n      0x23\n        /* \"solana.sol\":602:639  uint256 public constant BURN_FEE = 35 */\n      dup2\n      jump\t// out\n        /* \"solana.sol\":1073:1138  mapping(address => mapping(address => uint256)) public allowances */\n    tag_79:\n      mstore(0x20, 0x08)\n      dup2\n      0x00\n      mstore\n      mstore(0x20, keccak256(0x00, 0x40))\n      dup1\n      0x00\n      mstore\n      keccak256(0x00, 0x40)\n      0x00\n      swap2\n      pop\n      swap2\n      pop\n      pop\n      sload\n      dup2\n      jump\t// out\n        /* \"solana.sol\":903:948  uint256 public constant REWARD_ONE_YEAR = 425 */\n    tag_82:\n        /* \"solana.sol\":945:948  425 */\n      0x01a9\n        /* \"solana.sol\":903:948  uint256 public constant REWARD_ONE_YEAR = 425 */\n      dup2\n      jump\t// out\n        /* \"solana.sol\":543:586  uint256 public constant AUTHORITY_FEE = 215 */\n    tag_85:\n        /* \"solana.sol\":583:586  215 */\n      0xd7\n        /* \"solana.sol\":543:586  uint256 public constant AUTHORITY_FEE = 215 */\n      dup2\n      jump\t// out\n        /* \"solana.sol\":491:527  uint256 public constant LP_FEE = 200 */\n    tag_88:\n        /* \"solana.sol\":524:527  200 */\n      0xc8\n        /* \"solana.sol\":491:527  uint256 public constant LP_FEE = 200 */\n      dup2\n      jump\t// out\n        /* \"solana.sol\":711:759  uint256 public constant REWARD_FIRST_MONTH = 115 */\n    tag_91:\n        /* \"solana.sol\":756:759  115 */\n      0x73\n        /* \"solana.sol\":711:759  uint256 public constant REWARD_FIRST_MONTH = 115 */\n      dup2\n      jump\t// out\n        /* \"solana.sol\":5551:5839  function unstakeTokens(uint256 amount) public {... */\n    tag_96:\n        /* \"solana.sol\":5625:5626  0 */\n      0x00\n        /* \"solana.sol\":5616:5622  amount */\n      dup2\n        /* \"solana.sol\":5616:5626  amount > 0 */\n      gt\n        /* \"solana.sol\":5608:5654  require(amount > 0, \"Cannot unstake 0 tokens\") */\n      tag_171\n      jumpi\n      mload(0x40)\n      0x08c379a000000000000000000000000000000000000000000000000000000000\n      dup2\n      mstore\n      0x04\n      add\n      tag_172\n      swap1\n      tag_173\n      jump\t// in\n    tag_172:\n      mload(0x40)\n      dup1\n      swap2\n      sub\n      swap1\n      revert\n    tag_171:\n        /* \"solana.sol\":5704:5710  amount */\n      dup1\n        /* \"solana.sol\":5673:5688  stakingBalances */\n      0x09\n        /* \"solana.sol\":5673:5700  stakingBalances[msg.sender] */\n      0x00\n        /* \"solana.sol\":5689:5699  msg.sender */\n      caller\n        /* \"solana.sol\":5673:5700  stakingBalances[msg.sender] */\n      0xffffffffffffffffffffffffffffffffffffffff\n      and\n      0xffffffffffffffffffffffffffffffffffffffff\n      and\n      dup2\n      mstore\n      0x20\n      add\n      swap1\n      dup2\n      mstore\n      0x20\n      add\n      0x00\n      keccak256\n      sload\n        /* \"solana.sol\":5673:5710  stakingBalances[msg.sender] >= amount */\n      lt\n      iszero\n        /* \"solana.sol\":5665:5740  require(stakingBalances[msg.sender] >= amount, \"Not enough staked balance\") */\n      tag_174\n      jumpi\n      mload(0x40)\n      0x08c379a000000000000000000000000000000000000000000000000000000000\n      dup2\n      mstore\n      0x04\n      add\n      tag_175\n      swap1\n      tag_176\n      jump\t// in\n    tag_175:\n      mload(0x40)\n      dup1\n      swap2\n      sub\n      swap1\n      revert\n    tag_174:\n        /* \"solana.sol\":5784:5790  amount */\n      dup1\n        /* \"solana.sol\":5753:5768  stakingBalances */\n      0x09\n        /* \"solana.sol\":5753:5780  stakingBalances[msg.sender] */\n      0x00\n        /* \"solana.sol\":5769:5779  msg.sender */\n      caller\n        /* \"solana.sol\":5753:5780  stakingBalances[msg.sender] */\n      0xffffffffffffffffffffffffffffffffffffffff\n      and\n      0xffffffffffffffffffffffffffffffffffffffff\n      and\n      dup2\n      mstore\n      0x20\n      add\n      swap1\n      dup2\n      mstore\n      0x20\n      add\n      0x00\n      keccak256\n      0x00\n        /* \"solana.sol\":5753:5790  stakingBalances[msg.sender] -= amount */\n      dup3\n      dup3\n      sload\n      tag_177\n      swap2\n      swap1\n      tag_158\n      jump\t// in\n    tag_177:\n      swap3\n      pop\n      pop\n      dup2\n      swap1\n      sstore\n      pop\n        /* \"solana.sol\":5825:5831  amount */\n      dup1\n        /* \"solana.sol\":5801:5809  balances */\n      0x07\n        /* \"solana.sol\":5801:5821  balances[msg.sender] */\n      0x00\n        /* \"solana.sol\":5810:5820  msg.sender */\n      caller\n        /* \"solana.sol\":5801:5821  balances[msg.sender] */\n      0xffffffffffffffffffffffffffffffffffffffff\n      and\n      0xffffffffffffffffffffffffffffffffffffffff\n      and\n      dup2\n      mstore\n      0x20\n      add\n      swap1\n      dup2\n      mstore\n      0x20\n      add\n      0x00\n      keccak256\n      0x00\n        /* \"solana.sol\":5801:5831  balances[msg.sender] += amount */\n      dup3\n      dup3\n      sload\n      tag_178\n      swap2\n      swap1\n      tag_167\n      jump\t// in\n    tag_178:\n      swap3\n      pop\n      pop\n      dup2\n      swap1\n      sstore\n      pop\n        /* \"solana.sol\":5551:5839  function unstakeTokens(uint256 amount) public {... */\n      pop\n      jump\t// out\n        /* \"solana.sol\":1145:1195  mapping(address => uint256) public stakingBalances */\n    tag_99:\n      mstore(0x20, 0x09)\n      dup1\n      0x00\n      mstore\n      keccak256(0x00, 0x40)\n      0x00\n      swap2\n      pop\n      swap1\n      pop\n      sload\n      dup2\n      jump\t// out\n        /* \"solana.sol\":417:445  address public liquidityPool */\n    tag_102:\n      0x05\n      0x00\n      swap1\n      sload\n      swap1\n      0x0100\n      exp\n      swap1\n      div\n      0xffffffffffffffffffffffffffffffffffffffff\n      and\n      dup2\n      jump\t// out\n        /* \"solana.sol\":2220:2329  function balanceOf(address account) public view returns (uint256) {... */\n    tag_106:\n        /* \"solana.sol\":2277:2284  uint256 */\n      0x00\n        /* \"solana.sol\":2304:2312  balances */\n      0x07\n        /* \"solana.sol\":2304:2321  balances[account] */\n      0x00\n        /* \"solana.sol\":2313:2320  account */\n      dup4\n        /* \"solana.sol\":2304:2321  balances[account] */\n      0xffffffffffffffffffffffffffffffffffffffff\n      and\n      0xffffffffffffffffffffffffffffffffffffffff\n      and\n      dup2\n      mstore\n      0x20\n      add\n      swap1\n      dup2\n      mstore\n      0x20\n      add\n      0x00\n      keccak256\n      sload\n        /* \"solana.sol\":2297:2321  return balances[account] */\n      swap1\n      pop\n        /* \"solana.sol\":2220:2329  function balanceOf(address account) public view returns (uint256) {... */\n      swap2\n      swap1\n      pop\n      jump\t// out\n        /* \"solana.sol\":5149:5543  function stakeTokens(uint256 amount) public {... */\n    tag_110:\n        /* \"solana.sol\":5221:5222  0 */\n      0x00\n        /* \"solana.sol\":5212:5218  amount */\n      dup2\n        /* \"solana.sol\":5212:5222  amount > 0 */\n      gt\n        /* \"solana.sol\":5204:5248  require(amount > 0, \"Cannot stake 0 tokens\") */\n      tag_181\n      jumpi\n      mload(0x40)\n      0x08c379a000000000000000000000000000000000000000000000000000000000\n      dup2\n      mstore\n      0x04\n      add\n      tag_182\n      swap1\n      tag_183\n      jump\t// in\n    tag_182:\n      mload(0x40)\n      dup1\n      swap2\n      sub\n      swap1\n      revert\n    tag_181:\n        /* \"solana.sol\":5291:5297  amount */\n      dup1\n        /* \"solana.sol\":5267:5275  balances */\n      0x07\n        /* \"solana.sol\":5267:5287  balances[msg.sender] */\n      0x00\n        /* \"solana.sol\":5276:5286  msg.sender */\n      caller\n        /* \"solana.sol\":5267:5287  balances[msg.sender] */\n      0xffffffffffffffffffffffffffffffffffffffff\n      and\n      0xffffffffffffffffffffffffffffffffffffffff\n      and\n      dup2\n      mstore\n      0x20\n      add\n      swap1\n      dup2\n      mstore\n      0x20\n      add\n      0x00\n      keccak256\n      sload\n        /* \"solana.sol\":5267:5297  balances[msg.sender] >= amount */\n      lt\n      iszero\n        /* \"solana.sol\":5259:5322  require(balances[msg.sender] >= amount, \"Insufficient balance\") */\n      tag_184\n      jumpi\n      mload(0x40)\n      0x08c379a000000000000000000000000000000000000000000000000000000000\n      dup2\n      mstore\n      0x04\n      add\n      tag_185\n      swap1\n      tag_186\n      jump\t// in\n    tag_185:\n      mload(0x40)\n      dup1\n      swap2\n      sub\n      swap1\n      revert\n    tag_184:\n        /* \"solana.sol\":5359:5365  amount */\n      dup1\n        /* \"solana.sol\":5335:5343  balances */\n      0x07\n        /* \"solana.sol\":5335:5355  balances[msg.sender] */\n      0x00\n        /* \"solana.sol\":5344:5354  msg.sender */\n      caller\n        /* \"solana.sol\":5335:5355  balances[msg.sender] */\n      0xffffffffffffffffffffffffffffffffffffffff\n      and\n      0xffffffffffffffffffffffffffffffffffffffff\n      and\n      dup2\n      mstore\n      0x20\n      add\n      swap1\n      dup2\n      mstore\n      0x20\n      add\n      0x00\n      keccak256\n      0x00\n        /* \"solana.sol\":5335:5365  balances[msg.sender] -= amount */\n      dup3\n      dup3\n      sload\n      tag_187\n      swap2\n      swap1\n      tag_158\n      jump\t// in\n    tag_187:\n      swap3\n      pop\n      pop\n      dup2\n      swap1\n      sstore\n      pop\n        /* \"solana.sol\":5407:5413  amount */\n      dup1\n        /* \"solana.sol\":5376:5391  stakingBalances */\n      0x09\n        /* \"solana.sol\":5376:5403  stakingBalances[msg.sender] */\n      0x00\n        /* \"solana.sol\":5392:5402  msg.sender */\n      caller\n        /* \"solana.sol\":5376:5403  stakingBalances[msg.sender] */\n      0xffffffffffffffffffffffffffffffffffffffff\n      and\n      0xffffffffffffffffffffffffffffffffffffffff\n      and\n      dup2\n      mstore\n      0x20\n      add\n      swap1\n      dup2\n      mstore\n      0x20\n      add\n      0x00\n      keccak256\n      0x00\n        /* \"solana.sol\":5376:5413  stakingBalances[msg.sender] += amount */\n      dup3\n      dup3\n      sload\n      tag_188\n      swap2\n      swap1\n      tag_167\n      jump\t// in\n    tag_188:\n      swap3\n      pop\n      pop\n      dup2\n      swap1\n      sstore\n      pop\n        /* \"solana.sol\":5461:5462  0 */\n      0x00\n        /* \"solana.sol\":5430:5445  lastClaimedTime */\n      0x0a\n        /* \"solana.sol\":5430:5457  lastClaimedTime[msg.sender] */\n      0x00\n        /* \"solana.sol\":5446:5456  msg.sender */\n      caller\n        /* \"solana.sol\":5430:5457  lastClaimedTime[msg.sender] */\n      0xffffffffffffffffffffffffffffffffffffffff\n      and\n      0xffffffffffffffffffffffffffffffffffffffff\n      and\n      dup2\n      mstore\n      0x20\n      add\n      swap1\n      dup2\n      mstore\n      0x20\n      add\n      0x00\n      keccak256\n      sload\n        /* \"solana.sol\":5430:5462  lastClaimedTime[msg.sender] == 0 */\n      sub\n        /* \"solana.sol\":5426:5536  if (lastClaimedTime[msg.sender] == 0) {... */\n      tag_189\n      jumpi\n        /* \"solana.sol\":5509:5524  block.timestamp */\n      timestamp\n        /* \"solana.sol\":5479:5494  lastClaimedTime */\n      0x0a\n        /* \"solana.sol\":5479:5506  lastClaimedTime[msg.sender] */\n      0x00\n        /* \"solana.sol\":5495:5505  msg.sender */\n      caller\n        /* \"solana.sol\":5479:5506  lastClaimedTime[msg.sender] */\n      0xffffffffffffffffffffffffffffffffffffffff\n      and\n      0xffffffffffffffffffffffffffffffffffffffff\n      and\n      dup2\n      mstore\n      0x20\n      add\n      swap1\n      dup2\n      mstore\n      0x20\n      add\n      0x00\n      keccak256\n        /* \"solana.sol\":5479:5524  lastClaimedTime[msg.sender] = block.timestamp */\n      dup2\n      swap1\n      sstore\n      pop\n        /* \"solana.sol\":5426:5536  if (lastClaimedTime[msg.sender] == 0) {... */\n    tag_189:\n        /* \"solana.sol\":5149:5543  function stakeTokens(uint256 amount) public {... */\n      pop\n      jump\t// out\n        /* \"solana.sol\":964:1014  uint256 public constant REWARD_DENOMINATOR = 10000 */\n    tag_112:\n        /* \"solana.sol\":1009:1014  10000 */\n      0x2710\n        /* \"solana.sol\":964:1014  uint256 public constant REWARD_DENOMINATOR = 10000 */\n      dup2\n      jump\t// out\n        /* \"solana.sol\":839:887  uint256 public constant REWARD_SIXTH_MONTH = 335 */\n    tag_115:\n        /* \"solana.sol\":884:887  335 */\n      0x014f\n        /* \"solana.sol\":839:887  uint256 public constant REWARD_SIXTH_MONTH = 335 */\n      dup2\n      jump\t// out\n        /* \"solana.sol\":278:308  string public symbol = \"GBETY\" */\n    tag_118:\n      0x01\n      dup1\n      sload\n      tag_190\n      swap1\n      tag_146\n      jump\t// in\n    tag_190:\n      dup1\n      0x1f\n      add\n      0x20\n      dup1\n      swap2\n      div\n      mul\n      0x20\n      add\n      mload(0x40)\n      swap1\n      dup2\n      add\n      0x40\n      mstore\n      dup1\n      swap3\n      swap2\n      swap1\n      dup2\n      dup2\n      mstore\n      0x20\n      add\n      dup3\n      dup1\n      sload\n      tag_191\n      swap1\n      tag_146\n      jump\t// in\n    tag_191:\n      dup1\n      iszero\n      tag_192\n      jumpi\n      dup1\n      0x1f\n      lt\n      tag_193\n      jumpi\n      0x0100\n      dup1\n      dup4\n      sload\n      div\n      mul\n      dup4\n      mstore\n      swap2\n      0x20\n      add\n      swap2\n      jump(tag_192)\n    tag_193:\n      dup3\n      add\n      swap2\n      swap1\n      0x00\n      mstore\n      keccak256(0x00, 0x20)\n      swap1\n    tag_194:\n      dup2\n      sload\n      dup2\n      mstore\n      swap1\n      0x01\n      add\n      swap1\n      0x20\n      add\n      dup1\n      dup4\n      gt\n      tag_194\n      jumpi\n      dup3\n      swap1\n      sub\n      0x1f\n      and\n      dup3\n      add\n      swap2\n    tag_192:\n      pop\n      pop\n      pop\n      pop\n      pop\n      dup2\n      jump\t// out\n        /* \"solana.sol\":2337:2493  function transfer(address recipient, uint256 amount) public returns (bool) {... */\n    tag_122:\n        /* \"solana.sol\":2406:2410  bool */\n      0x00\n        /* \"solana.sol\":2423:2463  _transfer(msg.sender, recipient, amount) */\n      tag_196\n        /* \"solana.sol\":2433:2443  msg.sender */\n      caller\n        /* \"solana.sol\":2445:2454  recipient */\n      dup5\n        /* \"solana.sol\":2456:2462  amount */\n      dup5\n        /* \"solana.sol\":2423:2432  _transfer */\n      tag_160\n        /* \"solana.sol\":2423:2463  _transfer(msg.sender, recipient, amount) */\n      jump\t// in\n    tag_196:\n        /* \"solana.sol\":2481:2485  true */\n      0x01\n        /* \"solana.sol\":2474:2485  return true */\n      swap1\n      pop\n        /* \"solana.sol\":2337:2493  function transfer(address recipient, uint256 amount) public returns (bool) {... */\n      swap3\n      swap2\n      pop\n      pop\n      jump\t// out\n        /* \"solana.sol\":655:702  uint256 public constant FEE_DENOMINATOR = 10000 */\n    tag_125:\n        /* \"solana.sol\":697:702  10000 */\n      0x2710\n        /* \"solana.sol\":655:702  uint256 public constant FEE_DENOMINATOR = 10000 */\n      dup2\n      jump\t// out\n        /* \"solana.sol\":4083:4802  function calculateReward(address user) public view returns (uint256) {... */\n    tag_129:\n        /* \"solana.sol\":4143:4150  uint256 */\n      0x00\n        /* \"solana.sol\":4163:4186  uint256 stakingDuration */\n      0x00\n        /* \"solana.sol\":4207:4222  lastClaimedTime */\n      0x0a\n        /* \"solana.sol\":4207:4228  lastClaimedTime[user] */\n      0x00\n        /* \"solana.sol\":4223:4227  user */\n      dup5\n        /* \"solana.sol\":4207:4228  lastClaimedTime[user] */\n      0xffffffffffffffffffffffffffffffffffffffff\n      and\n      0xffffffffffffffffffffffffffffffffffffffff\n      and\n      dup2\n      mstore\n      0x20\n      add\n      swap1\n      dup2\n      mstore\n      0x20\n      add\n      0x00\n      keccak256\n      sload\n        /* \"solana.sol\":4189:4204  block.timestamp */\n      timestamp\n        /* \"solana.sol\":4189:4228  block.timestamp - lastClaimedTime[user] */\n      tag_198\n      swap2\n      swap1\n      tag_158\n      jump\t// in\n    tag_198:\n        /* \"solana.sol\":4163:4228  uint256 stakingDuration = block.timestamp - lastClaimedTime[user] */\n      swap1\n      pop\n        /* \"solana.sol\":4239:4254  uint256 balance */\n      0x00\n        /* \"solana.sol\":4257:4272  stakingBalances */\n      0x09\n        /* \"solana.sol\":4257:4278  stakingBalances[user] */\n      0x00\n        /* \"solana.sol\":4273:4277  user */\n      dup6\n        /* \"solana.sol\":4257:4278  stakingBalances[user] */\n      0xffffffffffffffffffffffffffffffffffffffff\n      and\n      0xffffffffffffffffffffffffffffffffffffffff\n      and\n      dup2\n      mstore\n      0x20\n      add\n      swap1\n      dup2\n      mstore\n      0x20\n      add\n      0x00\n      keccak256\n      sload\n        /* \"solana.sol\":4239:4278  uint256 balance = stakingBalances[user] */\n      swap1\n      pop\n        /* \"solana.sol\":4314:4322  365 days */\n      0x01e13380\n        /* \"solana.sol\":4295:4310  stakingDuration */\n      dup3\n        /* \"solana.sol\":4295:4322  stakingDuration >= 365 days */\n      lt\n        /* \"solana.sol\":4291:4776  if (stakingDuration >= 365 days) {... */\n      tag_199\n      jumpi\n        /* \"solana.sol\":1009:1014  10000 */\n      0x2710\n        /* \"solana.sol\":945:948  425 */\n      0x01a9\n        /* \"solana.sol\":4347:4354  balance */\n      dup3\n        /* \"solana.sol\":4347:4372  balance * REWARD_ONE_YEAR */\n      tag_200\n      swap2\n      swap1\n      tag_201\n      jump\t// in\n    tag_200:\n        /* \"solana.sol\":4346:4394  (balance * REWARD_ONE_YEAR) / REWARD_DENOMINATOR */\n      tag_202\n      swap2\n      swap1\n      tag_203\n      jump\t// in\n    tag_202:\n        /* \"solana.sol\":4339:4394  return (balance * REWARD_ONE_YEAR) / REWARD_DENOMINATOR */\n      swap3\n      pop\n      pop\n      pop\n      jump(tag_197)\n        /* \"solana.sol\":4291:4776  if (stakingDuration >= 365 days) {... */\n    tag_199:\n        /* \"solana.sol\":4435:4443  180 days */\n      0xed4e00\n        /* \"solana.sol\":4416:4431  stakingDuration */\n      dup3\n        /* \"solana.sol\":4416:4443  stakingDuration >= 180 days */\n      lt\n        /* \"solana.sol\":4412:4776  if (stakingDuration >= 180 days) {... */\n      tag_205\n      jumpi\n        /* \"solana.sol\":1009:1014  10000 */\n      0x2710\n        /* \"solana.sol\":884:887  335 */\n      0x014f\n        /* \"solana.sol\":4468:4475  balance */\n      dup3\n        /* \"solana.sol\":4468:4496  balance * REWARD_SIXTH_MONTH */\n      tag_206\n      swap2\n      swap1\n      tag_201\n      jump\t// in\n    tag_206:\n        /* \"solana.sol\":4467:4518  (balance * REWARD_SIXTH_MONTH) / REWARD_DENOMINATOR */\n      tag_207\n      swap2\n      swap1\n      tag_203\n      jump\t// in\n    tag_207:\n        /* \"solana.sol\":4460:4518  return (balance * REWARD_SIXTH_MONTH) / REWARD_DENOMINATOR */\n      swap3\n      pop\n      pop\n      pop\n      jump(tag_197)\n        /* \"solana.sol\":4412:4776  if (stakingDuration >= 180 days) {... */\n    tag_205:\n        /* \"solana.sol\":4559:4566  90 days */\n      0x76a700\n        /* \"solana.sol\":4540:4555  stakingDuration */\n      dup3\n        /* \"solana.sol\":4540:4566  stakingDuration >= 90 days */\n      lt\n        /* \"solana.sol\":4536:4776  if (stakingDuration >= 90 days) {... */\n      tag_209\n      jumpi\n        /* \"solana.sol\":1009:1014  10000 */\n      0x2710\n        /* \"solana.sol\":820:823  225 */\n      0xe1\n        /* \"solana.sol\":4591:4598  balance */\n      dup3\n        /* \"solana.sol\":4591:4619  balance * REWARD_THIRD_MONTH */\n      tag_210\n      swap2\n      swap1\n      tag_201\n      jump\t// in\n    tag_210:\n        /* \"solana.sol\":4590:4641  (balance * REWARD_THIRD_MONTH) / REWARD_DENOMINATOR */\n      tag_211\n      swap2\n      swap1\n      tag_203\n      jump\t// in\n    tag_211:\n        /* \"solana.sol\":4583:4641  return (balance * REWARD_THIRD_MONTH) / REWARD_DENOMINATOR */\n      swap3\n      pop\n      pop\n      pop\n      jump(tag_197)\n        /* \"solana.sol\":4536:4776  if (stakingDuration >= 90 days) {... */\n    tag_209:\n        /* \"solana.sol\":4682:4689  30 days */\n      0x278d00\n        /* \"solana.sol\":4663:4678  stakingDuration */\n      dup3\n        /* \"solana.sol\":4663:4689  stakingDuration >= 30 days */\n      lt\n        /* \"solana.sol\":4659:4776  if (stakingDuration >= 30 days) {... */\n      tag_213\n      jumpi\n        /* \"solana.sol\":1009:1014  10000 */\n      0x2710\n        /* \"solana.sol\":756:759  115 */\n      0x73\n        /* \"solana.sol\":4714:4721  balance */\n      dup3\n        /* \"solana.sol\":4714:4742  balance * REWARD_FIRST_MONTH */\n      tag_214\n      swap2\n      swap1\n      tag_201\n      jump\t// in\n    tag_214:\n        /* \"solana.sol\":4713:4764  (balance * REWARD_FIRST_MONTH) / REWARD_DENOMINATOR */\n      tag_215\n      swap2\n      swap1\n      tag_203\n      jump\t// in\n    tag_215:\n        /* \"solana.sol\":4706:4764  return (balance * REWARD_FIRST_MONTH) / REWARD_DENOMINATOR */\n      swap3\n      pop\n      pop\n      pop\n      jump(tag_197)\n        /* \"solana.sol\":4659:4776  if (stakingDuration >= 30 days) {... */\n    tag_213:\n        /* \"solana.sol\":4793:4794  0 */\n      0x00\n        /* \"solana.sol\":4786:4794  return 0 */\n      swap3\n      pop\n      pop\n      pop\n        /* \"solana.sol\":4083:4802  function calculateReward(address user) public view returns (uint256) {... */\n    tag_197:\n      swap2\n      swap1\n      pop\n      jump\t// out\n        /* \"solana.sol\":2715:2848  function allowance(address owner, address spender) public view returns (uint256) {... */\n    tag_133:\n        /* \"solana.sol\":2787:2794  uint256 */\n      0x00\n        /* \"solana.sol\":2814:2824  allowances */\n      0x08\n        /* \"solana.sol\":2814:2831  allowances[owner] */\n      0x00\n        /* \"solana.sol\":2825:2830  owner */\n      dup5\n        /* \"solana.sol\":2814:2831  allowances[owner] */\n      0xffffffffffffffffffffffffffffffffffffffff\n      and\n      0xffffffffffffffffffffffffffffffffffffffff\n      and\n      dup2\n      mstore\n      0x20\n      add\n      swap1\n      dup2\n      mstore\n      0x20\n      add\n      0x00\n      keccak256\n        /* \"solana.sol\":2814:2840  allowances[owner][spender] */\n      0x00\n        /* \"solana.sol\":2832:2839  spender */\n      dup4\n        /* \"solana.sol\":2814:2840  allowances[owner][spender] */\n      0xffffffffffffffffffffffffffffffffffffffff\n      and\n      0xffffffffffffffffffffffffffffffffffffffff\n      and\n      dup2\n      mstore\n      0x20\n      add\n      swap1\n      dup2\n      mstore\n      0x20\n      add\n      0x00\n      keccak256\n      sload\n        /* \"solana.sol\":2807:2840  return allowances[owner][spender] */\n      swap1\n      pop\n        /* \"solana.sol\":2715:2848  function allowance(address owner, address spender) public view returns (uint256) {... */\n      swap3\n      swap2\n      pop\n      pop\n      jump\t// out\n        /* \"solana.sol\":1202:1252  mapping(address => uint256) public lastClaimedTime */\n    tag_137:\n      mstore(0x20, 0x0a)\n      dup1\n      0x00\n      mstore\n      keccak256(0x00, 0x40)\n      0x00\n      swap2\n      pop\n      swap1\n      pop\n      sload\n      dup2\n      jump\t// out\n        /* \"solana.sol\":382:410  address public Contractowner */\n    tag_140:\n      0x04\n      0x00\n      swap1\n      sload\n      swap1\n      0x0100\n      exp\n      swap1\n      div\n      0xffffffffffffffffffffffffffffffffffffffff\n      and\n      dup2\n      jump\t// out\n        /* \"solana.sol\":775:823  uint256 public constant REWARD_THIRD_MONTH = 225 */\n    tag_143:\n        /* \"solana.sol\":820:823  225 */\n      0xe1\n        /* \"solana.sol\":775:823  uint256 public constant REWARD_THIRD_MONTH = 225 */\n      dup2\n      jump\t// out\n        /* \"solana.sol\":3169:4075  function _transfer(address sender, address recipient, uint256 amount) internal {... */\n    tag_160:\n        /* \"solana.sol\":3287:3293  amount */\n      dup1\n        /* \"solana.sol\":3267:3275  balances */\n      0x07\n        /* \"solana.sol\":3267:3283  balances[sender] */\n      0x00\n        /* \"solana.sol\":3276:3282  sender */\n      dup6\n        /* \"solana.sol\":3267:3283  balances[sender] */\n      0xffffffffffffffffffffffffffffffffffffffff\n      and\n      0xffffffffffffffffffffffffffffffffffffffff\n      and\n      dup2\n      mstore\n      0x20\n      add\n      swap1\n      dup2\n      mstore\n      0x20\n      add\n      0x00\n      keccak256\n      sload\n        /* \"solana.sol\":3267:3293  balances[sender] >= amount */\n      lt\n      iszero\n        /* \"solana.sol\":3259:3318  require(balances[sender] >= amount, \"Insufficient balance\") */\n      tag_218\n      jumpi\n      mload(0x40)\n      0x08c379a000000000000000000000000000000000000000000000000000000000\n      dup2\n      mstore\n      0x04\n      add\n      tag_219\n      swap1\n      tag_186\n      jump\t// in\n    tag_219:\n      mload(0x40)\n      dup1\n      swap2\n      sub\n      swap1\n      revert\n    tag_218:\n        /* \"solana.sol\":3331:3344  uint256 lpFee */\n      0x00\n        /* \"solana.sol\":697:702  10000 */\n      0x2710\n        /* \"solana.sol\":524:527  200 */\n      0xc8\n        /* \"solana.sol\":3348:3354  amount */\n      dup4\n        /* \"solana.sol\":3348:3363  amount * LP_FEE */\n      tag_220\n      swap2\n      swap1\n      tag_201\n      jump\t// in\n    tag_220:\n        /* \"solana.sol\":3347:3382  (amount * LP_FEE) / FEE_DENOMINATOR */\n      tag_221\n      swap2\n      swap1\n      tag_203\n      jump\t// in\n    tag_221:\n        /* \"solana.sol\":3331:3382  uint256 lpFee = (amount * LP_FEE) / FEE_DENOMINATOR */\n      swap1\n      pop\n        /* \"solana.sol\":3393:3413  uint256 authorityFee */\n      0x00\n        /* \"solana.sol\":697:702  10000 */\n      0x2710\n        /* \"solana.sol\":583:586  215 */\n      0xd7\n        /* \"solana.sol\":3417:3423  amount */\n      dup5\n        /* \"solana.sol\":3417:3439  amount * AUTHORITY_FEE */\n      tag_222\n      swap2\n      swap1\n      tag_201\n      jump\t// in\n    tag_222:\n        /* \"solana.sol\":3416:3458  (amount * AUTHORITY_FEE) / FEE_DENOMINATOR */\n      tag_223\n      swap2\n      swap1\n      tag_203\n      jump\t// in\n    tag_223:\n        /* \"solana.sol\":3393:3458  uint256 authorityFee = (amount * AUTHORITY_FEE) / FEE_DENOMINATOR */\n      swap1\n      pop\n        /* \"solana.sol\":3469:3487  uint256 burnAmount */\n      0x00\n        /* \"solana.sol\":697:702  10000 */\n      0x2710\n        /* \"solana.sol\":637:639  35 */\n      0x23\n        /* \"solana.sol\":3491:3497  amount */\n      dup6\n        /* \"solana.sol\":3491:3508  amount * BURN_FEE */\n      tag_224\n      swap2\n      swap1\n      tag_201\n      jump\t// in\n    tag_224:\n        /* \"solana.sol\":3490:3527  (amount * BURN_FEE) / FEE_DENOMINATOR */\n      tag_225\n      swap2\n      swap1\n      tag_203\n      jump\t// in\n    tag_225:\n        /* \"solana.sol\":3469:3527  uint256 burnAmount = (amount * BURN_FEE) / FEE_DENOMINATOR */\n      swap1\n      pop\n        /* \"solana.sol\":3540:3562  uint256 transferAmount */\n      0x00\n        /* \"solana.sol\":3597:3607  burnAmount */\n      dup2\n        /* \"solana.sol\":3582:3594  authorityFee */\n      dup4\n        /* \"solana.sol\":3574:3579  lpFee */\n      dup6\n        /* \"solana.sol\":3565:3571  amount */\n      dup8\n        /* \"solana.sol\":3565:3579  amount - lpFee */\n      tag_226\n      swap2\n      swap1\n      tag_158\n      jump\t// in\n    tag_226:\n        /* \"solana.sol\":3565:3594  amount - lpFee - authorityFee */\n      tag_227\n      swap2\n      swap1\n      tag_158\n      jump\t// in\n    tag_227:\n        /* \"solana.sol\":3565:3607  amount - lpFee - authorityFee - burnAmount */\n      tag_228\n      swap2\n      swap1\n      tag_158\n      jump\t// in\n    tag_228:\n        /* \"solana.sol\":3540:3607  uint256 transferAmount = amount - lpFee - authorityFee - burnAmount */\n      swap1\n      pop\n        /* \"solana.sol\":3640:3646  amount */\n      dup5\n        /* \"solana.sol\":3620:3628  balances */\n      0x07\n        /* \"solana.sol\":3620:3636  balances[sender] */\n      0x00\n        /* \"solana.sol\":3629:3635  sender */\n      dup10\n        /* \"solana.sol\":3620:3636  balances[sender] */\n      0xffffffffffffffffffffffffffffffffffffffff\n      and\n      0xffffffffffffffffffffffffffffffffffffffff\n      and\n      dup2\n      mstore\n      0x20\n      add\n      swap1\n      dup2\n      mstore\n      0x20\n      add\n      0x00\n      keccak256\n      0x00\n        /* \"solana.sol\":3620:3646  balances[sender] -= amount */\n      dup3\n      dup3\n      sload\n      tag_229\n      swap2\n      swap1\n      tag_158\n      jump\t// in\n    tag_229:\n      swap3\n      pop\n      pop\n      dup2\n      swap1\n      sstore\n      pop\n        /* \"solana.sol\":3684:3689  lpFee */\n      dup4\n        /* \"solana.sol\":3657:3665  balances */\n      0x07\n        /* \"solana.sol\":3657:3680  balances[liquidityPool] */\n      0x00\n        /* \"solana.sol\":3666:3679  liquidityPool */\n      0x05\n      0x00\n      swap1\n      sload\n      swap1\n      0x0100\n      exp\n      swap1\n      div\n      0xffffffffffffffffffffffffffffffffffffffff\n      and\n        /* \"solana.sol\":3657:3680  balances[liquidityPool] */\n      0xffffffffffffffffffffffffffffffffffffffff\n      and\n      0xffffffffffffffffffffffffffffffffffffffff\n      and\n      dup2\n      mstore\n      0x20\n      add\n      swap1\n      dup2\n      mstore\n      0x20\n      add\n      0x00\n      keccak256\n      0x00\n        /* \"solana.sol\":3657:3689  balances[liquidityPool] += lpFee */\n      dup3\n      dup3\n      sload\n      tag_230\n      swap2\n      swap1\n      tag_167\n      jump\t// in\n    tag_230:\n      swap3\n      pop\n      pop\n      dup2\n      swap1\n      sstore\n      pop\n        /* \"solana.sol\":3729:3741  authorityFee */\n      dup3\n        /* \"solana.sol\":3700:3708  balances */\n      0x07\n        /* \"solana.sol\":3700:3725  balances[authorityWallet] */\n      0x00\n        /* \"solana.sol\":3709:3724  authorityWallet */\n      0x06\n      0x00\n      swap1\n      sload\n      swap1\n      0x0100\n      exp\n      swap1\n      div\n      0xffffffffffffffffffffffffffffffffffffffff\n      and\n        /* \"solana.sol\":3700:3725  balances[authorityWallet] */\n      0xffffffffffffffffffffffffffffffffffffffff\n      and\n      0xffffffffffffffffffffffffffffffffffffffff\n      and\n      dup2\n      mstore\n      0x20\n      add\n      swap1\n      dup2\n      mstore\n      0x20\n      add\n      0x00\n      keccak256\n      0x00\n        /* \"solana.sol\":3700:3741  balances[authorityWallet] += authorityFee */\n      dup3\n      dup3\n      sload\n      tag_231\n      swap2\n      swap1\n      tag_167\n      jump\t// in\n    tag_231:\n      swap3\n      pop\n      pop\n      dup2\n      swap1\n      sstore\n      pop\n        /* \"solana.sol\":3767:3777  burnAmount */\n      dup2\n        /* \"solana.sol\":3752:3763  totalSupply */\n      0x03\n      0x00\n        /* \"solana.sol\":3752:3777  totalSupply -= burnAmount */\n      dup3\n      dup3\n      sload\n      tag_232\n      swap2\n      swap1\n      tag_158\n      jump\t// in\n    tag_232:\n      swap3\n      pop\n      pop\n      dup2\n      swap1\n      sstore\n      pop\n        /* \"solana.sol\":3811:3825  transferAmount */\n      dup1\n        /* \"solana.sol\":3788:3796  balances */\n      0x07\n        /* \"solana.sol\":3788:3807  balances[recipient] */\n      0x00\n        /* \"solana.sol\":3797:3806  recipient */\n      dup9\n        /* \"solana.sol\":3788:3807  balances[recipient] */\n      0xffffffffffffffffffffffffffffffffffffffff\n      and\n      0xffffffffffffffffffffffffffffffffffffffff\n      and\n      dup2\n      mstore\n      0x20\n      add\n      swap1\n      dup2\n      mstore\n      0x20\n      add\n      0x00\n      keccak256\n      0x00\n        /* \"solana.sol\":3788:3825  balances[recipient] += transferAmount */\n      dup3\n      dup3\n      sload\n      tag_233\n      swap2\n      swap1\n      tag_167\n      jump\t// in\n    tag_233:\n      swap3\n      pop\n      pop\n      dup2\n      swap1\n      sstore\n      pop\n        /* \"solana.sol\":3860:3873  liquidityPool */\n      0x05\n      0x00\n      swap1\n      sload\n      swap1\n      0x0100\n      exp\n      swap1\n      div\n      0xffffffffffffffffffffffffffffffffffffffff\n      and\n        /* \"solana.sol\":3843:3881  Transfer(sender, liquidityPool, lpFee) */\n      0xffffffffffffffffffffffffffffffffffffffff\n      and\n        /* \"solana.sol\":3852:3858  sender */\n      dup8\n        /* \"solana.sol\":3843:3881  Transfer(sender, liquidityPool, lpFee) */\n      0xffffffffffffffffffffffffffffffffffffffff\n      and\n      0xddf252ad1be2c89b69c2b068fc378daa952ba7f163c4a11628f55a4df523b3ef\n        /* \"solana.sol\":3875:3880  lpFee */\n      dup7\n        /* \"solana.sol\":3843:3881  Transfer(sender, liquidityPool, lpFee) */\n      mload(0x40)\n      tag_234\n      swap2\n      swap1\n      tag_56\n      jump\t// in\n    tag_234:\n      mload(0x40)\n      dup1\n      swap2\n      sub\n      swap1\n      log3\n        /* \"solana.sol\":3914:3929  authorityWallet */\n      0x06\n      0x00\n      swap1\n      sload\n      swap1\n      0x0100\n      exp\n      swap1\n      div\n      0xffffffffffffffffffffffffffffffffffffffff\n      and\n        /* \"solana.sol\":3897:3944  Transfer(sender, authorityWallet, authorityFee) */\n      0xffffffffffffffffffffffffffffffffffffffff\n      and\n        /* \"solana.sol\":3906:3912  sender */\n      dup8\n        /* \"solana.sol\":3897:3944  Transfer(sender, authorityWallet, authorityFee) */\n      0xffffffffffffffffffffffffffffffffffffffff\n      and\n      0xddf252ad1be2c89b69c2b068fc378daa952ba7f163c4a11628f55a4df523b3ef\n        /* \"solana.sol\":3931:3943  authorityFee */\n      dup6\n        /* \"solana.sol\":3897:3944  Transfer(sender, authorityWallet, authorityFee) */\n      mload(0x40)\n      tag_235\n      swap2\n      swap1\n      tag_56\n      jump\t// in\n    tag_235:\n      mload(0x40)\n      dup1\n      swap2\n      sub\n      swap1\n      log3\n        /* \"solana.sol\":3977:3986  recipient */\n      dup6\n        /* \"solana.sol\":3960:4003  Transfer(sender, recipient, transferAmount) */\n      0xffffffffffffffffffffffffffffffffffffffff\n      and\n        /* \"solana.sol\":3969:3975  sender */\n      dup8\n        /* \"solana.sol\":3960:4003  Transfer(sender, recipient, transferAmount) */\n      0xffffffffffffffffffffffffffffffffffffffff\n      and\n      0xddf252ad1be2c89b69c2b068fc378daa952ba7f163c4a11628f55a4df523b3ef\n        /* \"solana.sol\":3988:4002  transferAmount */\n      dup4\n        /* \"solana.sol\":3960:4003  Transfer(sender, recipient, transferAmount) */\n      mload(0x40)\n      tag_236\n      swap2\n      swap1\n      tag_56\n      jump\t// in\n    tag_236:\n      mload(0x40)\n      dup1\n      swap2\n      sub\n      swap1\n      log3\n        /* \"solana.sol\":4019:4067  FeesDistributed(lpFee, authorityFee, burnAmount) */\n      0x312c5308f42848705a866c73dec11fd0783c2d64aac6a97e94467062ad3f4058\n        /* \"solana.sol\":4035:4040  lpFee */\n      dup5\n        /* \"solana.sol\":4042:4054  authorityFee */\n      dup5\n        /* \"solana.sol\":4056:4066  burnAmount */\n      dup5\n        /* \"solana.sol\":4019:4067  FeesDistributed(lpFee, authorityFee, burnAmount) */\n      mload(0x40)\n      tag_237\n      swap4\n      swap3\n      swap2\n      swap1\n      tag_238\n      jump\t// in\n    tag_237:\n      mload(0x40)\n      dup1\n      swap2\n      sub\n      swap1\n      log1\n        /* \"solana.sol\":3248:4075  {... */\n      pop\n      pop\n      pop\n      pop\n        /* \"solana.sol\":3169:4075  function _transfer(address sender, address recipient, uint256 amount) internal {... */\n      pop\n      pop\n      pop\n      jump\t// out\n        /* \"#utility.yul\":7:133   */\n    tag_239:\n        /* \"#utility.yul\":44:51   */\n      0x00\n        /* \"#utility.yul\":84:126   */\n      0xffffffffffffffffffffffffffffffffffffffff\n        /* \"#utility.yul\":77:82   */\n      dup3\n        /* \"#utility.yul\":73:127   */\n      and\n        /* \"#utility.yul\":62:127   */\n      swap1\n      pop\n        /* \"#utility.yul\":7:133   */\n      swap2\n      swap1\n      pop\n      jump\t// out\n        /* \"#utility.yul\":139:235   */\n    tag_240:\n        /* \"#utility.yul\":176:183   */\n      0x00\n        /* \"#utility.yul\":205:229   */\n      tag_278\n        /* \"#utility.yul\":223:228   */\n      dup3\n        /* \"#utility.yul\":205:229   */\n      tag_239\n      jump\t// in\n    tag_278:\n        /* \"#utility.yul\":194:229   */\n      swap1\n      pop\n        /* \"#utility.yul\":139:235   */\n      swap2\n      swap1\n      pop\n      jump\t// out\n        /* \"#utility.yul\":241:359   */\n    tag_241:\n        /* \"#utility.yul\":328:352   */\n      tag_280\n        /* \"#utility.yul\":346:351   */\n      dup2\n        /* \"#utility.yul\":328:352   */\n      tag_240\n      jump\t// in\n    tag_280:\n        /* \"#utility.yul\":323:326   */\n      dup3\n        /* \"#utility.yul\":316:353   */\n      mstore\n        /* \"#utility.yul\":241:359   */\n      pop\n      pop\n      jump\t// out\n        /* \"#utility.yul\":365:587   */\n    tag_42:\n        /* \"#utility.yul\":458:462   */\n      0x00\n        /* \"#utility.yul\":496:498   */\n      0x20\n        /* \"#utility.yul\":485:494   */\n      dup3\n        /* \"#utility.yul\":481:499   */\n      add\n        /* \"#utility.yul\":473:499   */\n      swap1\n      pop\n        /* \"#utility.yul\":509:580   */\n      tag_282\n        /* \"#utility.yul\":577:578   */\n      0x00\n        /* \"#utility.yul\":566:575   */\n      dup4\n        /* \"#utility.yul\":562:579   */\n      add\n        /* \"#utility.yul\":553:559   */\n      dup5\n        /* \"#utility.yul\":509:580   */\n      tag_241\n      jump\t// in\n    tag_282:\n        /* \"#utility.yul\":365:587   */\n      swap3\n      swap2\n      pop\n      pop\n      jump\t// out\n        /* \"#utility.yul\":593:692   */\n    tag_242:\n        /* \"#utility.yul\":645:651   */\n      0x00\n        /* \"#utility.yul\":679:684   */\n      dup2\n        /* \"#utility.yul\":673:685   */\n      mload\n        /* \"#utility.yul\":663:685   */\n      swap1\n      pop\n        /* \"#utility.yul\":593:692   */\n      swap2\n      swap1\n      pop\n      jump\t// out\n        /* \"#utility.yul\":698:867   */\n    tag_243:\n        /* \"#utility.yul\":782:793   */\n      0x00\n        /* \"#utility.yul\":816:822   */\n      dup3\n        /* \"#utility.yul\":811:814   */\n      dup3\n        /* \"#utility.yul\":804:823   */\n      mstore\n        /* \"#utility.yul\":856:860   */\n      0x20\n        /* \"#utility.yul\":851:854   */\n      dup3\n        /* \"#utility.yul\":847:861   */\n      add\n        /* \"#utility.yul\":832:861   */\n      swap1\n      pop\n        /* \"#utility.yul\":698:867   */\n      swap3\n      swap2\n      pop\n      pop\n      jump\t// out\n        /* \"#utility.yul\":873:1012   */\n    tag_244:\n        /* \"#utility.yul\":962:968   */\n      dup3\n        /* \"#utility.yul\":957:960   */\n      dup2\n        /* \"#utility.yul\":952:955   */\n      dup4\n        /* \"#utility.yul\":946:969   */\n      mcopy\n        /* \"#utility.yul\":1003:1004   */\n      0x00\n        /* \"#utility.yul\":994:1000   */\n      dup4\n        /* \"#utility.yul\":989:992   */\n      dup4\n        /* \"#utility.yul\":985:1001   */\n      add\n        /* \"#utility.yul\":978:1005   */\n      mstore\n        /* \"#utility.yul\":873:1012   */\n      pop\n      pop\n      pop\n      jump\t// out\n        /* \"#utility.yul\":1018:1120   */\n    tag_245:\n        /* \"#utility.yul\":1059:1065   */\n      0x00\n        /* \"#utility.yul\":1110:1112   */\n      0x1f\n        /* \"#utility.yul\":1106:1113   */\n      not\n        /* \"#utility.yul\":1101:1103   */\n      0x1f\n        /* \"#utility.yul\":1094:1099   */\n      dup4\n        /* \"#utility.yul\":1090:1104   */\n      add\n        /* \"#utility.yul\":1086:1114   */\n      and\n        /* \"#utility.yul\":1076:1114   */\n      swap1\n      pop\n        /* \"#utility.yul\":1018:1120   */\n      swap2\n      swap1\n      pop\n      jump\t// out\n        /* \"#utility.yul\":1126:1503   */\n    tag_246:\n        /* \"#utility.yul\":1214:1217   */\n      0x00\n        /* \"#utility.yul\":1242:1281   */\n      tag_288\n        /* \"#utility.yul\":1275:1280   */\n      dup3\n        /* \"#utility.yul\":1242:1281   */\n      tag_242\n      jump\t// in\n    tag_288:\n        /* \"#utility.yul\":1297:1368   */\n      tag_289\n        /* \"#utility.yul\":1361:1367   */\n      dup2\n        /* \"#utility.yul\":1356:1359   */\n      dup6\n        /* \"#utility.yul\":1297:1368   */\n      tag_243\n      jump\t// in\n    tag_289:\n        /* \"#utility.yul\":1290:1368   */\n      swap4\n      pop\n        /* \"#utility.yul\":1377:1442   */\n      tag_290\n        /* \"#utility.yul\":1435:1441   */\n      dup2\n        /* \"#utility.yul\":1430:1433   */\n      dup6\n        /* \"#utility.yul\":1423:1427   */\n      0x20\n        /* \"#utility.yul\":1416:1421   */\n      dup7\n        /* \"#utility.yul\":1412:1428   */\n      add\n        /* \"#utility.yul\":1377:1442   */\n      tag_244\n      jump\t// in\n    tag_290:\n        /* \"#utility.yul\":1467:1496   */\n      tag_291\n        /* \"#utility.yul\":1489:1495   */\n      dup2\n        /* \"#utility.yul\":1467:1496   */\n      tag_245\n      jump\t// in\n    tag_291:\n        /* \"#utility.yul\":1462:1465   */\n      dup5\n        /* \"#utility.yul\":1458:1497   */\n      add\n        /* \"#utility.yul\":1451:1497   */\n      swap2\n      pop\n        /* \"#utility.yul\":1218:1503   */\n      pop\n        /* \"#utility.yul\":1126:1503   */\n      swap3\n      swap2\n      pop\n      pop\n      jump\t// out\n        /* \"#utility.yul\":1509:1822   */\n    tag_46:\n        /* \"#utility.yul\":1622:1626   */\n      0x00\n        /* \"#utility.yul\":1660:1662   */\n      0x20\n        /* \"#utility.yul\":1649:1658   */\n      dup3\n        /* \"#utility.yul\":1645:1663   */\n      add\n        /* \"#utility.yul\":1637:1663   */\n      swap1\n      pop\n        /* \"#utility.yul\":1709:1718   */\n      dup2\n        /* \"#utility.yul\":1703:1707   */\n      dup2\n        /* \"#utility.yul\":1699:1719   */\n      sub\n        /* \"#utility.yul\":1695:1696   */\n      0x00\n        /* \"#utility.yul\":1684:1693   */\n      dup4\n        /* \"#utility.yul\":1680:1697   */\n      add\n        /* \"#utility.yul\":1673:1720   */\n      mstore\n        /* \"#utility.yul\":1737:1815   */\n      tag_293\n        /* \"#utility.yul\":1810:1814   */\n      dup2\n        /* \"#utility.yul\":1801:1807   */\n      dup5\n        /* \"#utility.yul\":1737:1815   */\n      tag_246\n      jump\t// in\n    tag_293:\n        /* \"#utility.yul\":1729:1815   */\n      swap1\n      pop\n        /* \"#utility.yul\":1509:1822   */\n      swap3\n      swap2\n      pop\n      pop\n      jump\t// out\n        /* \"#utility.yul\":1909:2026   */\n    tag_248:\n        /* \"#utility.yul\":2018:2019   */\n      0x00\n        /* \"#utility.yul\":2015:2016   */\n      0x00\n        /* \"#utility.yul\":2008:2020   */\n      revert\n        /* \"#utility.yul\":2155:2277   */\n    tag_250:\n        /* \"#utility.yul\":2228:2252   */\n      tag_298\n        /* \"#utility.yul\":2246:2251   */\n      dup2\n        /* \"#utility.yul\":2228:2252   */\n      tag_240\n      jump\t// in\n    tag_298:\n        /* \"#utility.yul\":2221:2226   */\n      dup2\n        /* \"#utility.yul\":2218:2253   */\n      eq\n        /* \"#utility.yul\":2208:2271   */\n      tag_299\n      jumpi\n        /* \"#utility.yul\":2267:2268   */\n      0x00\n        /* \"#utility.yul\":2264:2265   */\n      0x00\n        /* \"#utility.yul\":2257:2269   */\n      revert\n        /* \"#utility.yul\":2208:2271   */\n    tag_299:\n        /* \"#utility.yul\":2155:2277   */\n      pop\n      jump\t// out\n        /* \"#utility.yul\":2283:2422   */\n    tag_251:\n        /* \"#utility.yul\":2329:2334   */\n      0x00\n        /* \"#utility.yul\":2367:2373   */\n      dup2\n        /* \"#utility.yul\":2354:2374   */\n      calldataload\n        /* \"#utility.yul\":2345:2374   */\n      swap1\n      pop\n        /* \"#utility.yul\":2383:2416   */\n      tag_301\n        /* \"#utility.yul\":2410:2415   */\n      dup2\n        /* \"#utility.yul\":2383:2416   */\n      tag_250\n      jump\t// in\n    tag_301:\n        /* \"#utility.yul\":2283:2422   */\n      swap3\n      swap2\n      pop\n      pop\n      jump\t// out\n        /* \"#utility.yul\":2428:2505   */\n    tag_252:\n        /* \"#utility.yul\":2465:2472   */\n      0x00\n        /* \"#utility.yul\":2494:2499   */\n      dup2\n        /* \"#utility.yul\":2483:2499   */\n      swap1\n      pop\n        /* \"#utility.yul\":2428:2505   */\n      swap2\n      swap1\n      pop\n      jump\t// out\n        /* \"#utility.yul\":2511:2633   */\n    tag_253:\n        /* \"#utility.yul\":2584:2608   */\n      tag_304\n        /* \"#utility.yul\":2602:2607   */\n      dup2\n        /* \"#utility.yul\":2584:2608   */\n      tag_252\n      jump\t// in\n    tag_304:\n        /* \"#utility.yul\":2577:2582   */\n      dup2\n        /* \"#utility.yul\":2574:2609   */\n      eq\n        /* \"#utility.yul\":2564:2627   */\n      tag_305\n      jumpi\n        /* \"#utility.yul\":2623:2624   */\n      0x00\n        /* \"#utility.yul\":2620:2621   */\n      0x00\n        /* \"#utility.yul\":2613:2625   */\n      revert\n        /* \"#utility.yul\":2564:2627   */\n    tag_305:\n        /* \"#utility.yul\":2511:2633   */\n      pop\n      jump\t// out\n        /* \"#utility.yul\":2639:2778   */\n    tag_254:\n        /* \"#utility.yul\":2685:2690   */\n      0x00\n        /* \"#utility.yul\":2723:2729   */\n      dup2\n        /* \"#utility.yul\":2710:2730   */\n      calldataload\n        /* \"#utility.yul\":2701:2730   */\n      swap1\n      pop\n        /* \"#utility.yul\":2739:2772   */\n      tag_307\n        /* \"#utility.yul\":2766:2771   */\n      dup2\n        /* \"#utility.yul\":2739:2772   */\n      tag_253\n      jump\t// in\n    tag_307:\n        /* \"#utility.yul\":2639:2778   */\n      swap3\n      swap2\n      pop\n      pop\n      jump\t// out\n        /* \"#utility.yul\":2784:3258   */\n    tag_49:\n        /* \"#utility.yul\":2852:2858   */\n      0x00\n        /* \"#utility.yul\":2860:2866   */\n      0x00\n        /* \"#utility.yul\":2909:2911   */\n      0x40\n        /* \"#utility.yul\":2897:2906   */\n      dup4\n        /* \"#utility.yul\":2888:2895   */\n      dup6\n        /* \"#utility.yul\":2884:2907   */\n      sub\n        /* \"#utility.yul\":2880:2912   */\n      slt\n        /* \"#utility.yul\":2877:2996   */\n      iszero\n      tag_309\n      jumpi\n        /* \"#utility.yul\":2915:2994   */\n      tag_310\n      tag_248\n      jump\t// in\n    tag_310:\n        /* \"#utility.yul\":2877:2996   */\n    tag_309:\n        /* \"#utility.yul\":3035:3036   */\n      0x00\n        /* \"#utility.yul\":3060:3113   */\n      tag_311\n        /* \"#utility.yul\":3105:3112   */\n      dup6\n        /* \"#utility.yul\":3096:3102   */\n      dup3\n        /* \"#utility.yul\":3085:3094   */\n      dup7\n        /* \"#utility.yul\":3081:3103   */\n      add\n        /* \"#utility.yul\":3060:3113   */\n      tag_251\n      jump\t// in\n    tag_311:\n        /* \"#utility.yul\":3050:3113   */\n      swap3\n      pop\n        /* \"#utility.yul\":3006:3123   */\n      pop\n        /* \"#utility.yul\":3162:3164   */\n      0x20\n        /* \"#utility.yul\":3188:3241   */\n      tag_312\n        /* \"#utility.yul\":3233:3240   */\n      dup6\n        /* \"#utility.yul\":3224:3230   */\n      dup3\n        /* \"#utility.yul\":3213:3222   */\n      dup7\n        /* \"#utility.yul\":3209:3231   */\n      add\n        /* \"#utility.yul\":3188:3241   */\n      tag_254\n      jump\t// in\n    tag_312:\n        /* \"#utility.yul\":3178:3241   */\n      swap2\n      pop\n        /* \"#utility.yul\":3133:3251   */\n      pop\n        /* \"#utility.yul\":2784:3258   */\n      swap3\n      pop\n      swap3\n      swap1\n      pop\n      jump\t// out\n        /* \"#utility.yul\":3264:3354   */\n    tag_255:\n        /* \"#utility.yul\":3298:3305   */\n      0x00\n        /* \"#utility.yul\":3341:3346   */\n      dup2\n        /* \"#utility.yul\":3334:3347   */\n      iszero\n        /* \"#utility.yul\":3327:3348   */\n      iszero\n        /* \"#utility.yul\":3316:3348   */\n      swap1\n      pop\n        /* \"#utility.yul\":3264:3354   */\n      swap2\n      swap1\n      pop\n      jump\t// out\n        /* \"#utility.yul\":3360:3469   */\n    tag_256:\n        /* \"#utility.yul\":3441:3462   */\n      tag_315\n        /* \"#utility.yul\":3456:3461   */\n      dup2\n        /* \"#utility.yul\":3441:3462   */\n      tag_255\n      jump\t// in\n    tag_315:\n        /* \"#utility.yul\":3436:3439   */\n      dup3\n        /* \"#utility.yul\":3429:3463   */\n      mstore\n        /* \"#utility.yul\":3360:3469   */\n      pop\n      pop\n      jump\t// out\n        /* \"#utility.yul\":3475:3685   */\n    tag_52:\n        /* \"#utility.yul\":3562:3566   */\n      0x00\n        /* \"#utility.yul\":3600:3602   */\n      0x20\n        /* \"#utility.yul\":3589:3598   */\n      dup3\n        /* \"#utility.yul\":3585:3603   */\n      add\n        /* \"#utility.yul\":3577:3603   */\n      swap1\n      pop\n        /* \"#utility.yul\":3613:3678   */\n      tag_317\n        /* \"#utility.yul\":3675:3676   */\n      0x00\n        /* \"#utility.yul\":3664:3673   */\n      dup4\n        /* \"#utility.yul\":3660:3677   */\n      add\n        /* \"#utility.yul\":3651:3657   */\n      dup5\n        /* \"#utility.yul\":3613:3678   */\n      tag_256\n      jump\t// in\n    tag_317:\n        /* \"#utility.yul\":3475:3685   */\n      swap3\n      swap2\n      pop\n      pop\n      jump\t// out\n        /* \"#utility.yul\":3691:3809   */\n    tag_257:\n        /* \"#utility.yul\":3778:3802   */\n      tag_319\n        /* \"#utility.yul\":3796:3801   */\n      dup2\n        /* \"#utility.yul\":3778:3802   */\n      tag_252\n      jump\t// in\n    tag_319:\n        /* \"#utility.yul\":3773:3776   */\n      dup3\n        /* \"#utility.yul\":3766:3803   */\n      mstore\n        /* \"#utility.yul\":3691:3809   */\n      pop\n      pop\n      jump\t// out\n        /* \"#utility.yul\":3815:4037   */\n    tag_56:\n        /* \"#utility.yul\":3908:3912   */\n      0x00\n        /* \"#utility.yul\":3946:3948   */\n      0x20\n        /* \"#utility.yul\":3935:3944   */\n      dup3\n        /* \"#utility.yul\":3931:3949   */\n      add\n        /* \"#utility.yul\":3923:3949   */\n      swap1\n      pop\n        /* \"#utility.yul\":3959:4030   */\n      tag_321\n        /* \"#utility.yul\":4027:4028   */\n      0x00\n        /* \"#utility.yul\":4016:4025   */\n      dup4\n        /* \"#utility.yul\":4012:4029   */\n      add\n        /* \"#utility.yul\":4003:4009   */\n      dup5\n        /* \"#utility.yul\":3959:4030   */\n      tag_257\n      jump\t// in\n    tag_321:\n        /* \"#utility.yul\":3815:4037   */\n      swap3\n      swap2\n      pop\n      pop\n      jump\t// out\n        /* \"#utility.yul\":4043:4662   */\n    tag_59:\n        /* \"#utility.yul\":4120:4126   */\n      0x00\n        /* \"#utility.yul\":4128:4134   */\n      0x00\n        /* \"#utility.yul\":4136:4142   */\n      0x00\n        /* \"#utility.yul\":4185:4187   */\n      0x60\n        /* \"#utility.yul\":4173:4182   */\n      dup5\n        /* \"#utility.yul\":4164:4171   */\n      dup7\n        /* \"#utility.yul\":4160:4183   */\n      sub\n        /* \"#utility.yul\":4156:4188   */\n      slt\n        /* \"#utility.yul\":4153:4272   */\n      iszero\n      tag_323\n      jumpi\n        /* \"#utility.yul\":4191:4270   */\n      tag_324\n      tag_248\n      jump\t// in\n    tag_324:\n        /* \"#utility.yul\":4153:4272   */\n    tag_323:\n        /* \"#utility.yul\":4311:4312   */\n      0x00\n        /* \"#utility.yul\":4336:4389   */\n      tag_325\n        /* \"#utility.yul\":4381:4388   */\n      dup7\n        /* \"#utility.yul\":4372:4378   */\n      dup3\n        /* \"#utility.yul\":4361:4370   */\n      dup8\n        /* \"#utility.yul\":4357:4379   */\n      add\n        /* \"#utility.yul\":4336:4389   */\n      tag_251\n      jump\t// in\n    tag_325:\n        /* \"#utility.yul\":4326:4389   */\n      swap4\n      pop\n        /* \"#utility.yul\":4282:4399   */\n      pop\n        /* \"#utility.yul\":4438:4440   */\n      0x20\n        /* \"#utility.yul\":4464:4517   */\n      tag_326\n        /* \"#utility.yul\":4509:4516   */\n      dup7\n        /* \"#utility.yul\":4500:4506   */\n      dup3\n        /* \"#utility.yul\":4489:4498   */\n      dup8\n        /* \"#utility.yul\":4485:4507   */\n      add\n        /* \"#utility.yul\":4464:4517   */\n      tag_251\n      jump\t// in\n    tag_326:\n        /* \"#utility.yul\":4454:4517   */\n      swap3\n      pop\n        /* \"#utility.yul\":4409:4527   */\n      pop\n        /* \"#utility.yul\":4566:4568   */\n      0x40\n        /* \"#utility.yul\":4592:4645   */\n      tag_327\n        /* \"#utility.yul\":4637:4644   */\n      dup7\n        /* \"#utility.yul\":4628:4634   */\n      dup3\n        /* \"#utility.yul\":4617:4626   */\n      dup8\n        /* \"#utility.yul\":4613:4635   */\n      add\n        /* \"#utility.yul\":4592:4645   */\n      tag_254\n      jump\t// in\n    tag_327:\n        /* \"#utility.yul\":4582:4645   */\n      swap2\n      pop\n        /* \"#utility.yul\":4537:4655   */\n      pop\n        /* \"#utility.yul\":4043:4662   */\n      swap3\n      pop\n      swap3\n      pop\n      swap3\n      jump\t// out\n        /* \"#utility.yul\":4668:4997   */\n    tag_64:\n        /* \"#utility.yul\":4727:4733   */\n      0x00\n        /* \"#utility.yul\":4776:4778   */\n      0x20\n        /* \"#utility.yul\":4764:4773   */\n      dup3\n        /* \"#utility.yul\":4755:4762   */\n      dup5\n        /* \"#utility.yul\":4751:4774   */\n      sub\n        /* \"#utility.yul\":4747:4779   */\n      slt\n        /* \"#utility.yul\":4744:4863   */\n      iszero\n      tag_329\n      jumpi\n        /* \"#utility.yul\":4782:4861   */\n      tag_330\n      tag_248\n      jump\t// in\n    tag_330:\n        /* \"#utility.yul\":4744:4863   */\n    tag_329:\n        /* \"#utility.yul\":4902:4903   */\n      0x00\n        /* \"#utility.yul\":4927:4980   */\n      tag_331\n        /* \"#utility.yul\":4972:4979   */\n      dup5\n        /* \"#utility.yul\":4963:4969   */\n      dup3\n        /* \"#utility.yul\":4952:4961   */\n      dup6\n        /* \"#utility.yul\":4948:4970   */\n      add\n        /* \"#utility.yul\":4927:4980   */\n      tag_251\n      jump\t// in\n    tag_331:\n        /* \"#utility.yul\":4917:4980   */\n      swap2\n      pop\n        /* \"#utility.yul\":4873:4990   */\n      pop\n        /* \"#utility.yul\":4668:4997   */\n      swap3\n      swap2\n      pop\n      pop\n      jump\t// out\n        /* \"#utility.yul\":5003:5089   */\n    tag_258:\n        /* \"#utility.yul\":5038:5045   */\n      0x00\n        /* \"#utility.yul\":5078:5082   */\n      0xff\n        /* \"#utility.yul\":5071:5076   */\n      dup3\n        /* \"#utility.yul\":5067:5083   */\n      and\n        /* \"#utility.yul\":5056:5083   */\n      swap1\n      pop\n        /* \"#utility.yul\":5003:5089   */\n      swap2\n      swap1\n      pop\n      jump\t// out\n        /* \"#utility.yul\":5095:5207   */\n    tag_259:\n        /* \"#utility.yul\":5178:5200   */\n      tag_334\n        /* \"#utility.yul\":5194:5199   */\n      dup2\n        /* \"#utility.yul\":5178:5200   */\n      tag_258\n      jump\t// in\n    tag_334:\n        /* \"#utility.yul\":5173:5176   */\n      dup3\n        /* \"#utility.yul\":5166:5201   */\n      mstore\n        /* \"#utility.yul\":5095:5207   */\n      pop\n      pop\n      jump\t// out\n        /* \"#utility.yul\":5213:5427   */\n    tag_70:\n        /* \"#utility.yul\":5302:5306   */\n      0x00\n        /* \"#utility.yul\":5340:5342   */\n      0x20\n        /* \"#utility.yul\":5329:5338   */\n      dup3\n        /* \"#utility.yul\":5325:5343   */\n      add\n        /* \"#utility.yul\":5317:5343   */\n      swap1\n      pop\n        /* \"#utility.yul\":5353:5420   */\n      tag_336\n        /* \"#utility.yul\":5417:5418   */\n      0x00\n        /* \"#utility.yul\":5406:5415   */\n      dup4\n        /* \"#utility.yul\":5402:5419   */\n      add\n        /* \"#utility.yul\":5393:5399   */\n      dup5\n        /* \"#utility.yul\":5353:5420   */\n      tag_259\n      jump\t// in\n    tag_336:\n        /* \"#utility.yul\":5213:5427   */\n      swap3\n      swap2\n      pop\n      pop\n      jump\t// out\n        /* \"#utility.yul\":5433:5907   */\n    tag_78:\n        /* \"#utility.yul\":5501:5507   */\n      0x00\n        /* \"#utility.yul\":5509:5515   */\n      0x00\n        /* \"#utility.yul\":5558:5560   */\n      0x40\n        /* \"#utility.yul\":5546:5555   */\n      dup4\n        /* \"#utility.yul\":5537:5544   */\n      dup6\n        /* \"#utility.yul\":5533:5556   */\n      sub\n        /* \"#utility.yul\":5529:5561   */\n      slt\n        /* \"#utility.yul\":5526:5645   */\n      iszero\n      tag_338\n      jumpi\n        /* \"#utility.yul\":5564:5643   */\n      tag_339\n      tag_248\n      jump\t// in\n    tag_339:\n        /* \"#utility.yul\":5526:5645   */\n    tag_338:\n        /* \"#utility.yul\":5684:5685   */\n      0x00\n        /* \"#utility.yul\":5709:5762   */\n      tag_340\n        /* \"#utility.yul\":5754:5761   */\n      dup6\n        /* \"#utility.yul\":5745:5751   */\n      dup3\n        /* \"#utility.yul\":5734:5743   */\n      dup7\n        /* \"#utility.yul\":5730:5752   */\n      add\n        /* \"#utility.yul\":5709:5762   */\n      tag_251\n      jump\t// in\n    tag_340:\n        /* \"#utility.yul\":5699:5762   */\n      swap3\n      pop\n        /* \"#utility.yul\":5655:5772   */\n      pop\n        /* \"#utility.yul\":5811:5813   */\n      0x20\n        /* \"#utility.yul\":5837:5890   */\n      tag_341\n        /* \"#utility.yul\":5882:5889   */\n      dup6\n        /* \"#utility.yul\":5873:5879   */\n      dup3\n        /* \"#utility.yul\":5862:5871   */\n      dup7\n        /* \"#utility.yul\":5858:5880   */\n      add\n        /* \"#utility.yul\":5837:5890   */\n      tag_251\n      jump\t// in\n    tag_341:\n        /* \"#utility.yul\":5827:5890   */\n      swap2\n      pop\n        /* \"#utility.yul\":5782:5900   */\n      pop\n        /* \"#utility.yul\":5433:5907   */\n      swap3\n      pop\n      swap3\n      swap1\n      pop\n      jump\t// out\n        /* \"#utility.yul\":5913:6242   */\n    tag_95:\n        /* \"#utility.yul\":5972:5978   */\n      0x00\n        /* \"#utility.yul\":6021:6023   */\n      0x20\n        /* \"#utility.yul\":6009:6018   */\n      dup3\n        /* \"#utility.yul\":6000:6007   */\n      dup5\n        /* \"#utility.yul\":5996:6019   */\n      sub\n        /* \"#utility.yul\":5992:6024   */\n      slt\n        /* \"#utility.yul\":5989:6108   */\n      iszero\n      tag_343\n      jumpi\n        /* \"#utility.yul\":6027:6106   */\n      tag_344\n      tag_248\n      jump\t// in\n    tag_344:\n        /* \"#utility.yul\":5989:6108   */\n    tag_343:\n        /* \"#utility.yul\":6147:6148   */\n      0x00\n        /* \"#utility.yul\":6172:6225   */\n      tag_345\n        /* \"#utility.yul\":6217:6224   */\n      dup5\n        /* \"#utility.yul\":6208:6214   */\n      dup3\n        /* \"#utility.yul\":6197:6206   */\n      dup6\n        /* \"#utility.yul\":6193:6215   */\n      add\n        /* \"#utility.yul\":6172:6225   */\n      tag_254\n      jump\t// in\n    tag_345:\n        /* \"#utility.yul\":6162:6225   */\n      swap2\n      pop\n        /* \"#utility.yul\":6118:6235   */\n      pop\n        /* \"#utility.yul\":5913:6242   */\n      swap3\n      swap2\n      pop\n      pop\n      jump\t// out\n        /* \"#utility.yul\":6248:6428   */\n    tag_260:\n        /* \"#utility.yul\":6296:6373   */\n      0x4e487b7100000000000000000000000000000000000000000000000000000000\n        /* \"#utility.yul\":6293:6294   */\n      0x00\n        /* \"#utility.yul\":6286:6374   */\n      mstore\n        /* \"#utility.yul\":6393:6397   */\n      0x22\n        /* \"#utility.yul\":6390:6391   */\n      0x04\n        /* \"#utility.yul\":6383:6398   */\n      mstore\n        /* \"#utility.yul\":6417:6421   */\n      0x24\n        /* \"#utility.yul\":6414:6415   */\n      0x00\n        /* \"#utility.yul\":6407:6422   */\n      revert\n        /* \"#utility.yul\":6434:6754   */\n    tag_146:\n        /* \"#utility.yul\":6478:6484   */\n      0x00\n        /* \"#utility.yul\":6515:6516   */\n      0x02\n        /* \"#utility.yul\":6509:6513   */\n      dup3\n        /* \"#utility.yul\":6505:6517   */\n      div\n        /* \"#utility.yul\":6495:6517   */\n      swap1\n      pop\n        /* \"#utility.yul\":6562:6563   */\n      0x01\n        /* \"#utility.yul\":6556:6560   */\n      dup3\n        /* \"#utility.yul\":6552:6564   */\n      and\n        /* \"#utility.yul\":6583:6601   */\n      dup1\n        /* \"#utility.yul\":6573:6654   */\n      tag_348\n      jumpi\n        /* \"#utility.yul\":6639:6643   */\n      0x7f\n        /* \"#utility.yul\":6631:6637   */\n      dup3\n        /* \"#utility.yul\":6627:6644   */\n      and\n        /* \"#utility.yul\":6617:6644   */\n      swap2\n      pop\n        /* \"#utility.yul\":6573:6654   */\n    tag_348:\n        /* \"#utility.yul\":6701:6703   */\n      0x20\n        /* \"#utility.yul\":6693:6699   */\n      dup3\n        /* \"#utility.yul\":6690:6704   */\n      lt\n        /* \"#utility.yul\":6670:6688   */\n      dup2\n        /* \"#utility.yul\":6667:6705   */\n      sub\n        /* \"#utility.yul\":6664:6748   */\n      tag_349\n      jumpi\n        /* \"#utility.yul\":6720:6738   */\n      tag_350\n      tag_260\n      jump\t// in\n    tag_350:\n        /* \"#utility.yul\":6664:6748   */\n    tag_349:\n        /* \"#utility.yul\":6485:6754   */\n      pop\n        /* \"#utility.yul\":6434:6754   */\n      swap2\n      swap1\n      pop\n      jump\t// out\n        /* \"#utility.yul\":6760:6928   */\n    tag_261:\n        /* \"#utility.yul\":6900:6920   */\n      0x416c6c6f77616e63652065786365656465640000000000000000000000000000\n        /* \"#utility.yul\":6896:6897   */\n      0x00\n        /* \"#utility.yul\":6888:6894   */\n      dup3\n        /* \"#utility.yul\":6884:6898   */\n      add\n        /* \"#utility.yul\":6877:6921   */\n      mstore\n        /* \"#utility.yul\":6760:6928   */\n      pop\n      jump\t// out\n        /* \"#utility.yul\":6934:7300   */\n    tag_262:\n        /* \"#utility.yul\":7076:7079   */\n      0x00\n        /* \"#utility.yul\":7097:7164   */\n      tag_353\n        /* \"#utility.yul\":7161:7163   */\n      0x12\n        /* \"#utility.yul\":7156:7159   */\n      dup4\n        /* \"#utility.yul\":7097:7164   */\n      tag_243\n      jump\t// in\n    tag_353:\n        /* \"#utility.yul\":7090:7164   */\n      swap2\n      pop\n        /* \"#utility.yul\":7173:7266   */\n      tag_354\n        /* \"#utility.yul\":7262:7265   */\n      dup3\n        /* \"#utility.yul\":7173:7266   */\n      tag_261\n      jump\t// in\n    tag_354:\n        /* \"#utility.yul\":7291:7293   */\n      0x20\n        /* \"#utility.yul\":7286:7289   */\n      dup3\n        /* \"#utility.yul\":7282:7294   */\n      add\n        /* \"#utility.yul\":7275:7294   */\n      swap1\n      pop\n        /* \"#utility.yul\":6934:7300   */\n      swap2\n      swap1\n      pop\n      jump\t// out\n        /* \"#utility.yul\":7306:7725   */\n    tag_156:\n        /* \"#utility.yul\":7472:7476   */\n      0x00\n        /* \"#utility.yul\":7510:7512   */\n      0x20\n        /* \"#utility.yul\":7499:7508   */\n      dup3\n        /* \"#utility.yul\":7495:7513   */\n      add\n        /* \"#utility.yul\":7487:7513   */\n      swap1\n      pop\n        /* \"#utility.yul\":7559:7568   */\n      dup2\n        /* \"#utility.yul\":7553:7557   */\n      dup2\n        /* \"#utility.yul\":7549:7569   */\n      sub\n        /* \"#utility.yul\":7545:7546   */\n      0x00\n        /* \"#utility.yul\":7534:7543   */\n      dup4\n        /* \"#utility.yul\":7530:7547   */\n      add\n        /* \"#utility.yul\":7523:7570   */\n      mstore\n        /* \"#utility.yul\":7587:7718   */\n      tag_356\n        /* \"#utility.yul\":7713:7717   */\n      dup2\n        /* \"#utility.yul\":7587:7718   */\n      tag_262\n      jump\t// in\n    tag_356:\n        /* \"#utility.yul\":7579:7718   */\n      swap1\n      pop\n        /* \"#utility.yul\":7306:7725   */\n      swap2\n      swap1\n      pop\n      jump\t// out\n        /* \"#utility.yul\":7731:7911   */\n    tag_263:\n        /* \"#utility.yul\":7779:7856   */\n      0x4e487b7100000000000000000000000000000000000000000000000000000000\n        /* \"#utility.yul\":7776:7777   */\n      0x00\n        /* \"#utility.yul\":7769:7857   */\n      mstore\n        /* \"#utility.yul\":7876:7880   */\n      0x11\n        /* \"#utility.yul\":7873:7874   */\n      0x04\n        /* \"#utility.yul\":7866:7881   */\n      mstore\n        /* \"#utility.yul\":7900:7904   */\n      0x24\n        /* \"#utility.yul\":7897:7898   */\n      0x00\n        /* \"#utility.yul\":7890:7905   */\n      revert\n        /* \"#utility.yul\":7917:8111   */\n    tag_158:\n        /* \"#utility.yul\":7957:7961   */\n      0x00\n        /* \"#utility.yul\":7977:7997   */\n      tag_359\n        /* \"#utility.yul\":7995:7996   */\n      dup3\n        /* \"#utility.yul\":7977:7997   */\n      tag_252\n      jump\t// in\n    tag_359:\n        /* \"#utility.yul\":7972:7997   */\n      swap2\n      pop\n        /* \"#utility.yul\":8011:8031   */\n      tag_360\n        /* \"#utility.yul\":8029:8030   */\n      dup4\n        /* \"#utility.yul\":8011:8031   */\n      tag_252\n      jump\t// in\n    tag_360:\n        /* \"#utility.yul\":8006:8031   */\n      swap3\n      pop\n        /* \"#utility.yul\":8055:8056   */\n      dup3\n        /* \"#utility.yul\":8052:8053   */\n      dup3\n        /* \"#utility.yul\":8048:8057   */\n      sub\n        /* \"#utility.yul\":8040:8057   */\n      swap1\n      pop\n        /* \"#utility.yul\":8079:8080   */\n      dup2\n        /* \"#utility.yul\":8073:8077   */\n      dup2\n        /* \"#utility.yul\":8070:8081   */\n      gt\n        /* \"#utility.yul\":8067:8104   */\n      iszero\n      tag_361\n      jumpi\n        /* \"#utility.yul\":8084:8102   */\n      tag_362\n      tag_263\n      jump\t// in\n    tag_362:\n        /* \"#utility.yul\":8067:8104   */\n    tag_361:\n        /* \"#utility.yul\":7917:8111   */\n      swap3\n      swap2\n      pop\n      pop\n      jump\t// out\n        /* \"#utility.yul\":8117:8287   */\n    tag_264:\n        /* \"#utility.yul\":8257:8279   */\n      0x4e6f207265776172647320617661696c61626c65000000000000000000000000\n        /* \"#utility.yul\":8253:8254   */\n      0x00\n        /* \"#utility.yul\":8245:8251   */\n      dup3\n        /* \"#utility.yul\":8241:8255   */\n      add\n        /* \"#utility.yul\":8234:8280   */\n      mstore\n        /* \"#utility.yul\":8117:8287   */\n      pop\n      jump\t// out\n        /* \"#utility.yul\":8293:8659   */\n    tag_265:\n        /* \"#utility.yul\":8435:8438   */\n      0x00\n        /* \"#utility.yul\":8456:8523   */\n      tag_365\n        /* \"#utility.yul\":8520:8522   */\n      0x14\n        /* \"#utility.yul\":8515:8518   */\n      dup4\n        /* \"#utility.yul\":8456:8523   */\n      tag_243\n      jump\t// in\n    tag_365:\n        /* \"#utility.yul\":8449:8523   */\n      swap2\n      pop\n        /* \"#utility.yul\":8532:8625   */\n      tag_366\n        /* \"#utility.yul\":8621:8624   */\n      dup3\n        /* \"#utility.yul\":8532:8625   */\n      tag_264\n      jump\t// in\n    tag_366:\n        /* \"#utility.yul\":8650:8652   */\n      0x20\n        /* \"#utility.yul\":8645:8648   */\n      dup3\n        /* \"#utility.yul\":8641:8653   */\n      add\n        /* \"#utility.yul\":8634:8653   */\n      swap1\n      pop\n        /* \"#utility.yul\":8293:8659   */\n      swap2\n      swap1\n      pop\n      jump\t// out\n        /* \"#utility.yul\":8665:9084   */\n    tag_165:\n        /* \"#utility.yul\":8831:8835   */\n      0x00\n        /* \"#utility.yul\":8869:8871   */\n      0x20\n        /* \"#utility.yul\":8858:8867   */\n      dup3\n        /* \"#utility.yul\":8854:8872   */\n      add\n        /* \"#utility.yul\":8846:8872   */\n      swap1\n      pop\n        /* \"#utility.yul\":8918:8927   */\n      dup2\n        /* \"#utility.yul\":8912:8916   */\n      dup2\n        /* \"#utility.yul\":8908:8928   */\n      sub\n        /* \"#utility.yul\":8904:8905   */\n      0x00\n        /* \"#utility.yul\":8893:8902   */\n      dup4\n        /* \"#utility.yul\":8889:8906   */\n      add\n        /* \"#utility.yul\":8882:8929   */\n      mstore\n        /* \"#utility.yul\":8946:9077   */\n      tag_368\n        /* \"#utility.yul\":9072:9076   */\n      dup2\n        /* \"#utility.yul\":8946:9077   */\n      tag_265\n      jump\t// in\n    tag_368:\n        /* \"#utility.yul\":8938:9077   */\n      swap1\n      pop\n        /* \"#utility.yul\":8665:9084   */\n      swap2\n      swap1\n      pop\n      jump\t// out\n        /* \"#utility.yul\":9090:9281   */\n    tag_167:\n        /* \"#utility.yul\":9130:9133   */\n      0x00\n        /* \"#utility.yul\":9149:9169   */\n      tag_370\n        /* \"#utility.yul\":9167:9168   */\n      dup3\n        /* \"#utility.yul\":9149:9169   */\n      tag_252\n      jump\t// in\n    tag_370:\n        /* \"#utility.yul\":9144:9169   */\n      swap2\n      pop\n        /* \"#utility.yul\":9183:9203   */\n      tag_371\n        /* \"#utility.yul\":9201:9202   */\n      dup4\n        /* \"#utility.yul\":9183:9203   */\n      tag_252\n      jump\t// in\n    tag_371:\n        /* \"#utility.yul\":9178:9203   */\n      swap3\n      pop\n        /* \"#utility.yul\":9226:9227   */\n      dup3\n        /* \"#utility.yul\":9223:9224   */\n      dup3\n        /* \"#utility.yul\":9219:9228   */\n      add\n        /* \"#utility.yul\":9212:9228   */\n      swap1\n      pop\n        /* \"#utility.yul\":9247:9250   */\n      dup1\n        /* \"#utility.yul\":9244:9245   */\n      dup3\n        /* \"#utility.yul\":9241:9251   */\n      gt\n        /* \"#utility.yul\":9238:9274   */\n      iszero\n      tag_372\n      jumpi\n        /* \"#utility.yul\":9254:9272   */\n      tag_373\n      tag_263\n      jump\t// in\n    tag_373:\n        /* \"#utility.yul\":9238:9274   */\n    tag_372:\n        /* \"#utility.yul\":9090:9281   */\n      swap3\n      swap2\n      pop\n      pop\n      jump\t// out\n        /* \"#utility.yul\":9287:9460   */\n    tag_266:\n        /* \"#utility.yul\":9427:9452   */\n      0x43616e6e6f7420756e7374616b65203020746f6b656e73000000000000000000\n        /* \"#utility.yul\":9423:9424   */\n      0x00\n        /* \"#utility.yul\":9415:9421   */\n      dup3\n        /* \"#utility.yul\":9411:9425   */\n      add\n        /* \"#utility.yul\":9404:9453   */\n      mstore\n        /* \"#utility.yul\":9287:9460   */\n      pop\n      jump\t// out\n        /* \"#utility.yul\":9466:9832   */\n    tag_267:\n        /* \"#utility.yul\":9608:9611   */\n      0x00\n        /* \"#utility.yul\":9629:9696   */\n      tag_376\n        /* \"#utility.yul\":9693:9695   */\n      0x17\n        /* \"#utility.yul\":9688:9691   */\n      dup4\n        /* \"#utility.yul\":9629:9696   */\n      tag_243\n      jump\t// in\n    tag_376:\n        /* \"#utility.yul\":9622:9696   */\n      swap2\n      pop\n        /* \"#utility.yul\":9705:9798   */\n      tag_377\n        /* \"#utility.yul\":9794:9797   */\n      dup3\n        /* \"#utility.yul\":9705:9798   */\n      tag_266\n      jump\t// in\n    tag_377:\n        /* \"#utility.yul\":9823:9825   */\n      0x20\n        /* \"#utility.yul\":9818:9821   */\n      dup3\n        /* \"#utility.yul\":9814:9826   */\n      add\n        /* \"#utility.yul\":9807:9826   */\n      swap1\n      pop\n        /* \"#utility.yul\":9466:9832   */\n      swap2\n      swap1\n      pop\n      jump\t// out\n        /* \"#utility.yul\":9838:10257   */\n    tag_173:\n        /* \"#utility.yul\":10004:10008   */\n      0x00\n        /* \"#utility.yul\":10042:10044   */\n      0x20\n        /* \"#utility.yul\":10031:10040   */\n      dup3\n        /* \"#utility.yul\":10027:10045   */\n      add\n        /* \"#utility.yul\":10019:10045   */\n      swap1\n      pop\n        /* \"#utility.yul\":10091:10100   */\n      dup2\n        /* \"#utility.yul\":10085:10089   */\n      dup2\n        /* \"#utility.yul\":10081:10101   */\n      sub\n        /* \"#utility.yul\":10077:10078   */\n      0x00\n        /* \"#utility.yul\":10066:10075   */\n      dup4\n        /* \"#utility.yul\":10062:10079   */\n      add\n        /* \"#utility.yul\":10055:10102   */\n      mstore\n        /* \"#utility.yul\":10119:10250   */\n      tag_379\n        /* \"#utility.yul\":10245:10249   */\n      dup2\n        /* \"#utility.yul\":10119:10250   */\n      tag_267\n      jump\t// in\n    tag_379:\n        /* \"#utility.yul\":10111:10250   */\n      swap1\n      pop\n        /* \"#utility.yul\":9838:10257   */\n      swap2\n      swap1\n      pop\n      jump\t// out\n        /* \"#utility.yul\":10263:10438   */\n    tag_268:\n        /* \"#utility.yul\":10403:10430   */\n      0x4e6f7420656e6f756768207374616b65642062616c616e636500000000000000\n        /* \"#utility.yul\":10399:10400   */\n      0x00\n        /* \"#utility.yul\":10391:10397   */\n      dup3\n        /* \"#utility.yul\":10387:10401   */\n      add\n        /* \"#utility.yul\":10380:10431   */\n      mstore\n        /* \"#utility.yul\":10263:10438   */\n      pop\n      jump\t// out\n        /* \"#utility.yul\":10444:10810   */\n    tag_269:\n        /* \"#utility.yul\":10586:10589   */\n      0x00\n        /* \"#utility.yul\":10607:10674   */\n      tag_382\n        /* \"#utility.yul\":10671:10673   */\n      0x19\n        /* \"#utility.yul\":10666:10669   */\n      dup4\n        /* \"#utility.yul\":10607:10674   */\n      tag_243\n      jump\t// in\n    tag_382:\n        /* \"#utility.yul\":10600:10674   */\n      swap2\n      pop\n        /* \"#utility.yul\":10683:10776   */\n      tag_383\n        /* \"#utility.yul\":10772:10775   */\n      dup3\n        /* \"#utility.yul\":10683:10776   */\n      tag_268\n      jump\t// in\n    tag_383:\n        /* \"#utility.yul\":10801:10803   */\n      0x20\n        /* \"#utility.yul\":10796:10799   */\n      dup3\n        /* \"#utility.yul\":10792:10804   */\n      add\n        /* \"#utility.yul\":10785:10804   */\n      swap1\n      pop\n        /* \"#utility.yul\":10444:10810   */\n      swap2\n      swap1\n      pop\n      jump\t// out\n        /* \"#utility.yul\":10816:11235   */\n    tag_176:\n        /* \"#utility.yul\":10982:10986   */\n      0x00\n        /* \"#utility.yul\":11020:11022   */\n      0x20\n        /* \"#utility.yul\":11009:11018   */\n      dup3\n        /* \"#utility.yul\":11005:11023   */\n      add\n        /* \"#utility.yul\":10997:11023   */\n      swap1\n      pop\n        /* \"#utility.yul\":11069:11078   */\n      dup2\n        /* \"#utility.yul\":11063:11067   */\n      dup2\n        /* \"#utility.yul\":11059:11079   */\n      sub\n        /* \"#utility.yul\":11055:11056   */\n      0x00\n        /* \"#utility.yul\":11044:11053   */\n      dup4\n        /* \"#utility.yul\":11040:11057   */\n      add\n        /* \"#utility.yul\":11033:11080   */\n      mstore\n        /* \"#utility.yul\":11097:11228   */\n      tag_385\n        /* \"#utility.yul\":11223:11227   */\n      dup2\n        /* \"#utility.yul\":11097:11228   */\n      tag_269\n      jump\t// in\n    tag_385:\n        /* \"#utility.yul\":11089:11228   */\n      swap1\n      pop\n        /* \"#utility.yul\":10816:11235   */\n      swap2\n      swap1\n      pop\n      jump\t// out\n        /* \"#utility.yul\":11241:11412   */\n    tag_270:\n        /* \"#utility.yul\":11381:11404   */\n      0x43616e6e6f74207374616b65203020746f6b656e730000000000000000000000\n        /* \"#utility.yul\":11377:11378   */\n      0x00\n        /* \"#utility.yul\":11369:11375   */\n      dup3\n        /* \"#utility.yul\":11365:11379   */\n      add\n        /* \"#utility.yul\":11358:11405   */\n      mstore\n        /* \"#utility.yul\":11241:11412   */\n      pop\n      jump\t// out\n        /* \"#utility.yul\":11418:11784   */\n    tag_271:\n        /* \"#utility.yul\":11560:11563   */\n      0x00\n        /* \"#utility.yul\":11581:11648   */\n      tag_388\n        /* \"#utility.yul\":11645:11647   */\n      0x15\n        /* \"#utility.yul\":11640:11643   */\n      dup4\n        /* \"#utility.yul\":11581:11648   */\n      tag_243\n      jump\t// in\n    tag_388:\n        /* \"#utility.yul\":11574:11648   */\n      swap2\n      pop\n        /* \"#utility.yul\":11657:11750   */\n      tag_389\n        /* \"#utility.yul\":11746:11749   */\n      dup3\n        /* \"#utility.yul\":11657:11750   */\n      tag_270\n      jump\t// in\n    tag_389:\n        /* \"#utility.yul\":11775:11777   */\n      0x20\n        /* \"#utility.yul\":11770:11773   */\n      dup3\n        /* \"#utility.yul\":11766:11778   */\n      add\n        /* \"#utility.yul\":11759:11778   */\n      swap1\n      pop\n        /* \"#utility.yul\":11418:11784   */\n      swap2\n      swap1\n      pop\n      jump\t// out\n        /* \"#utility.yul\":11790:12209   */\n    tag_183:\n        /* \"#utility.yul\":11956:11960   */\n      0x00\n        /* \"#utility.yul\":11994:11996   */\n      0x20\n        /* \"#utility.yul\":11983:11992   */\n      dup3\n        /* \"#utility.yul\":11979:11997   */\n      add\n        /* \"#utility.yul\":11971:11997   */\n      swap1\n      pop\n        /* \"#utility.yul\":12043:12052   */\n      dup2\n        /* \"#utility.yul\":12037:12041   */\n      dup2\n        /* \"#utility.yul\":12033:12053   */\n      sub\n        /* \"#utility.yul\":12029:12030   */\n      0x00\n        /* \"#utility.yul\":12018:12027   */\n      dup4\n        /* \"#utility.yul\":12014:12031   */\n      add\n        /* \"#utility.yul\":12007:12054   */\n      mstore\n        /* \"#utility.yul\":12071:12202   */\n      tag_391\n        /* \"#utility.yul\":12197:12201   */\n      dup2\n        /* \"#utility.yul\":12071:12202   */\n      tag_271\n      jump\t// in\n    tag_391:\n        /* \"#utility.yul\":12063:12202   */\n      swap1\n      pop\n        /* \"#utility.yul\":11790:12209   */\n      swap2\n      swap1\n      pop\n      jump\t// out\n        /* \"#utility.yul\":12215:12385   */\n    tag_272:\n        /* \"#utility.yul\":12355:12377   */\n      0x496e73756666696369656e742062616c616e6365000000000000000000000000\n        /* \"#utility.yul\":12351:12352   */\n      0x00\n        /* \"#utility.yul\":12343:12349   */\n      dup3\n        /* \"#utility.yul\":12339:12353   */\n      add\n        /* \"#utility.yul\":12332:12378   */\n      mstore\n        /* \"#utility.yul\":12215:12385   */\n      pop\n      jump\t// out\n        /* \"#utility.yul\":12391:12757   */\n    tag_273:\n        /* \"#utility.yul\":12533:12536   */\n      0x00\n        /* \"#utility.yul\":12554:12621   */\n      tag_394\n        /* \"#utility.yul\":12618:12620   */\n      0x14\n        /* \"#utility.yul\":12613:12616   */\n      dup4\n        /* \"#utility.yul\":12554:12621   */\n      tag_243\n      jump\t// in\n    tag_394:\n        /* \"#utility.yul\":12547:12621   */\n      swap2\n      pop\n        /* \"#utility.yul\":12630:12723   */\n      tag_395\n        /* \"#utility.yul\":12719:12722   */\n      dup3\n        /* \"#utility.yul\":12630:12723   */\n      tag_272\n      jump\t// in\n    tag_395:\n        /* \"#utility.yul\":12748:12750   */\n      0x20\n        /* \"#utility.yul\":12743:12746   */\n      dup3\n        /* \"#utility.yul\":12739:12751   */\n      add\n        /* \"#utility.yul\":12732:12751   */\n      swap1\n      pop\n        /* \"#utility.yul\":12391:12757   */\n      swap2\n      swap1\n      pop\n      jump\t// out\n        /* \"#utility.yul\":12763:13182   */\n    tag_186:\n        /* \"#utility.yul\":12929:12933   */\n      0x00\n        /* \"#utility.yul\":12967:12969   */\n      0x20\n        /* \"#utility.yul\":12956:12965   */\n      dup3\n        /* \"#utility.yul\":12952:12970   */\n      add\n        /* \"#utility.yul\":12944:12970   */\n      swap1\n      pop\n        /* \"#utility.yul\":13016:13025   */\n      dup2\n        /* \"#utility.yul\":13010:13014   */\n      dup2\n        /* \"#utility.yul\":13006:13026   */\n      sub\n        /* \"#utility.yul\":13002:13003   */\n      0x00\n        /* \"#utility.yul\":12991:13000   */\n      dup4\n        /* \"#utility.yul\":12987:13004   */\n      add\n        /* \"#utility.yul\":12980:13027   */\n      mstore\n        /* \"#utility.yul\":13044:13175   */\n      tag_397\n        /* \"#utility.yul\":13170:13174   */\n      dup2\n        /* \"#utility.yul\":13044:13175   */\n      tag_273\n      jump\t// in\n    tag_397:\n        /* \"#utility.yul\":13036:13175   */\n      swap1\n      pop\n        /* \"#utility.yul\":12763:13182   */\n      swap2\n      swap1\n      pop\n      jump\t// out\n        /* \"#utility.yul\":13188:13598   */\n    tag_201:\n        /* \"#utility.yul\":13228:13235   */\n      0x00\n        /* \"#utility.yul\":13251:13271   */\n      tag_399\n        /* \"#utility.yul\":13269:13270   */\n      dup3\n        /* \"#utility.yul\":13251:13271   */\n      tag_252\n      jump\t// in\n    tag_399:\n        /* \"#utility.yul\":13246:13271   */\n      swap2\n      pop\n        /* \"#utility.yul\":13285:13305   */\n      tag_400\n        /* \"#utility.yul\":13303:13304   */\n      dup4\n        /* \"#utility.yul\":13285:13305   */\n      tag_252\n      jump\t// in\n    tag_400:\n        /* \"#utility.yul\":13280:13305   */\n      swap3\n      pop\n        /* \"#utility.yul\":13340:13341   */\n      dup3\n        /* \"#utility.yul\":13337:13338   */\n      dup3\n        /* \"#utility.yul\":13333:13342   */\n      mul\n        /* \"#utility.yul\":13362:13392   */\n      tag_401\n        /* \"#utility.yul\":13380:13391   */\n      dup2\n        /* \"#utility.yul\":13362:13392   */\n      tag_252\n      jump\t// in\n    tag_401:\n        /* \"#utility.yul\":13351:13392   */\n      swap2\n      pop\n        /* \"#utility.yul\":13541:13542   */\n      dup3\n        /* \"#utility.yul\":13532:13539   */\n      dup3\n        /* \"#utility.yul\":13528:13543   */\n      div\n        /* \"#utility.yul\":13525:13526   */\n      dup5\n        /* \"#utility.yul\":13522:13544   */\n      eq\n        /* \"#utility.yul\":13502:13503   */\n      dup4\n        /* \"#utility.yul\":13495:13504   */\n      iszero\n        /* \"#utility.yul\":13475:13558   */\n      or\n        /* \"#utility.yul\":13452:13591   */\n      tag_402\n      jumpi\n        /* \"#utility.yul\":13571:13589   */\n      tag_403\n      tag_263\n      jump\t// in\n    tag_403:\n        /* \"#utility.yul\":13452:13591   */\n    tag_402:\n        /* \"#utility.yul\":13236:13598   */\n      pop\n        /* \"#utility.yul\":13188:13598   */\n      swap3\n      swap2\n      pop\n      pop\n      jump\t// out\n        /* \"#utility.yul\":13604:13784   */\n    tag_274:\n        /* \"#utility.yul\":13652:13729   */\n      0x4e487b7100000000000000000000000000000000000000000000000000000000\n        /* \"#utility.yul\":13649:13650   */\n      0x00\n        /* \"#utility.yul\":13642:13730   */\n      mstore\n        /* \"#utility.yul\":13749:13753   */\n      0x12\n        /* \"#utility.yul\":13746:13747   */\n      0x04\n        /* \"#utility.yul\":13739:13754   */\n      mstore\n        /* \"#utility.yul\":13773:13777   */\n      0x24\n        /* \"#utility.yul\":13770:13771   */\n      0x00\n        /* \"#utility.yul\":13763:13778   */\n      revert\n        /* \"#utility.yul\":13790:13975   */\n    tag_203:\n        /* \"#utility.yul\":13830:13831   */\n      0x00\n        /* \"#utility.yul\":13847:13867   */\n      tag_406\n        /* \"#utility.yul\":13865:13866   */\n      dup3\n        /* \"#utility.yul\":13847:13867   */\n      tag_252\n      jump\t// in\n    tag_406:\n        /* \"#utility.yul\":13842:13867   */\n      swap2\n      pop\n        /* \"#utility.yul\":13881:13901   */\n      tag_407\n        /* \"#utility.yul\":13899:13900   */\n      dup4\n        /* \"#utility.yul\":13881:13901   */\n      tag_252\n      jump\t// in\n    tag_407:\n        /* \"#utility.yul\":13876:13901   */\n      swap3\n      pop\n        /* \"#utility.yul\":13920:13921   */\n      dup3\n        /* \"#utility.yul\":13910:13945   */\n      tag_408\n      jumpi\n        /* \"#utility.yul\":13925:13943   */\n      tag_409\n      tag_274\n      jump\t// in\n    tag_409:\n        /* \"#utility.yul\":13910:13945   */\n    tag_408:\n        /* \"#utility.yul\":13967:13968   */\n      dup3\n        /* \"#utility.yul\":13964:13965   */\n      dup3\n        /* \"#utility.yul\":13960:13969   */\n      div\n        /* \"#utility.yul\":13955:13969   */\n      swap1\n      pop\n        /* \"#utility.yul\":13790:13975   */\n      swap3\n      swap2\n      pop\n      pop\n      jump\t// out\n        /* \"#utility.yul\":13981:14423   */\n    tag_238:\n        /* \"#utility.yul\":14130:14134   */\n      0x00\n        /* \"#utility.yul\":14168:14170   */\n      0x60\n        /* \"#utility.yul\":14157:14166   */\n      dup3\n        /* \"#utility.yul\":14153:14171   */\n      add\n        /* \"#utility.yul\":14145:14171   */\n      swap1\n      pop\n        /* \"#utility.yul\":14181:14252   */\n      tag_411\n        /* \"#utility.yul\":14249:14250   */\n      0x00\n        /* \"#utility.yul\":14238:14247   */\n      dup4\n        /* \"#utility.yul\":14234:14251   */\n      add\n        /* \"#utility.yul\":14225:14231   */\n      dup7\n        /* \"#utility.yul\":14181:14252   */\n      tag_257\n      jump\t// in\n    tag_411:\n        /* \"#utility.yul\":14262:14334   */\n      tag_412\n        /* \"#utility.yul\":14330:14332   */\n      0x20\n        /* \"#utility.yul\":14319:14328   */\n      dup4\n        /* \"#utility.yul\":14315:14333   */\n      add\n        /* \"#utility.yul\":14306:14312   */\n      dup6\n        /* \"#utility.yul\":14262:14334   */\n      tag_257\n      jump\t// in\n    tag_412:\n        /* \"#utility.yul\":14344:14416   */\n      tag_413\n        /* \"#utility.yul\":14412:14414   */\n      0x40\n        /* \"#utility.yul\":14401:14410   */\n      dup4\n        /* \"#utility.yul\":14397:14415   */\n      add\n        /* \"#utility.yul\":14388:14394   */\n      dup5\n        /* \"#utility.yul\":14344:14416   */\n      tag_257\n      jump\t// in\n    tag_413:\n        /* \"#utility.yul\":13981:14423   */\n      swap5\n      swap4\n      pop\n      pop\n      pop\n      pop\n      jump\t// out\n\n    auxdata: 0xa26469706673582212206482d8809ff976d08111eb5c71e9cd68826599e4451afe55b01954fd376830d064736f6c634300081c0033\n}\n",
				"bytecode": {
					"linkReferences": {},
					"object": "60806040526040518060400160405280600a81526020017f476f7474612042657974000000000000000000000000000000000000000000008152505f908161004791906104ff565b506040518060400160405280600581526020017f47424554590000000000000000000000000000000000000000000000000000008152506001908161008c91906104ff565b50600660025f6101000a81548160ff021916908360ff1602179055503480156100b3575f5ffd5b5060405161247238038061247283398181016040528101906100d59190610656565b5f73ffffffffffffffffffffffffffffffffffffffff168273ffffffffffffffffffffffffffffffffffffffff1603610143576040517f08c379a000000000000000000000000000000000000000000000000000000000815260040161013a90610700565b60405180910390fd5b5f73ffffffffffffffffffffffffffffffffffffffff168173ffffffffffffffffffffffffffffffffffffffff16036101b1576040517f08c379a00000000000000000000000000000000000000000000000000000000081526004016101a890610768565b60405180910390fd5b3360045f6101000a81548173ffffffffffffffffffffffffffffffffffffffff021916908373ffffffffffffffffffffffffffffffffffffffff1602179055508160055f6101000a81548173ffffffffffffffffffffffffffffffffffffffff021916908373ffffffffffffffffffffffffffffffffffffffff1602179055508060065f6101000a81548173ffffffffffffffffffffffffffffffffffffffff021916908373ffffffffffffffffffffffffffffffffffffffff160217905550826003819055508260075f3373ffffffffffffffffffffffffffffffffffffffff1673ffffffffffffffffffffffffffffffffffffffff1681526020019081526020015f2081905550505050610786565b5f81519050919050565b7f4e487b71000000000000000000000000000000000000000000000000000000005f52604160045260245ffd5b7f4e487b71000000000000000000000000000000000000000000000000000000005f52602260045260245ffd5b5f600282049050600182168061033d57607f821691505b6020821081036103505761034f6102f9565b5b50919050565b5f819050815f5260205f209050919050565b5f6020601f8301049050919050565b5f82821b905092915050565b5f600883026103b27fffffffffffffffffffffffffffffffffffffffffffffffffffffffffffffffff82610377565b6103bc8683610377565b95508019841693508086168417925050509392505050565b5f819050919050565b5f819050919050565b5f6104006103fb6103f6846103d4565b6103dd565b6103d4565b9050919050565b5f819050919050565b610419836103e6565b61042d61042582610407565b848454610383565b825550505050565b5f5f905090565b610444610435565b61044f818484610410565b505050565b5b81811015610472576104675f8261043c565b600181019050610455565b5050565b601f8211156104b75761048881610356565b61049184610368565b810160208510156104a0578190505b6104b46104ac85610368565b830182610454565b50505b505050565b5f82821c905092915050565b5f6104d75f19846008026104bc565b1980831691505092915050565b5f6104ef83836104c8565b9150826002028217905092915050565b610508826102c2565b67ffffffffffffffff811115610521576105206102cc565b5b61052b8254610326565b610536828285610476565b5f60209050601f831160018114610567575f8415610555578287015190505b61055f85826104e4565b8655506105c6565b601f19841661057586610356565b5f5b8281101561059c57848901518255600182019150602085019450602081019050610577565b868310156105b957848901516105b5601f8916826104c8565b8355505b6001600288020188555050505b505050505050565b5f5ffd5b6105db816103d4565b81146105e5575f5ffd5b50565b5f815190506105f6816105d2565b92915050565b5f73ffffffffffffffffffffffffffffffffffffffff82169050919050565b5f610625826105fc565b9050919050565b6106358161061b565b811461063f575f5ffd5b50565b5f815190506106508161062c565b92915050565b5f5f5f6060848603121561066d5761066c6105ce565b5b5f61067a868287016105e8565b935050602061068b86828701610642565b925050604061069c86828701610642565b9150509250925092565b5f82825260208201905092915050565b7f496e76616c6964206c697175696469747920706f6f6c206164647265737300005f82015250565b5f6106ea601e836106a6565b91506106f5826106b6565b602082019050919050565b5f6020820190508181035f830152610717816106de565b9050919050565b7f496e76616c696420617574686f726974792077616c6c657420616464726573735f82015250565b5f6107526020836106a6565b915061075d8261071e565b602082019050919050565b5f6020820190508181035f83015261077f81610746565b9050919050565b611cdf806107935f395ff3fe608060405234801561000f575f5ffd5b50600436106101cd575f3560e01c8063608e4dd01161010257806395d89b41116100a0578063dd62ed3e1161006f578063dd62ed3e14610537578063f3f91fa014610567578063fe71264e14610597578063fefcb3a9146105b5576101cd565b806395d89b411461049b578063a9059cbb146104b9578063d73792a9146104e9578063d82e396214610507576101cd565b806370a08231116100dc57806370a08231146104135780637547c7a314610443578063819a93981461045f578063951f894b1461047d576101cd565b8063608e4dd0146103a957806361b8b5dc146103c5578063665a11ca146103f5576101cd565b8063372500ab1161016f57806358f442d21161014957806358f442d2146103315780635d0253581461034f5780635e3f27271461036d578063604453ed1461038b576101cd565b8063372500ab146102d9578063480df058146102e357806355b6ed5c14610301576101cd565b806318160ddd116101ab57806318160ddd1461023d57806323b872dd1461025b57806327e235e31461028b578063313ce567146102bb576101cd565b80630361dfb7146101d157806306fdde03146101ef578063095ea7b31461020d575b5f5ffd5b6101d96105d3565b6040516101e691906115bb565b60405180910390f35b6101f76105f8565b6040516102049190611644565b60405180910390f35b610227600480360381019061022291906116c5565b610683565b604051610234919061171d565b60405180910390f35b610245610770565b6040516102529190611745565b60405180910390f35b6102756004803603810190610270919061175e565b610776565b604051610282919061171d565b60405180910390f35b6102a560048036038101906102a091906117ae565b6108d6565b6040516102b29190611745565b60405180910390f35b6102c36108eb565b6040516102d091906117f4565b60405180910390f35b6102e16108fd565b005b6102eb610a49565b6040516102f89190611745565b60405180910390f35b61031b6004803603810190610316919061180d565b610a4e565b6040516103289190611745565b60405180910390f35b610339610a6e565b6040516103469190611745565b60405180910390f35b610357610a74565b6040516103649190611745565b60405180910390f35b610375610a79565b6040516103829190611745565b60405180910390f35b610393610a7e565b6040516103a09190611745565b60405180910390f35b6103c360048036038101906103be919061184b565b610a83565b005b6103df60048036038101906103da91906117ae565b610bee565b6040516103ec9190611745565b60405180910390f35b6103fd610c03565b60405161040a91906115bb565b60405180910390f35b61042d600480360381019061042891906117ae565b610c28565b60405161043a9190611745565b60405180910390f35b61045d6004803603810190610458919061184b565b610c6e565b005b610467610e60565b6040516104749190611745565b60405180910390f35b610485610e66565b6040516104929190611745565b60405180910390f35b6104a3610e6c565b6040516104b09190611644565b60405180910390f35b6104d360048036038101906104ce91906116c5565b610ef8565b6040516104e0919061171d565b60405180910390f35b6104f1610f0e565b6040516104fe9190611745565b60405180910390f35b610521600480360381019061051c91906117ae565b610f14565b60405161052e9190611745565b60405180910390f35b610551600480360381019061054c919061180d565b611064565b60405161055e9190611745565b60405180910390f35b610581600480360381019061057c91906117ae565b6110e6565b60405161058e9190611745565b60405180910390f35b61059f6110fb565b6040516105ac91906115bb565b60405180910390f35b6105bd611120565b6040516105ca9190611745565b60405180910390f35b60065f9054906101000a900473ffffffffffffffffffffffffffffffffffffffff1681565b5f8054610604906118a3565b80601f0160208091040260200160405190810160405280929190818152602001828054610630906118a3565b801561067b5780601f106106525761010080835404028352916020019161067b565b820191905f5260205f20905b81548152906001019060200180831161065e57829003601f168201915b505050505081565b5f8160085f3373ffffffffffffffffffffffffffffffffffffffff1673ffffffffffffffffffffffffffffffffffffffff1681526020019081526020015f205f8573ffffffffffffffffffffffffffffffffffffffff1673ffffffffffffffffffffffffffffffffffffffff1681526020019081526020015f20819055508273ffffffffffffffffffffffffffffffffffffffff163373ffffffffffffffffffffffffffffffffffffffff167f8c5be1e5ebec7d5bd14f71427d1e84f3dd0314c0f7b2291e5b200ac8c7c3b9258460405161075e9190611745565b60405180910390a36001905092915050565b60035481565b5f8160085f8673ffffffffffffffffffffffffffffffffffffffff1673ffffffffffffffffffffffffffffffffffffffff1681526020019081526020015f205f3373ffffffffffffffffffffffffffffffffffffffff1673ffffffffffffffffffffffffffffffffffffffff1681526020019081526020015f20541015610832576040517f08c379a00000000000000000000000000000000000000000000000000000000081526004016108299061191d565b60405180910390fd5b8160085f8673ffffffffffffffffffffffffffffffffffffffff1673ffffffffffffffffffffffffffffffffffffffff1681526020019081526020015f205f3373ffffffffffffffffffffffffffffffffffffffff1673ffffffffffffffffffffffffffffffffffffffff1681526020019081526020015f205f8282546108b99190611968565b925050819055506108cb848484611125565b600190509392505050565b6007602052805f5260405f205f915090505481565b60025f9054906101000a900460ff1681565b5f61090733610f14565b90505f811161094b576040517f08c379a0000000000000000000000000000000000000000000000000000000008152600401610942906119e5565b60405180910390fd5b8060075f3373ffffffffffffffffffffffffffffffffffffffff1673ffffffffffffffffffffffffffffffffffffffff1681526020019081526020015f205f8282546109979190611a03565b925050819055508060035f8282546109af9190611a03565b9250508190555042600a5f3373ffffffffffffffffffffffffffffffffffffffff1673ffffffffffffffffffffffffffffffffffffffff1681526020019081526020015f20819055503373ffffffffffffffffffffffffffffffffffffffff167ffc30cddea38e2bf4d6ea7d3f9ed3b6ad7f176419f4963bd81318067a4aee73fe82604051610a3e9190611745565b60405180910390a250565b602381565b6008602052815f5260405f20602052805f5260405f205f91509150505481565b6101a981565b60d781565b60c881565b607381565b5f8111610ac5576040517f08c379a0000000000000000000000000000000000000000000000000000000008152600401610abc90611a80565b60405180910390fd5b8060095f3373ffffffffffffffffffffffffffffffffffffffff1673ffffffffffffffffffffffffffffffffffffffff1681526020019081526020015f20541015610b45576040517f08c379a0000000000000000000000000000000000000000000000000000000008152600401610b3c90611ae8565b60405180910390fd5b8060095f3373ffffffffffffffffffffffffffffffffffffffff1673ffffffffffffffffffffffffffffffffffffffff1681526020019081526020015f205f828254610b919190611968565b925050819055508060075f3373ffffffffffffffffffffffffffffffffffffffff1673ffffffffffffffffffffffffffffffffffffffff1681526020019081526020015f205f828254610be49190611a03565b9250508190555050565b6009602052805f5260405f205f915090505481565b60055f9054906101000a900473ffffffffffffffffffffffffffffffffffffffff1681565b5f60075f8373ffffffffffffffffffffffffffffffffffffffff1673ffffffffffffffffffffffffffffffffffffffff1681526020019081526020015f20549050919050565b5f8111610cb0576040517f08c379a0000000000000000000000000000000000000000000000000000000008152600401610ca790611b50565b60405180910390fd5b8060075f3373ffffffffffffffffffffffffffffffffffffffff1673ffffffffffffffffffffffffffffffffffffffff1681526020019081526020015f20541015610d30576040517f08c379a0000000000000000000000000000000000000000000000000000000008152600401610d2790611bb8565b60405180910390fd5b8060075f3373ffffffffffffffffffffffffffffffffffffffff1673ffffffffffffffffffffffffffffffffffffffff1681526020019081526020015f205f828254610d7c9190611968565b925050819055508060095f3373ffffffffffffffffffffffffffffffffffffffff1673ffffffffffffffffffffffffffffffffffffffff1681526020019081526020015f205f828254610dcf9190611a03565b925050819055505f600a5f3373ffffffffffffffffffffffffffffffffffffffff1673ffffffffffffffffffffffffffffffffffffffff1681526020019081526020015f205403610e5d5742600a5f3373ffffffffffffffffffffffffffffffffffffffff1673ffffffffffffffffffffffffffffffffffffffff1681526020019081526020015f20819055505b50565b61271081565b61014f81565b60018054610e79906118a3565b80601f0160208091040260200160405190810160405280929190818152602001828054610ea5906118a3565b8015610ef05780601f10610ec757610100808354040283529160200191610ef0565b820191905f5260205f20905b815481529060010190602001808311610ed357829003601f168201915b505050505081565b5f610f04338484611125565b6001905092915050565b61271081565b5f5f600a5f8473ffffffffffffffffffffffffffffffffffffffff1673ffffffffffffffffffffffffffffffffffffffff1681526020019081526020015f205442610f5f9190611968565b90505f60095f8573ffffffffffffffffffffffffffffffffffffffff1673ffffffffffffffffffffffffffffffffffffffff1681526020019081526020015f205490506301e133808210610fd1576127106101a982610fbe9190611bd6565b610fc89190611c44565b9250505061105f565b62ed4e008210610fff5761271061014f82610fec9190611bd6565b610ff69190611c44565b9250505061105f565b6276a700821061102c5761271060e1826110199190611bd6565b6110239190611c44565b9250505061105f565b62278d008210611059576127106073826110469190611bd6565b6110509190611c44565b9250505061105f565b5f925050505b919050565b5f60085f8473ffffffffffffffffffffffffffffffffffffffff1673ffffffffffffffffffffffffffffffffffffffff1681526020019081526020015f205f8373ffffffffffffffffffffffffffffffffffffffff1673ffffffffffffffffffffffffffffffffffffffff1681526020019081526020015f2054905092915050565b600a602052805f5260405f205f915090505481565b60045f9054906101000a900473ffffffffffffffffffffffffffffffffffffffff1681565b60e181565b8060075f8573ffffffffffffffffffffffffffffffffffffffff1673ffffffffffffffffffffffffffffffffffffffff1681526020019081526020015f205410156111a5576040517f08c379a000000000000000000000000000000000000000000000000000000000815260040161119c90611bb8565b60405180910390fd5b5f61271060c8836111b69190611bd6565b6111c09190611c44565b90505f61271060d7846111d39190611bd6565b6111dd9190611c44565b90505f6127106023856111f09190611bd6565b6111fa9190611c44565b90505f8183858761120b9190611968565b6112159190611968565b61121f9190611968565b90508460075f8973ffffffffffffffffffffffffffffffffffffffff1673ffffffffffffffffffffffffffffffffffffffff1681526020019081526020015f205f82825461126d9190611968565b925050819055508360075f60055f9054906101000a900473ffffffffffffffffffffffffffffffffffffffff1673ffffffffffffffffffffffffffffffffffffffff1673ffffffffffffffffffffffffffffffffffffffff1681526020019081526020015f205f8282546112e19190611a03565b925050819055508260075f60065f9054906101000a900473ffffffffffffffffffffffffffffffffffffffff1673ffffffffffffffffffffffffffffffffffffffff1673ffffffffffffffffffffffffffffffffffffffff1681526020019081526020015f205f8282546113559190611a03565b925050819055508160035f82825461136d9190611968565b925050819055508060075f8873ffffffffffffffffffffffffffffffffffffffff1673ffffffffffffffffffffffffffffffffffffffff1681526020019081526020015f205f8282546113c09190611a03565b9250508190555060055f9054906101000a900473ffffffffffffffffffffffffffffffffffffffff1673ffffffffffffffffffffffffffffffffffffffff168773ffffffffffffffffffffffffffffffffffffffff167fddf252ad1be2c89b69c2b068fc378daa952ba7f163c4a11628f55a4df523b3ef866040516114459190611745565b60405180910390a360065f9054906101000a900473ffffffffffffffffffffffffffffffffffffffff1673ffffffffffffffffffffffffffffffffffffffff168773ffffffffffffffffffffffffffffffffffffffff167fddf252ad1be2c89b69c2b068fc378daa952ba7f163c4a11628f55a4df523b3ef856040516114cb9190611745565b60405180910390a38573ffffffffffffffffffffffffffffffffffffffff168773ffffffffffffffffffffffffffffffffffffffff167fddf252ad1be2c89b69c2b068fc378daa952ba7f163c4a11628f55a4df523b3ef836040516115309190611745565b60405180910390a37f312c5308f42848705a866c73dec11fd0783c2d64aac6a97e94467062ad3f405884848460405161156b93929190611c74565b60405180910390a150505050505050565b5f73ffffffffffffffffffffffffffffffffffffffff82169050919050565b5f6115a58261157c565b9050919050565b6115b58161159b565b82525050565b5f6020820190506115ce5f8301846115ac565b92915050565b5f81519050919050565b5f82825260208201905092915050565b8281835e5f83830152505050565b5f601f19601f8301169050919050565b5f611616826115d4565b61162081856115de565b93506116308185602086016115ee565b611639816115fc565b840191505092915050565b5f6020820190508181035f83015261165c818461160c565b905092915050565b5f5ffd5b6116718161159b565b811461167b575f5ffd5b50565b5f8135905061168c81611668565b92915050565b5f819050919050565b6116a481611692565b81146116ae575f5ffd5b50565b5f813590506116bf8161169b565b92915050565b5f5f604083850312156116db576116da611664565b5b5f6116e88582860161167e565b92505060206116f9858286016116b1565b9150509250929050565b5f8115159050919050565b61171781611703565b82525050565b5f6020820190506117305f83018461170e565b92915050565b61173f81611692565b82525050565b5f6020820190506117585f830184611736565b92915050565b5f5f5f6060848603121561177557611774611664565b5b5f6117828682870161167e565b93505060206117938682870161167e565b92505060406117a4868287016116b1565b9150509250925092565b5f602082840312156117c3576117c2611664565b5b5f6117d08482850161167e565b91505092915050565b5f60ff82169050919050565b6117ee816117d9565b82525050565b5f6020820190506118075f8301846117e5565b92915050565b5f5f6040838503121561182357611822611664565b5b5f6118308582860161167e565b92505060206118418582860161167e565b9150509250929050565b5f602082840312156118605761185f611664565b5b5f61186d848285016116b1565b91505092915050565b7f4e487b71000000000000000000000000000000000000000000000000000000005f52602260045260245ffd5b5f60028204905060018216806118ba57607f821691505b6020821081036118cd576118cc611876565b5b50919050565b7f416c6c6f77616e636520657863656564656400000000000000000000000000005f82015250565b5f6119076012836115de565b9150611912826118d3565b602082019050919050565b5f6020820190508181035f830152611934816118fb565b9050919050565b7f4e487b71000000000000000000000000000000000000000000000000000000005f52601160045260245ffd5b5f61197282611692565b915061197d83611692565b92508282039050818111156119955761199461193b565b5b92915050565b7f4e6f207265776172647320617661696c61626c650000000000000000000000005f82015250565b5f6119cf6014836115de565b91506119da8261199b565b602082019050919050565b5f6020820190508181035f8301526119fc816119c3565b9050919050565b5f611a0d82611692565b9150611a1883611692565b9250828201905080821115611a3057611a2f61193b565b5b92915050565b7f43616e6e6f7420756e7374616b65203020746f6b656e730000000000000000005f82015250565b5f611a6a6017836115de565b9150611a7582611a36565b602082019050919050565b5f6020820190508181035f830152611a9781611a5e565b9050919050565b7f4e6f7420656e6f756768207374616b65642062616c616e6365000000000000005f82015250565b5f611ad26019836115de565b9150611add82611a9e565b602082019050919050565b5f6020820190508181035f830152611aff81611ac6565b9050919050565b7f43616e6e6f74207374616b65203020746f6b656e7300000000000000000000005f82015250565b5f611b3a6015836115de565b9150611b4582611b06565b602082019050919050565b5f6020820190508181035f830152611b6781611b2e565b9050919050565b7f496e73756666696369656e742062616c616e63650000000000000000000000005f82015250565b5f611ba26014836115de565b9150611bad82611b6e565b602082019050919050565b5f6020820190508181035f830152611bcf81611b96565b9050919050565b5f611be082611692565b9150611beb83611692565b9250828202611bf981611692565b91508282048414831517611c1057611c0f61193b565b5b5092915050565b7f4e487b71000000000000000000000000000000000000000000000000000000005f52601260045260245ffd5b5f611c4e82611692565b9150611c5983611692565b925082611c6957611c68611c17565b5b828204905092915050565b5f606082019050611c875f830186611736565b611c946020830185611736565b611ca16040830184611736565b94935050505056fea26469706673582212206482d8809ff976d08111eb5c71e9cd68826599e4451afe55b01954fd376830d064736f6c634300081c0033",
					"opcodes": "PUSH1 0x80 PUSH1 0x40 MSTORE PUSH1 0x40 MLOAD DUP1 PUSH1 0x40 ADD PUSH1 0x40 MSTORE DUP1 PUSH1 0xA DUP2 MSTORE PUSH1 0x20 ADD PUSH32 0x476F747461204265797400000000000000000000000000000000000000000000 DUP2 MSTORE POP PUSH0 SWAP1 DUP2 PUSH2 0x47 SWAP2 SWAP1 PUSH2 0x4FF JUMP JUMPDEST POP PUSH1 0x40 MLOAD DUP1 PUSH1 0x40 ADD PUSH1 0x40 MSTORE DUP1 PUSH1 0x5 DUP2 MSTORE PUSH1 0x20 ADD PUSH32 0x4742455459000000000000000000000000000000000000000000000000000000 DUP2 MSTORE POP PUSH1 0x1 SWAP1 DUP2 PUSH2 0x8C SWAP2 SWAP1 PUSH2 0x4FF JUMP JUMPDEST POP PUSH1 0x6 PUSH1 0x2 PUSH0 PUSH2 0x100 EXP DUP2 SLOAD DUP2 PUSH1 0xFF MUL NOT AND SWAP1 DUP4 PUSH1 0xFF AND MUL OR SWAP1 SSTORE POP CALLVALUE DUP1 ISZERO PUSH2 0xB3 JUMPI PUSH0 PUSH0 REVERT JUMPDEST POP PUSH1 0x40 MLOAD PUSH2 0x2472 CODESIZE SUB DUP1 PUSH2 0x2472 DUP4 CODECOPY DUP2 DUP2 ADD PUSH1 0x40 MSTORE DUP2 ADD SWAP1 PUSH2 0xD5 SWAP2 SWAP1 PUSH2 0x656 JUMP JUMPDEST PUSH0 PUSH20 0xFFFFFFFFFFFFFFFFFFFFFFFFFFFFFFFFFFFFFFFF AND DUP3 PUSH20 0xFFFFFFFFFFFFFFFFFFFFFFFFFFFFFFFFFFFFFFFF AND SUB PUSH2 0x143 JUMPI PUSH1 0x40 MLOAD PUSH32 0x8C379A000000000000000000000000000000000000000000000000000000000 DUP2 MSTORE PUSH1 0x4 ADD PUSH2 0x13A SWAP1 PUSH2 0x700 JUMP JUMPDEST PUSH1 0x40 MLOAD DUP1 SWAP2 SUB SWAP1 REVERT JUMPDEST PUSH0 PUSH20 0xFFFFFFFFFFFFFFFFFFFFFFFFFFFFFFFFFFFFFFFF AND DUP2 PUSH20 0xFFFFFFFFFFFFFFFFFFFFFFFFFFFFFFFFFFFFFFFF AND SUB PUSH2 0x1B1 JUMPI PUSH1 0x40 MLOAD PUSH32 0x8C379A000000000000000000000000000000000000000000000000000000000 DUP2 MSTORE PUSH1 0x4 ADD PUSH2 0x1A8 SWAP1 PUSH2 0x768 JUMP JUMPDEST PUSH1 0x40 MLOAD DUP1 SWAP2 SUB SWAP1 REVERT JUMPDEST CALLER PUSH1 0x4 PUSH0 PUSH2 0x100 EXP DUP2 SLOAD DUP2 PUSH20 0xFFFFFFFFFFFFFFFFFFFFFFFFFFFFFFFFFFFFFFFF MUL NOT AND SWAP1 DUP4 PUSH20 0xFFFFFFFFFFFFFFFFFFFFFFFFFFFFFFFFFFFFFFFF AND MUL OR SWAP1 SSTORE POP DUP2 PUSH1 0x5 PUSH0 PUSH2 0x100 EXP DUP2 SLOAD DUP2 PUSH20 0xFFFFFFFFFFFFFFFFFFFFFFFFFFFFFFFFFFFFFFFF MUL NOT AND SWAP1 DUP4 PUSH20 0xFFFFFFFFFFFFFFFFFFFFFFFFFFFFFFFFFFFFFFFF AND MUL OR SWAP1 SSTORE POP DUP1 PUSH1 0x6 PUSH0 PUSH2 0x100 EXP DUP2 SLOAD DUP2 PUSH20 0xFFFFFFFFFFFFFFFFFFFFFFFFFFFFFFFFFFFFFFFF MUL NOT AND SWAP1 DUP4 PUSH20 0xFFFFFFFFFFFFFFFFFFFFFFFFFFFFFFFFFFFFFFFF AND MUL OR SWAP1 SSTORE POP DUP3 PUSH1 0x3 DUP2 SWAP1 SSTORE POP DUP3 PUSH1 0x7 PUSH0 CALLER PUSH20 0xFFFFFFFFFFFFFFFFFFFFFFFFFFFFFFFFFFFFFFFF AND PUSH20 0xFFFFFFFFFFFFFFFFFFFFFFFFFFFFFFFFFFFFFFFF AND DUP2 MSTORE PUSH1 0x20 ADD SWAP1 DUP2 MSTORE PUSH1 0x20 ADD PUSH0 KECCAK256 DUP2 SWAP1 SSTORE POP POP POP POP PUSH2 0x786 JUMP JUMPDEST PUSH0 DUP2 MLOAD SWAP1 POP SWAP2 SWAP1 POP JUMP JUMPDEST PUSH32 0x4E487B7100000000000000000000000000000000000000000000000000000000 PUSH0 MSTORE PUSH1 0x41 PUSH1 0x4 MSTORE PUSH1 0x24 PUSH0 REVERT JUMPDEST PUSH32 0x4E487B7100000000000000000000000000000000000000000000000000000000 PUSH0 MSTORE PUSH1 0x22 PUSH1 0x4 MSTORE PUSH1 0x24 PUSH0 REVERT JUMPDEST PUSH0 PUSH1 0x2 DUP3 DIV SWAP1 POP PUSH1 0x1 DUP3 AND DUP1 PUSH2 0x33D JUMPI PUSH1 0x7F DUP3 AND SWAP2 POP JUMPDEST PUSH1 0x20 DUP3 LT DUP2 SUB PUSH2 0x350 JUMPI PUSH2 0x34F PUSH2 0x2F9 JUMP JUMPDEST JUMPDEST POP SWAP2 SWAP1 POP JUMP JUMPDEST PUSH0 DUP2 SWAP1 POP DUP2 PUSH0 MSTORE PUSH1 0x20 PUSH0 KECCAK256 SWAP1 POP SWAP2 SWAP1 POP JUMP JUMPDEST PUSH0 PUSH1 0x20 PUSH1 0x1F DUP4 ADD DIV SWAP1 POP SWAP2 SWAP1 POP JUMP JUMPDEST PUSH0 DUP3 DUP3 SHL SWAP1 POP SWAP3 SWAP2 POP POP JUMP JUMPDEST PUSH0 PUSH1 0x8 DUP4 MUL PUSH2 0x3B2 PUSH32 0xFFFFFFFFFFFFFFFFFFFFFFFFFFFFFFFFFFFFFFFFFFFFFFFFFFFFFFFFFFFFFFFF DUP3 PUSH2 0x377 JUMP JUMPDEST PUSH2 0x3BC DUP7 DUP4 PUSH2 0x377 JUMP JUMPDEST SWAP6 POP DUP1 NOT DUP5 AND SWAP4 POP DUP1 DUP7 AND DUP5 OR SWAP3 POP POP POP SWAP4 SWAP3 POP POP POP JUMP JUMPDEST PUSH0 DUP2 SWAP1 POP SWAP2 SWAP1 POP JUMP JUMPDEST PUSH0 DUP2 SWAP1 POP SWAP2 SWAP1 POP JUMP JUMPDEST PUSH0 PUSH2 0x400 PUSH2 0x3FB PUSH2 0x3F6 DUP5 PUSH2 0x3D4 JUMP JUMPDEST PUSH2 0x3DD JUMP JUMPDEST PUSH2 0x3D4 JUMP JUMPDEST SWAP1 POP SWAP2 SWAP1 POP JUMP JUMPDEST PUSH0 DUP2 SWAP1 POP SWAP2 SWAP1 POP JUMP JUMPDEST PUSH2 0x419 DUP4 PUSH2 0x3E6 JUMP JUMPDEST PUSH2 0x42D PUSH2 0x425 DUP3 PUSH2 0x407 JUMP JUMPDEST DUP5 DUP5 SLOAD PUSH2 0x383 JUMP JUMPDEST DUP3 SSTORE POP POP POP POP JUMP JUMPDEST PUSH0 PUSH0 SWAP1 POP SWAP1 JUMP JUMPDEST PUSH2 0x444 PUSH2 0x435 JUMP JUMPDEST PUSH2 0x44F DUP2 DUP5 DUP5 PUSH2 0x410 JUMP JUMPDEST POP POP POP JUMP JUMPDEST JUMPDEST DUP2 DUP2 LT ISZERO PUSH2 0x472 JUMPI PUSH2 0x467 PUSH0 DUP3 PUSH2 0x43C JUMP JUMPDEST PUSH1 0x1 DUP2 ADD SWAP1 POP PUSH2 0x455 JUMP JUMPDEST POP POP JUMP JUMPDEST PUSH1 0x1F DUP3 GT ISZERO PUSH2 0x4B7 JUMPI PUSH2 0x488 DUP2 PUSH2 0x356 JUMP JUMPDEST PUSH2 0x491 DUP5 PUSH2 0x368 JUMP JUMPDEST DUP2 ADD PUSH1 0x20 DUP6 LT ISZERO PUSH2 0x4A0 JUMPI DUP2 SWAP1 POP JUMPDEST PUSH2 0x4B4 PUSH2 0x4AC DUP6 PUSH2 0x368 JUMP JUMPDEST DUP4 ADD DUP3 PUSH2 0x454 JUMP JUMPDEST POP POP JUMPDEST POP POP POP JUMP JUMPDEST PUSH0 DUP3 DUP3 SHR SWAP1 POP SWAP3 SWAP2 POP POP JUMP JUMPDEST PUSH0 PUSH2 0x4D7 PUSH0 NOT DUP5 PUSH1 0x8 MUL PUSH2 0x4BC JUMP JUMPDEST NOT DUP1 DUP4 AND SWAP2 POP POP SWAP3 SWAP2 POP POP JUMP JUMPDEST PUSH0 PUSH2 0x4EF DUP4 DUP4 PUSH2 0x4C8 JUMP JUMPDEST SWAP2 POP DUP3 PUSH1 0x2 MUL DUP3 OR SWAP1 POP SWAP3 SWAP2 POP POP JUMP JUMPDEST PUSH2 0x508 DUP3 PUSH2 0x2C2 JUMP JUMPDEST PUSH8 0xFFFFFFFFFFFFFFFF DUP2 GT ISZERO PUSH2 0x521 JUMPI PUSH2 0x520 PUSH2 0x2CC JUMP JUMPDEST JUMPDEST PUSH2 0x52B DUP3 SLOAD PUSH2 0x326 JUMP JUMPDEST PUSH2 0x536 DUP3 DUP3 DUP6 PUSH2 0x476 JUMP JUMPDEST PUSH0 PUSH1 0x20 SWAP1 POP PUSH1 0x1F DUP4 GT PUSH1 0x1 DUP2 EQ PUSH2 0x567 JUMPI PUSH0 DUP5 ISZERO PUSH2 0x555 JUMPI DUP3 DUP8 ADD MLOAD SWAP1 POP JUMPDEST PUSH2 0x55F DUP6 DUP3 PUSH2 0x4E4 JUMP JUMPDEST DUP7 SSTORE POP PUSH2 0x5C6 JUMP JUMPDEST PUSH1 0x1F NOT DUP5 AND PUSH2 0x575 DUP7 PUSH2 0x356 JUMP JUMPDEST PUSH0 JUMPDEST DUP3 DUP2 LT ISZERO PUSH2 0x59C JUMPI DUP5 DUP10 ADD MLOAD DUP3 SSTORE PUSH1 0x1 DUP3 ADD SWAP2 POP PUSH1 0x20 DUP6 ADD SWAP5 POP PUSH1 0x20 DUP2 ADD SWAP1 POP PUSH2 0x577 JUMP JUMPDEST DUP7 DUP4 LT ISZERO PUSH2 0x5B9 JUMPI DUP5 DUP10 ADD MLOAD PUSH2 0x5B5 PUSH1 0x1F DUP10 AND DUP3 PUSH2 0x4C8 JUMP JUMPDEST DUP4 SSTORE POP JUMPDEST PUSH1 0x1 PUSH1 0x2 DUP9 MUL ADD DUP9 SSTORE POP POP POP JUMPDEST POP POP POP POP POP POP JUMP JUMPDEST PUSH0 PUSH0 REVERT JUMPDEST PUSH2 0x5DB DUP2 PUSH2 0x3D4 JUMP JUMPDEST DUP2 EQ PUSH2 0x5E5 JUMPI PUSH0 PUSH0 REVERT JUMPDEST POP JUMP JUMPDEST PUSH0 DUP2 MLOAD SWAP1 POP PUSH2 0x5F6 DUP2 PUSH2 0x5D2 JUMP JUMPDEST SWAP3 SWAP2 POP POP JUMP JUMPDEST PUSH0 PUSH20 0xFFFFFFFFFFFFFFFFFFFFFFFFFFFFFFFFFFFFFFFF DUP3 AND SWAP1 POP SWAP2 SWAP1 POP JUMP JUMPDEST PUSH0 PUSH2 0x625 DUP3 PUSH2 0x5FC JUMP JUMPDEST SWAP1 POP SWAP2 SWAP1 POP JUMP JUMPDEST PUSH2 0x635 DUP2 PUSH2 0x61B JUMP JUMPDEST DUP2 EQ PUSH2 0x63F JUMPI PUSH0 PUSH0 REVERT JUMPDEST POP JUMP JUMPDEST PUSH0 DUP2 MLOAD SWAP1 POP PUSH2 0x650 DUP2 PUSH2 0x62C JUMP JUMPDEST SWAP3 SWAP2 POP POP JUMP JUMPDEST PUSH0 PUSH0 PUSH0 PUSH1 0x60 DUP5 DUP7 SUB SLT ISZERO PUSH2 0x66D JUMPI PUSH2 0x66C PUSH2 0x5CE JUMP JUMPDEST JUMPDEST PUSH0 PUSH2 0x67A DUP7 DUP3 DUP8 ADD PUSH2 0x5E8 JUMP JUMPDEST SWAP4 POP POP PUSH1 0x20 PUSH2 0x68B DUP7 DUP3 DUP8 ADD PUSH2 0x642 JUMP JUMPDEST SWAP3 POP POP PUSH1 0x40 PUSH2 0x69C DUP7 DUP3 DUP8 ADD PUSH2 0x642 JUMP JUMPDEST SWAP2 POP POP SWAP3 POP SWAP3 POP SWAP3 JUMP JUMPDEST PUSH0 DUP3 DUP3 MSTORE PUSH1 0x20 DUP3 ADD SWAP1 POP SWAP3 SWAP2 POP POP JUMP JUMPDEST PUSH32 0x496E76616C6964206C697175696469747920706F6F6C20616464726573730000 PUSH0 DUP3 ADD MSTORE POP JUMP JUMPDEST PUSH0 PUSH2 0x6EA PUSH1 0x1E DUP4 PUSH2 0x6A6 JUMP JUMPDEST SWAP2 POP PUSH2 0x6F5 DUP3 PUSH2 0x6B6 JUMP JUMPDEST PUSH1 0x20 DUP3 ADD SWAP1 POP SWAP2 SWAP1 POP JUMP JUMPDEST PUSH0 PUSH1 0x20 DUP3 ADD SWAP1 POP DUP2 DUP2 SUB PUSH0 DUP4 ADD MSTORE PUSH2 0x717 DUP2 PUSH2 0x6DE JUMP JUMPDEST SWAP1 POP SWAP2 SWAP1 POP JUMP JUMPDEST PUSH32 0x496E76616C696420617574686F726974792077616C6C65742061646472657373 PUSH0 DUP3 ADD MSTORE POP JUMP JUMPDEST PUSH0 PUSH2 0x752 PUSH1 0x20 DUP4 PUSH2 0x6A6 JUMP JUMPDEST SWAP2 POP PUSH2 0x75D DUP3 PUSH2 0x71E JUMP JUMPDEST PUSH1 0x20 DUP3 ADD SWAP1 POP SWAP2 SWAP1 POP JUMP JUMPDEST PUSH0 PUSH1 0x20 DUP3 ADD SWAP1 POP DUP2 DUP2 SUB PUSH0 DUP4 ADD MSTORE PUSH2 0x77F DUP2 PUSH2 0x746 JUMP JUMPDEST SWAP1 POP SWAP2 SWAP1 POP JUMP JUMPDEST PUSH2 0x1CDF DUP1 PUSH2 0x793 PUSH0 CODECOPY PUSH0 RETURN INVALID PUSH1 0x80 PUSH1 0x40 MSTORE CALLVALUE DUP1 ISZERO PUSH2 0xF JUMPI PUSH0 PUSH0 REVERT JUMPDEST POP PUSH1 0x4 CALLDATASIZE LT PUSH2 0x1CD JUMPI PUSH0 CALLDATALOAD PUSH1 0xE0 SHR DUP1 PUSH4 0x608E4DD0 GT PUSH2 0x102 JUMPI DUP1 PUSH4 0x95D89B41 GT PUSH2 0xA0 JUMPI DUP1 PUSH4 0xDD62ED3E GT PUSH2 0x6F JUMPI DUP1 PUSH4 0xDD62ED3E EQ PUSH2 0x537 JUMPI DUP1 PUSH4 0xF3F91FA0 EQ PUSH2 0x567 JUMPI DUP1 PUSH4 0xFE71264E EQ PUSH2 0x597 JUMPI DUP1 PUSH4 0xFEFCB3A9 EQ PUSH2 0x5B5 JUMPI PUSH2 0x1CD JUMP JUMPDEST DUP1 PUSH4 0x95D89B41 EQ PUSH2 0x49B JUMPI DUP1 PUSH4 0xA9059CBB EQ PUSH2 0x4B9 JUMPI DUP1 PUSH4 0xD73792A9 EQ PUSH2 0x4E9 JUMPI DUP1 PUSH4 0xD82E3962 EQ PUSH2 0x507 JUMPI PUSH2 0x1CD JUMP JUMPDEST DUP1 PUSH4 0x70A08231 GT PUSH2 0xDC JUMPI DUP1 PUSH4 0x70A08231 EQ PUSH2 0x413 JUMPI DUP1 PUSH4 0x7547C7A3 EQ PUSH2 0x443 JUMPI DUP1 PUSH4 0x819A9398 EQ PUSH2 0x45F JUMPI DUP1 PUSH4 0x951F894B EQ PUSH2 0x47D JUMPI PUSH2 0x1CD JUMP JUMPDEST DUP1 PUSH4 0x608E4DD0 EQ PUSH2 0x3A9 JUMPI DUP1 PUSH4 0x61B8B5DC EQ PUSH2 0x3C5 JUMPI DUP1 PUSH4 0x665A11CA EQ PUSH2 0x3F5 JUMPI PUSH2 0x1CD JUMP JUMPDEST DUP1 PUSH4 0x372500AB GT PUSH2 0x16F JUMPI DUP1 PUSH4 0x58F442D2 GT PUSH2 0x149 JUMPI DUP1 PUSH4 0x58F442D2 EQ PUSH2 0x331 JUMPI DUP1 PUSH4 0x5D025358 EQ PUSH2 0x34F JUMPI DUP1 PUSH4 0x5E3F2727 EQ PUSH2 0x36D JUMPI DUP1 PUSH4 0x604453ED EQ PUSH2 0x38B JUMPI PUSH2 0x1CD JUMP JUMPDEST DUP1 PUSH4 0x372500AB EQ PUSH2 0x2D9 JUMPI DUP1 PUSH4 0x480DF058 EQ PUSH2 0x2E3 JUMPI DUP1 PUSH4 0x55B6ED5C EQ PUSH2 0x301 JUMPI PUSH2 0x1CD JUMP JUMPDEST DUP1 PUSH4 0x18160DDD GT PUSH2 0x1AB JUMPI DUP1 PUSH4 0x18160DDD EQ PUSH2 0x23D JUMPI DUP1 PUSH4 0x23B872DD EQ PUSH2 0x25B JUMPI DUP1 PUSH4 0x27E235E3 EQ PUSH2 0x28B JUMPI DUP1 PUSH4 0x313CE567 EQ PUSH2 0x2BB JUMPI PUSH2 0x1CD JUMP JUMPDEST DUP1 PUSH4 0x361DFB7 EQ PUSH2 0x1D1 JUMPI DUP1 PUSH4 0x6FDDE03 EQ PUSH2 0x1EF JUMPI DUP1 PUSH4 0x95EA7B3 EQ PUSH2 0x20D JUMPI JUMPDEST PUSH0 PUSH0 REVERT JUMPDEST PUSH2 0x1D9 PUSH2 0x5D3 JUMP JUMPDEST PUSH1 0x40 MLOAD PUSH2 0x1E6 SWAP2 SWAP1 PUSH2 0x15BB JUMP JUMPDEST PUSH1 0x40 MLOAD DUP1 SWAP2 SUB SWAP1 RETURN JUMPDEST PUSH2 0x1F7 PUSH2 0x5F8 JUMP JUMPDEST PUSH1 0x40 MLOAD PUSH2 0x204 SWAP2 SWAP1 PUSH2 0x1644 JUMP JUMPDEST PUSH1 0x40 MLOAD DUP1 SWAP2 SUB SWAP1 RETURN JUMPDEST PUSH2 0x227 PUSH1 0x4 DUP1 CALLDATASIZE SUB DUP2 ADD SWAP1 PUSH2 0x222 SWAP2 SWAP1 PUSH2 0x16C5 JUMP JUMPDEST PUSH2 0x683 JUMP JUMPDEST PUSH1 0x40 MLOAD PUSH2 0x234 SWAP2 SWAP1 PUSH2 0x171D JUMP JUMPDEST PUSH1 0x40 MLOAD DUP1 SWAP2 SUB SWAP1 RETURN JUMPDEST PUSH2 0x245 PUSH2 0x770 JUMP JUMPDEST PUSH1 0x40 MLOAD PUSH2 0x252 SWAP2 SWAP1 PUSH2 0x1745 JUMP JUMPDEST PUSH1 0x40 MLOAD DUP1 SWAP2 SUB SWAP1 RETURN JUMPDEST PUSH2 0x275 PUSH1 0x4 DUP1 CALLDATASIZE SUB DUP2 ADD SWAP1 PUSH2 0x270 SWAP2 SWAP1 PUSH2 0x175E JUMP JUMPDEST PUSH2 0x776 JUMP JUMPDEST PUSH1 0x40 MLOAD PUSH2 0x282 SWAP2 SWAP1 PUSH2 0x171D JUMP JUMPDEST PUSH1 0x40 MLOAD DUP1 SWAP2 SUB SWAP1 RETURN JUMPDEST PUSH2 0x2A5 PUSH1 0x4 DUP1 CALLDATASIZE SUB DUP2 ADD SWAP1 PUSH2 0x2A0 SWAP2 SWAP1 PUSH2 0x17AE JUMP JUMPDEST PUSH2 0x8D6 JUMP JUMPDEST PUSH1 0x40 MLOAD PUSH2 0x2B2 SWAP2 SWAP1 PUSH2 0x1745 JUMP JUMPDEST PUSH1 0x40 MLOAD DUP1 SWAP2 SUB SWAP1 RETURN JUMPDEST PUSH2 0x2C3 PUSH2 0x8EB JUMP JUMPDEST PUSH1 0x40 MLOAD PUSH2 0x2D0 SWAP2 SWAP1 PUSH2 0x17F4 JUMP JUMPDEST PUSH1 0x40 MLOAD DUP1 SWAP2 SUB SWAP1 RETURN JUMPDEST PUSH2 0x2E1 PUSH2 0x8FD JUMP JUMPDEST STOP JUMPDEST PUSH2 0x2EB PUSH2 0xA49 JUMP JUMPDEST PUSH1 0x40 MLOAD PUSH2 0x2F8 SWAP2 SWAP1 PUSH2 0x1745 JUMP JUMPDEST PUSH1 0x40 MLOAD DUP1 SWAP2 SUB SWAP1 RETURN JUMPDEST PUSH2 0x31B PUSH1 0x4 DUP1 CALLDATASIZE SUB DUP2 ADD SWAP1 PUSH2 0x316 SWAP2 SWAP1 PUSH2 0x180D JUMP JUMPDEST PUSH2 0xA4E JUMP JUMPDEST PUSH1 0x40 MLOAD PUSH2 0x328 SWAP2 SWAP1 PUSH2 0x1745 JUMP JUMPDEST PUSH1 0x40 MLOAD DUP1 SWAP2 SUB SWAP1 RETURN JUMPDEST PUSH2 0x339 PUSH2 0xA6E JUMP JUMPDEST PUSH1 0x40 MLOAD PUSH2 0x346 SWAP2 SWAP1 PUSH2 0x1745 JUMP JUMPDEST PUSH1 0x40 MLOAD DUP1 SWAP2 SUB SWAP1 RETURN JUMPDEST PUSH2 0x357 PUSH2 0xA74 JUMP JUMPDEST PUSH1 0x40 MLOAD PUSH2 0x364 SWAP2 SWAP1 PUSH2 0x1745 JUMP JUMPDEST PUSH1 0x40 MLOAD DUP1 SWAP2 SUB SWAP1 RETURN JUMPDEST PUSH2 0x375 PUSH2 0xA79 JUMP JUMPDEST PUSH1 0x40 MLOAD PUSH2 0x382 SWAP2 SWAP1 PUSH2 0x1745 JUMP JUMPDEST PUSH1 0x40 MLOAD DUP1 SWAP2 SUB SWAP1 RETURN JUMPDEST PUSH2 0x393 PUSH2 0xA7E JUMP JUMPDEST PUSH1 0x40 MLOAD PUSH2 0x3A0 SWAP2 SWAP1 PUSH2 0x1745 JUMP JUMPDEST PUSH1 0x40 MLOAD DUP1 SWAP2 SUB SWAP1 RETURN JUMPDEST PUSH2 0x3C3 PUSH1 0x4 DUP1 CALLDATASIZE SUB DUP2 ADD SWAP1 PUSH2 0x3BE SWAP2 SWAP1 PUSH2 0x184B JUMP JUMPDEST PUSH2 0xA83 JUMP JUMPDEST STOP JUMPDEST PUSH2 0x3DF PUSH1 0x4 DUP1 CALLDATASIZE SUB DUP2 ADD SWAP1 PUSH2 0x3DA SWAP2 SWAP1 PUSH2 0x17AE JUMP JUMPDEST PUSH2 0xBEE JUMP JUMPDEST PUSH1 0x40 MLOAD PUSH2 0x3EC SWAP2 SWAP1 PUSH2 0x1745 JUMP JUMPDEST PUSH1 0x40 MLOAD DUP1 SWAP2 SUB SWAP1 RETURN JUMPDEST PUSH2 0x3FD PUSH2 0xC03 JUMP JUMPDEST PUSH1 0x40 MLOAD PUSH2 0x40A SWAP2 SWAP1 PUSH2 0x15BB JUMP JUMPDEST PUSH1 0x40 MLOAD DUP1 SWAP2 SUB SWAP1 RETURN JUMPDEST PUSH2 0x42D PUSH1 0x4 DUP1 CALLDATASIZE SUB DUP2 ADD SWAP1 PUSH2 0x428 SWAP2 SWAP1 PUSH2 0x17AE JUMP JUMPDEST PUSH2 0xC28 JUMP JUMPDEST PUSH1 0x40 MLOAD PUSH2 0x43A SWAP2 SWAP1 PUSH2 0x1745 JUMP JUMPDEST PUSH1 0x40 MLOAD DUP1 SWAP2 SUB SWAP1 RETURN JUMPDEST PUSH2 0x45D PUSH1 0x4 DUP1 CALLDATASIZE SUB DUP2 ADD SWAP1 PUSH2 0x458 SWAP2 SWAP1 PUSH2 0x184B JUMP JUMPDEST PUSH2 0xC6E JUMP JUMPDEST STOP JUMPDEST PUSH2 0x467 PUSH2 0xE60 JUMP JUMPDEST PUSH1 0x40 MLOAD PUSH2 0x474 SWAP2 SWAP1 PUSH2 0x1745 JUMP JUMPDEST PUSH1 0x40 MLOAD DUP1 SWAP2 SUB SWAP1 RETURN JUMPDEST PUSH2 0x485 PUSH2 0xE66 JUMP JUMPDEST PUSH1 0x40 MLOAD PUSH2 0x492 SWAP2 SWAP1 PUSH2 0x1745 JUMP JUMPDEST PUSH1 0x40 MLOAD DUP1 SWAP2 SUB SWAP1 RETURN JUMPDEST PUSH2 0x4A3 PUSH2 0xE6C JUMP JUMPDEST PUSH1 0x40 MLOAD PUSH2 0x4B0 SWAP2 SWAP1 PUSH2 0x1644 JUMP JUMPDEST PUSH1 0x40 MLOAD DUP1 SWAP2 SUB SWAP1 RETURN JUMPDEST PUSH2 0x4D3 PUSH1 0x4 DUP1 CALLDATASIZE SUB DUP2 ADD SWAP1 PUSH2 0x4CE SWAP2 SWAP1 PUSH2 0x16C5 JUMP JUMPDEST PUSH2 0xEF8 JUMP JUMPDEST PUSH1 0x40 MLOAD PUSH2 0x4E0 SWAP2 SWAP1 PUSH2 0x171D JUMP JUMPDEST PUSH1 0x40 MLOAD DUP1 SWAP2 SUB SWAP1 RETURN JUMPDEST PUSH2 0x4F1 PUSH2 0xF0E JUMP JUMPDEST PUSH1 0x40 MLOAD PUSH2 0x4FE SWAP2 SWAP1 PUSH2 0x1745 JUMP JUMPDEST PUSH1 0x40 MLOAD DUP1 SWAP2 SUB SWAP1 RETURN JUMPDEST PUSH2 0x521 PUSH1 0x4 DUP1 CALLDATASIZE SUB DUP2 ADD SWAP1 PUSH2 0x51C SWAP2 SWAP1 PUSH2 0x17AE JUMP JUMPDEST PUSH2 0xF14 JUMP JUMPDEST PUSH1 0x40 MLOAD PUSH2 0x52E SWAP2 SWAP1 PUSH2 0x1745 JUMP JUMPDEST PUSH1 0x40 MLOAD DUP1 SWAP2 SUB SWAP1 RETURN JUMPDEST PUSH2 0x551 PUSH1 0x4 DUP1 CALLDATASIZE SUB DUP2 ADD SWAP1 PUSH2 0x54C SWAP2 SWAP1 PUSH2 0x180D JUMP JUMPDEST PUSH2 0x1064 JUMP JUMPDEST PUSH1 0x40 MLOAD PUSH2 0x55E SWAP2 SWAP1 PUSH2 0x1745 JUMP JUMPDEST PUSH1 0x40 MLOAD DUP1 SWAP2 SUB SWAP1 RETURN JUMPDEST PUSH2 0x581 PUSH1 0x4 DUP1 CALLDATASIZE SUB DUP2 ADD SWAP1 PUSH2 0x57C SWAP2 SWAP1 PUSH2 0x17AE JUMP JUMPDEST PUSH2 0x10E6 JUMP JUMPDEST PUSH1 0x40 MLOAD PUSH2 0x58E SWAP2 SWAP1 PUSH2 0x1745 JUMP JUMPDEST PUSH1 0x40 MLOAD DUP1 SWAP2 SUB SWAP1 RETURN JUMPDEST PUSH2 0x59F PUSH2 0x10FB JUMP JUMPDEST PUSH1 0x40 MLOAD PUSH2 0x5AC SWAP2 SWAP1 PUSH2 0x15BB JUMP JUMPDEST PUSH1 0x40 MLOAD DUP1 SWAP2 SUB SWAP1 RETURN JUMPDEST PUSH2 0x5BD PUSH2 0x1120 JUMP JUMPDEST PUSH1 0x40 MLOAD PUSH2 0x5CA SWAP2 SWAP1 PUSH2 0x1745 JUMP JUMPDEST PUSH1 0x40 MLOAD DUP1 SWAP2 SUB SWAP1 RETURN JUMPDEST PUSH1 0x6 PUSH0 SWAP1 SLOAD SWAP1 PUSH2 0x100 EXP SWAP1 DIV PUSH20 0xFFFFFFFFFFFFFFFFFFFFFFFFFFFFFFFFFFFFFFFF AND DUP2 JUMP JUMPDEST PUSH0 DUP1 SLOAD PUSH2 0x604 SWAP1 PUSH2 0x18A3 JUMP JUMPDEST DUP1 PUSH1 0x1F ADD PUSH1 0x20 DUP1 SWAP2 DIV MUL PUSH1 0x20 ADD PUSH1 0x40 MLOAD SWAP1 DUP2 ADD PUSH1 0x40 MSTORE DUP1 SWAP3 SWAP2 SWAP1 DUP2 DUP2 MSTORE PUSH1 0x20 ADD DUP3 DUP1 SLOAD PUSH2 0x630 SWAP1 PUSH2 0x18A3 JUMP JUMPDEST DUP1 ISZERO PUSH2 0x67B JUMPI DUP1 PUSH1 0x1F LT PUSH2 0x652 JUMPI PUSH2 0x100 DUP1 DUP4 SLOAD DIV MUL DUP4 MSTORE SWAP2 PUSH1 0x20 ADD SWAP2 PUSH2 0x67B JUMP JUMPDEST DUP3 ADD SWAP2 SWAP1 PUSH0 MSTORE PUSH1 0x20 PUSH0 KECCAK256 SWAP1 JUMPDEST DUP2 SLOAD DUP2 MSTORE SWAP1 PUSH1 0x1 ADD SWAP1 PUSH1 0x20 ADD DUP1 DUP4 GT PUSH2 0x65E JUMPI DUP3 SWAP1 SUB PUSH1 0x1F AND DUP3 ADD SWAP2 JUMPDEST POP POP POP POP POP DUP2 JUMP JUMPDEST PUSH0 DUP2 PUSH1 0x8 PUSH0 CALLER PUSH20 0xFFFFFFFFFFFFFFFFFFFFFFFFFFFFFFFFFFFFFFFF AND PUSH20 0xFFFFFFFFFFFFFFFFFFFFFFFFFFFFFFFFFFFFFFFF AND DUP2 MSTORE PUSH1 0x20 ADD SWAP1 DUP2 MSTORE PUSH1 0x20 ADD PUSH0 KECCAK256 PUSH0 DUP6 PUSH20 0xFFFFFFFFFFFFFFFFFFFFFFFFFFFFFFFFFFFFFFFF AND PUSH20 0xFFFFFFFFFFFFFFFFFFFFFFFFFFFFFFFFFFFFFFFF AND DUP2 MSTORE PUSH1 0x20 ADD SWAP1 DUP2 MSTORE PUSH1 0x20 ADD PUSH0 KECCAK256 DUP2 SWAP1 SSTORE POP DUP3 PUSH20 0xFFFFFFFFFFFFFFFFFFFFFFFFFFFFFFFFFFFFFFFF AND CALLER PUSH20 0xFFFFFFFFFFFFFFFFFFFFFFFFFFFFFFFFFFFFFFFF AND PUSH32 0x8C5BE1E5EBEC7D5BD14F71427D1E84F3DD0314C0F7B2291E5B200AC8C7C3B925 DUP5 PUSH1 0x40 MLOAD PUSH2 0x75E SWAP2 SWAP1 PUSH2 0x1745 JUMP JUMPDEST PUSH1 0x40 MLOAD DUP1 SWAP2 SUB SWAP1 LOG3 PUSH1 0x1 SWAP1 POP SWAP3 SWAP2 POP POP JUMP JUMPDEST PUSH1 0x3 SLOAD DUP2 JUMP JUMPDEST PUSH0 DUP2 PUSH1 0x8 PUSH0 DUP7 PUSH20 0xFFFFFFFFFFFFFFFFFFFFFFFFFFFFFFFFFFFFFFFF AND PUSH20 0xFFFFFFFFFFFFFFFFFFFFFFFFFFFFFFFFFFFFFFFF AND DUP2 MSTORE PUSH1 0x20 ADD SWAP1 DUP2 MSTORE PUSH1 0x20 ADD PUSH0 KECCAK256 PUSH0 CALLER PUSH20 0xFFFFFFFFFFFFFFFFFFFFFFFFFFFFFFFFFFFFFFFF AND PUSH20 0xFFFFFFFFFFFFFFFFFFFFFFFFFFFFFFFFFFFFFFFF AND DUP2 MSTORE PUSH1 0x20 ADD SWAP1 DUP2 MSTORE PUSH1 0x20 ADD PUSH0 KECCAK256 SLOAD LT ISZERO PUSH2 0x832 JUMPI PUSH1 0x40 MLOAD PUSH32 0x8C379A000000000000000000000000000000000000000000000000000000000 DUP2 MSTORE PUSH1 0x4 ADD PUSH2 0x829 SWAP1 PUSH2 0x191D JUMP JUMPDEST PUSH1 0x40 MLOAD DUP1 SWAP2 SUB SWAP1 REVERT JUMPDEST DUP2 PUSH1 0x8 PUSH0 DUP7 PUSH20 0xFFFFFFFFFFFFFFFFFFFFFFFFFFFFFFFFFFFFFFFF AND PUSH20 0xFFFFFFFFFFFFFFFFFFFFFFFFFFFFFFFFFFFFFFFF AND DUP2 MSTORE PUSH1 0x20 ADD SWAP1 DUP2 MSTORE PUSH1 0x20 ADD PUSH0 KECCAK256 PUSH0 CALLER PUSH20 0xFFFFFFFFFFFFFFFFFFFFFFFFFFFFFFFFFFFFFFFF AND PUSH20 0xFFFFFFFFFFFFFFFFFFFFFFFFFFFFFFFFFFFFFFFF AND DUP2 MSTORE PUSH1 0x20 ADD SWAP1 DUP2 MSTORE PUSH1 0x20 ADD PUSH0 KECCAK256 PUSH0 DUP3 DUP3 SLOAD PUSH2 0x8B9 SWAP2 SWAP1 PUSH2 0x1968 JUMP JUMPDEST SWAP3 POP POP DUP2 SWAP1 SSTORE POP PUSH2 0x8CB DUP5 DUP5 DUP5 PUSH2 0x1125 JUMP JUMPDEST PUSH1 0x1 SWAP1 POP SWAP4 SWAP3 POP POP POP JUMP JUMPDEST PUSH1 0x7 PUSH1 0x20 MSTORE DUP1 PUSH0 MSTORE PUSH1 0x40 PUSH0 KECCAK256 PUSH0 SWAP2 POP SWAP1 POP SLOAD DUP2 JUMP JUMPDEST PUSH1 0x2 PUSH0 SWAP1 SLOAD SWAP1 PUSH2 0x100 EXP SWAP1 DIV PUSH1 0xFF AND DUP2 JUMP JUMPDEST PUSH0 PUSH2 0x907 CALLER PUSH2 0xF14 JUMP JUMPDEST SWAP1 POP PUSH0 DUP2 GT PUSH2 0x94B JUMPI PUSH1 0x40 MLOAD PUSH32 0x8C379A000000000000000000000000000000000000000000000000000000000 DUP2 MSTORE PUSH1 0x4 ADD PUSH2 0x942 SWAP1 PUSH2 0x19E5 JUMP JUMPDEST PUSH1 0x40 MLOAD DUP1 SWAP2 SUB SWAP1 REVERT JUMPDEST DUP1 PUSH1 0x7 PUSH0 CALLER PUSH20 0xFFFFFFFFFFFFFFFFFFFFFFFFFFFFFFFFFFFFFFFF AND PUSH20 0xFFFFFFFFFFFFFFFFFFFFFFFFFFFFFFFFFFFFFFFF AND DUP2 MSTORE PUSH1 0x20 ADD SWAP1 DUP2 MSTORE PUSH1 0x20 ADD PUSH0 KECCAK256 PUSH0 DUP3 DUP3 SLOAD PUSH2 0x997 SWAP2 SWAP1 PUSH2 0x1A03 JUMP JUMPDEST SWAP3 POP POP DUP2 SWAP1 SSTORE POP DUP1 PUSH1 0x3 PUSH0 DUP3 DUP3 SLOAD PUSH2 0x9AF SWAP2 SWAP1 PUSH2 0x1A03 JUMP JUMPDEST SWAP3 POP POP DUP2 SWAP1 SSTORE POP TIMESTAMP PUSH1 0xA PUSH0 CALLER PUSH20 0xFFFFFFFFFFFFFFFFFFFFFFFFFFFFFFFFFFFFFFFF AND PUSH20 0xFFFFFFFFFFFFFFFFFFFFFFFFFFFFFFFFFFFFFFFF AND DUP2 MSTORE PUSH1 0x20 ADD SWAP1 DUP2 MSTORE PUSH1 0x20 ADD PUSH0 KECCAK256 DUP2 SWAP1 SSTORE POP CALLER PUSH20 0xFFFFFFFFFFFFFFFFFFFFFFFFFFFFFFFFFFFFFFFF AND PUSH32 0xFC30CDDEA38E2BF4D6EA7D3F9ED3B6AD7F176419F4963BD81318067A4AEE73FE DUP3 PUSH1 0x40 MLOAD PUSH2 0xA3E SWAP2 SWAP1 PUSH2 0x1745 JUMP JUMPDEST PUSH1 0x40 MLOAD DUP1 SWAP2 SUB SWAP1 LOG2 POP JUMP JUMPDEST PUSH1 0x23 DUP2 JUMP JUMPDEST PUSH1 0x8 PUSH1 0x20 MSTORE DUP2 PUSH0 MSTORE PUSH1 0x40 PUSH0 KECCAK256 PUSH1 0x20 MSTORE DUP1 PUSH0 MSTORE PUSH1 0x40 PUSH0 KECCAK256 PUSH0 SWAP2 POP SWAP2 POP POP SLOAD DUP2 JUMP JUMPDEST PUSH2 0x1A9 DUP2 JUMP JUMPDEST PUSH1 0xD7 DUP2 JUMP JUMPDEST PUSH1 0xC8 DUP2 JUMP JUMPDEST PUSH1 0x73 DUP2 JUMP JUMPDEST PUSH0 DUP2 GT PUSH2 0xAC5 JUMPI PUSH1 0x40 MLOAD PUSH32 0x8C379A000000000000000000000000000000000000000000000000000000000 DUP2 MSTORE PUSH1 0x4 ADD PUSH2 0xABC SWAP1 PUSH2 0x1A80 JUMP JUMPDEST PUSH1 0x40 MLOAD DUP1 SWAP2 SUB SWAP1 REVERT JUMPDEST DUP1 PUSH1 0x9 PUSH0 CALLER PUSH20 0xFFFFFFFFFFFFFFFFFFFFFFFFFFFFFFFFFFFFFFFF AND PUSH20 0xFFFFFFFFFFFFFFFFFFFFFFFFFFFFFFFFFFFFFFFF AND DUP2 MSTORE PUSH1 0x20 ADD SWAP1 DUP2 MSTORE PUSH1 0x20 ADD PUSH0 KECCAK256 SLOAD LT ISZERO PUSH2 0xB45 JUMPI PUSH1 0x40 MLOAD PUSH32 0x8C379A000000000000000000000000000000000000000000000000000000000 DUP2 MSTORE PUSH1 0x4 ADD PUSH2 0xB3C SWAP1 PUSH2 0x1AE8 JUMP JUMPDEST PUSH1 0x40 MLOAD DUP1 SWAP2 SUB SWAP1 REVERT JUMPDEST DUP1 PUSH1 0x9 PUSH0 CALLER PUSH20 0xFFFFFFFFFFFFFFFFFFFFFFFFFFFFFFFFFFFFFFFF AND PUSH20 0xFFFFFFFFFFFFFFFFFFFFFFFFFFFFFFFFFFFFFFFF AND DUP2 MSTORE PUSH1 0x20 ADD SWAP1 DUP2 MSTORE PUSH1 0x20 ADD PUSH0 KECCAK256 PUSH0 DUP3 DUP3 SLOAD PUSH2 0xB91 SWAP2 SWAP1 PUSH2 0x1968 JUMP JUMPDEST SWAP3 POP POP DUP2 SWAP1 SSTORE POP DUP1 PUSH1 0x7 PUSH0 CALLER PUSH20 0xFFFFFFFFFFFFFFFFFFFFFFFFFFFFFFFFFFFFFFFF AND PUSH20 0xFFFFFFFFFFFFFFFFFFFFFFFFFFFFFFFFFFFFFFFF AND DUP2 MSTORE PUSH1 0x20 ADD SWAP1 DUP2 MSTORE PUSH1 0x20 ADD PUSH0 KECCAK256 PUSH0 DUP3 DUP3 SLOAD PUSH2 0xBE4 SWAP2 SWAP1 PUSH2 0x1A03 JUMP JUMPDEST SWAP3 POP POP DUP2 SWAP1 SSTORE POP POP JUMP JUMPDEST PUSH1 0x9 PUSH1 0x20 MSTORE DUP1 PUSH0 MSTORE PUSH1 0x40 PUSH0 KECCAK256 PUSH0 SWAP2 POP SWAP1 POP SLOAD DUP2 JUMP JUMPDEST PUSH1 0x5 PUSH0 SWAP1 SLOAD SWAP1 PUSH2 0x100 EXP SWAP1 DIV PUSH20 0xFFFFFFFFFFFFFFFFFFFFFFFFFFFFFFFFFFFFFFFF AND DUP2 JUMP JUMPDEST PUSH0 PUSH1 0x7 PUSH0 DUP4 PUSH20 0xFFFFFFFFFFFFFFFFFFFFFFFFFFFFFFFFFFFFFFFF AND PUSH20 0xFFFFFFFFFFFFFFFFFFFFFFFFFFFFFFFFFFFFFFFF AND DUP2 MSTORE PUSH1 0x20 ADD SWAP1 DUP2 MSTORE PUSH1 0x20 ADD PUSH0 KECCAK256 SLOAD SWAP1 POP SWAP2 SWAP1 POP JUMP JUMPDEST PUSH0 DUP2 GT PUSH2 0xCB0 JUMPI PUSH1 0x40 MLOAD PUSH32 0x8C379A000000000000000000000000000000000000000000000000000000000 DUP2 MSTORE PUSH1 0x4 ADD PUSH2 0xCA7 SWAP1 PUSH2 0x1B50 JUMP JUMPDEST PUSH1 0x40 MLOAD DUP1 SWAP2 SUB SWAP1 REVERT JUMPDEST DUP1 PUSH1 0x7 PUSH0 CALLER PUSH20 0xFFFFFFFFFFFFFFFFFFFFFFFFFFFFFFFFFFFFFFFF AND PUSH20 0xFFFFFFFFFFFFFFFFFFFFFFFFFFFFFFFFFFFFFFFF AND DUP2 MSTORE PUSH1 0x20 ADD SWAP1 DUP2 MSTORE PUSH1 0x20 ADD PUSH0 KECCAK256 SLOAD LT ISZERO PUSH2 0xD30 JUMPI PUSH1 0x40 MLOAD PUSH32 0x8C379A000000000000000000000000000000000000000000000000000000000 DUP2 MSTORE PUSH1 0x4 ADD PUSH2 0xD27 SWAP1 PUSH2 0x1BB8 JUMP JUMPDEST PUSH1 0x40 MLOAD DUP1 SWAP2 SUB SWAP1 REVERT JUMPDEST DUP1 PUSH1 0x7 PUSH0 CALLER PUSH20 0xFFFFFFFFFFFFFFFFFFFFFFFFFFFFFFFFFFFFFFFF AND PUSH20 0xFFFFFFFFFFFFFFFFFFFFFFFFFFFFFFFFFFFFFFFF AND DUP2 MSTORE PUSH1 0x20 ADD SWAP1 DUP2 MSTORE PUSH1 0x20 ADD PUSH0 KECCAK256 PUSH0 DUP3 DUP3 SLOAD PUSH2 0xD7C SWAP2 SWAP1 PUSH2 0x1968 JUMP JUMPDEST SWAP3 POP POP DUP2 SWAP1 SSTORE POP DUP1 PUSH1 0x9 PUSH0 CALLER PUSH20 0xFFFFFFFFFFFFFFFFFFFFFFFFFFFFFFFFFFFFFFFF AND PUSH20 0xFFFFFFFFFFFFFFFFFFFFFFFFFFFFFFFFFFFFFFFF AND DUP2 MSTORE PUSH1 0x20 ADD SWAP1 DUP2 MSTORE PUSH1 0x20 ADD PUSH0 KECCAK256 PUSH0 DUP3 DUP3 SLOAD PUSH2 0xDCF SWAP2 SWAP1 PUSH2 0x1A03 JUMP JUMPDEST SWAP3 POP POP DUP2 SWAP1 SSTORE POP PUSH0 PUSH1 0xA PUSH0 CALLER PUSH20 0xFFFFFFFFFFFFFFFFFFFFFFFFFFFFFFFFFFFFFFFF AND PUSH20 0xFFFFFFFFFFFFFFFFFFFFFFFFFFFFFFFFFFFFFFFF AND DUP2 MSTORE PUSH1 0x20 ADD SWAP1 DUP2 MSTORE PUSH1 0x20 ADD PUSH0 KECCAK256 SLOAD SUB PUSH2 0xE5D JUMPI TIMESTAMP PUSH1 0xA PUSH0 CALLER PUSH20 0xFFFFFFFFFFFFFFFFFFFFFFFFFFFFFFFFFFFFFFFF AND PUSH20 0xFFFFFFFFFFFFFFFFFFFFFFFFFFFFFFFFFFFFFFFF AND DUP2 MSTORE PUSH1 0x20 ADD SWAP1 DUP2 MSTORE PUSH1 0x20 ADD PUSH0 KECCAK256 DUP2 SWAP1 SSTORE POP JUMPDEST POP JUMP JUMPDEST PUSH2 0x2710 DUP2 JUMP JUMPDEST PUSH2 0x14F DUP2 JUMP JUMPDEST PUSH1 0x1 DUP1 SLOAD PUSH2 0xE79 SWAP1 PUSH2 0x18A3 JUMP JUMPDEST DUP1 PUSH1 0x1F ADD PUSH1 0x20 DUP1 SWAP2 DIV MUL PUSH1 0x20 ADD PUSH1 0x40 MLOAD SWAP1 DUP2 ADD PUSH1 0x40 MSTORE DUP1 SWAP3 SWAP2 SWAP1 DUP2 DUP2 MSTORE PUSH1 0x20 ADD DUP3 DUP1 SLOAD PUSH2 0xEA5 SWAP1 PUSH2 0x18A3 JUMP JUMPDEST DUP1 ISZERO PUSH2 0xEF0 JUMPI DUP1 PUSH1 0x1F LT PUSH2 0xEC7 JUMPI PUSH2 0x100 DUP1 DUP4 SLOAD DIV MUL DUP4 MSTORE SWAP2 PUSH1 0x20 ADD SWAP2 PUSH2 0xEF0 JUMP JUMPDEST DUP3 ADD SWAP2 SWAP1 PUSH0 MSTORE PUSH1 0x20 PUSH0 KECCAK256 SWAP1 JUMPDEST DUP2 SLOAD DUP2 MSTORE SWAP1 PUSH1 0x1 ADD SWAP1 PUSH1 0x20 ADD DUP1 DUP4 GT PUSH2 0xED3 JUMPI DUP3 SWAP1 SUB PUSH1 0x1F AND DUP3 ADD SWAP2 JUMPDEST POP POP POP POP POP DUP2 JUMP JUMPDEST PUSH0 PUSH2 0xF04 CALLER DUP5 DUP5 PUSH2 0x1125 JUMP JUMPDEST PUSH1 0x1 SWAP1 POP SWAP3 SWAP2 POP POP JUMP JUMPDEST PUSH2 0x2710 DUP2 JUMP JUMPDEST PUSH0 PUSH0 PUSH1 0xA PUSH0 DUP5 PUSH20 0xFFFFFFFFFFFFFFFFFFFFFFFFFFFFFFFFFFFFFFFF AND PUSH20 0xFFFFFFFFFFFFFFFFFFFFFFFFFFFFFFFFFFFFFFFF AND DUP2 MSTORE PUSH1 0x20 ADD SWAP1 DUP2 MSTORE PUSH1 0x20 ADD PUSH0 KECCAK256 SLOAD TIMESTAMP PUSH2 0xF5F SWAP2 SWAP1 PUSH2 0x1968 JUMP JUMPDEST SWAP1 POP PUSH0 PUSH1 0x9 PUSH0 DUP6 PUSH20 0xFFFFFFFFFFFFFFFFFFFFFFFFFFFFFFFFFFFFFFFF AND PUSH20 0xFFFFFFFFFFFFFFFFFFFFFFFFFFFFFFFFFFFFFFFF AND DUP2 MSTORE PUSH1 0x20 ADD SWAP1 DUP2 MSTORE PUSH1 0x20 ADD PUSH0 KECCAK256 SLOAD SWAP1 POP PUSH4 0x1E13380 DUP3 LT PUSH2 0xFD1 JUMPI PUSH2 0x2710 PUSH2 0x1A9 DUP3 PUSH2 0xFBE SWAP2 SWAP1 PUSH2 0x1BD6 JUMP JUMPDEST PUSH2 0xFC8 SWAP2 SWAP1 PUSH2 0x1C44 JUMP JUMPDEST SWAP3 POP POP POP PUSH2 0x105F JUMP JUMPDEST PUSH3 0xED4E00 DUP3 LT PUSH2 0xFFF JUMPI PUSH2 0x2710 PUSH2 0x14F DUP3 PUSH2 0xFEC SWAP2 SWAP1 PUSH2 0x1BD6 JUMP JUMPDEST PUSH2 0xFF6 SWAP2 SWAP1 PUSH2 0x1C44 JUMP JUMPDEST SWAP3 POP POP POP PUSH2 0x105F JUMP JUMPDEST PUSH3 0x76A700 DUP3 LT PUSH2 0x102C JUMPI PUSH2 0x2710 PUSH1 0xE1 DUP3 PUSH2 0x1019 SWAP2 SWAP1 PUSH2 0x1BD6 JUMP JUMPDEST PUSH2 0x1023 SWAP2 SWAP1 PUSH2 0x1C44 JUMP JUMPDEST SWAP3 POP POP POP PUSH2 0x105F JUMP JUMPDEST PUSH3 0x278D00 DUP3 LT PUSH2 0x1059 JUMPI PUSH2 0x2710 PUSH1 0x73 DUP3 PUSH2 0x1046 SWAP2 SWAP1 PUSH2 0x1BD6 JUMP JUMPDEST PUSH2 0x1050 SWAP2 SWAP1 PUSH2 0x1C44 JUMP JUMPDEST SWAP3 POP POP POP PUSH2 0x105F JUMP JUMPDEST PUSH0 SWAP3 POP POP POP JUMPDEST SWAP2 SWAP1 POP JUMP JUMPDEST PUSH0 PUSH1 0x8 PUSH0 DUP5 PUSH20 0xFFFFFFFFFFFFFFFFFFFFFFFFFFFFFFFFFFFFFFFF AND PUSH20 0xFFFFFFFFFFFFFFFFFFFFFFFFFFFFFFFFFFFFFFFF AND DUP2 MSTORE PUSH1 0x20 ADD SWAP1 DUP2 MSTORE PUSH1 0x20 ADD PUSH0 KECCAK256 PUSH0 DUP4 PUSH20 0xFFFFFFFFFFFFFFFFFFFFFFFFFFFFFFFFFFFFFFFF AND PUSH20 0xFFFFFFFFFFFFFFFFFFFFFFFFFFFFFFFFFFFFFFFF AND DUP2 MSTORE PUSH1 0x20 ADD SWAP1 DUP2 MSTORE PUSH1 0x20 ADD PUSH0 KECCAK256 SLOAD SWAP1 POP SWAP3 SWAP2 POP POP JUMP JUMPDEST PUSH1 0xA PUSH1 0x20 MSTORE DUP1 PUSH0 MSTORE PUSH1 0x40 PUSH0 KECCAK256 PUSH0 SWAP2 POP SWAP1 POP SLOAD DUP2 JUMP JUMPDEST PUSH1 0x4 PUSH0 SWAP1 SLOAD SWAP1 PUSH2 0x100 EXP SWAP1 DIV PUSH20 0xFFFFFFFFFFFFFFFFFFFFFFFFFFFFFFFFFFFFFFFF AND DUP2 JUMP JUMPDEST PUSH1 0xE1 DUP2 JUMP JUMPDEST DUP1 PUSH1 0x7 PUSH0 DUP6 PUSH20 0xFFFFFFFFFFFFFFFFFFFFFFFFFFFFFFFFFFFFFFFF AND PUSH20 0xFFFFFFFFFFFFFFFFFFFFFFFFFFFFFFFFFFFFFFFF AND DUP2 MSTORE PUSH1 0x20 ADD SWAP1 DUP2 MSTORE PUSH1 0x20 ADD PUSH0 KECCAK256 SLOAD LT ISZERO PUSH2 0x11A5 JUMPI PUSH1 0x40 MLOAD PUSH32 0x8C379A000000000000000000000000000000000000000000000000000000000 DUP2 MSTORE PUSH1 0x4 ADD PUSH2 0x119C SWAP1 PUSH2 0x1BB8 JUMP JUMPDEST PUSH1 0x40 MLOAD DUP1 SWAP2 SUB SWAP1 REVERT JUMPDEST PUSH0 PUSH2 0x2710 PUSH1 0xC8 DUP4 PUSH2 0x11B6 SWAP2 SWAP1 PUSH2 0x1BD6 JUMP JUMPDEST PUSH2 0x11C0 SWAP2 SWAP1 PUSH2 0x1C44 JUMP JUMPDEST SWAP1 POP PUSH0 PUSH2 0x2710 PUSH1 0xD7 DUP5 PUSH2 0x11D3 SWAP2 SWAP1 PUSH2 0x1BD6 JUMP JUMPDEST PUSH2 0x11DD SWAP2 SWAP1 PUSH2 0x1C44 JUMP JUMPDEST SWAP1 POP PUSH0 PUSH2 0x2710 PUSH1 0x23 DUP6 PUSH2 0x11F0 SWAP2 SWAP1 PUSH2 0x1BD6 JUMP JUMPDEST PUSH2 0x11FA SWAP2 SWAP1 PUSH2 0x1C44 JUMP JUMPDEST SWAP1 POP PUSH0 DUP2 DUP4 DUP6 DUP8 PUSH2 0x120B SWAP2 SWAP1 PUSH2 0x1968 JUMP JUMPDEST PUSH2 0x1215 SWAP2 SWAP1 PUSH2 0x1968 JUMP JUMPDEST PUSH2 0x121F SWAP2 SWAP1 PUSH2 0x1968 JUMP JUMPDEST SWAP1 POP DUP5 PUSH1 0x7 PUSH0 DUP10 PUSH20 0xFFFFFFFFFFFFFFFFFFFFFFFFFFFFFFFFFFFFFFFF AND PUSH20 0xFFFFFFFFFFFFFFFFFFFFFFFFFFFFFFFFFFFFFFFF AND DUP2 MSTORE PUSH1 0x20 ADD SWAP1 DUP2 MSTORE PUSH1 0x20 ADD PUSH0 KECCAK256 PUSH0 DUP3 DUP3 SLOAD PUSH2 0x126D SWAP2 SWAP1 PUSH2 0x1968 JUMP JUMPDEST SWAP3 POP POP DUP2 SWAP1 SSTORE POP DUP4 PUSH1 0x7 PUSH0 PUSH1 0x5 PUSH0 SWAP1 SLOAD SWAP1 PUSH2 0x100 EXP SWAP1 DIV PUSH20 0xFFFFFFFFFFFFFFFFFFFFFFFFFFFFFFFFFFFFFFFF AND PUSH20 0xFFFFFFFFFFFFFFFFFFFFFFFFFFFFFFFFFFFFFFFF AND PUSH20 0xFFFFFFFFFFFFFFFFFFFFFFFFFFFFFFFFFFFFFFFF AND DUP2 MSTORE PUSH1 0x20 ADD SWAP1 DUP2 MSTORE PUSH1 0x20 ADD PUSH0 KECCAK256 PUSH0 DUP3 DUP3 SLOAD PUSH2 0x12E1 SWAP2 SWAP1 PUSH2 0x1A03 JUMP JUMPDEST SWAP3 POP POP DUP2 SWAP1 SSTORE POP DUP3 PUSH1 0x7 PUSH0 PUSH1 0x6 PUSH0 SWAP1 SLOAD SWAP1 PUSH2 0x100 EXP SWAP1 DIV PUSH20 0xFFFFFFFFFFFFFFFFFFFFFFFFFFFFFFFFFFFFFFFF AND PUSH20 0xFFFFFFFFFFFFFFFFFFFFFFFFFFFFFFFFFFFFFFFF AND PUSH20 0xFFFFFFFFFFFFFFFFFFFFFFFFFFFFFFFFFFFFFFFF AND DUP2 MSTORE PUSH1 0x20 ADD SWAP1 DUP2 MSTORE PUSH1 0x20 ADD PUSH0 KECCAK256 PUSH0 DUP3 DUP3 SLOAD PUSH2 0x1355 SWAP2 SWAP1 PUSH2 0x1A03 JUMP JUMPDEST SWAP3 POP POP DUP2 SWAP1 SSTORE POP DUP2 PUSH1 0x3 PUSH0 DUP3 DUP3 SLOAD PUSH2 0x136D SWAP2 SWAP1 PUSH2 0x1968 JUMP JUMPDEST SWAP3 POP POP DUP2 SWAP1 SSTORE POP DUP1 PUSH1 0x7 PUSH0 DUP9 PUSH20 0xFFFFFFFFFFFFFFFFFFFFFFFFFFFFFFFFFFFFFFFF AND PUSH20 0xFFFFFFFFFFFFFFFFFFFFFFFFFFFFFFFFFFFFFFFF AND DUP2 MSTORE PUSH1 0x20 ADD SWAP1 DUP2 MSTORE PUSH1 0x20 ADD PUSH0 KECCAK256 PUSH0 DUP3 DUP3 SLOAD PUSH2 0x13C0 SWAP2 SWAP1 PUSH2 0x1A03 JUMP JUMPDEST SWAP3 POP POP DUP2 SWAP1 SSTORE POP PUSH1 0x5 PUSH0 SWAP1 SLOAD SWAP1 PUSH2 0x100 EXP SWAP1 DIV PUSH20 0xFFFFFFFFFFFFFFFFFFFFFFFFFFFFFFFFFFFFFFFF AND PUSH20 0xFFFFFFFFFFFFFFFFFFFFFFFFFFFFFFFFFFFFFFFF AND DUP8 PUSH20 0xFFFFFFFFFFFFFFFFFFFFFFFFFFFFFFFFFFFFFFFF AND PUSH32 0xDDF252AD1BE2C89B69C2B068FC378DAA952BA7F163C4A11628F55A4DF523B3EF DUP7 PUSH1 0x40 MLOAD PUSH2 0x1445 SWAP2 SWAP1 PUSH2 0x1745 JUMP JUMPDEST PUSH1 0x40 MLOAD DUP1 SWAP2 SUB SWAP1 LOG3 PUSH1 0x6 PUSH0 SWAP1 SLOAD SWAP1 PUSH2 0x100 EXP SWAP1 DIV PUSH20 0xFFFFFFFFFFFFFFFFFFFFFFFFFFFFFFFFFFFFFFFF AND PUSH20 0xFFFFFFFFFFFFFFFFFFFFFFFFFFFFFFFFFFFFFFFF AND DUP8 PUSH20 0xFFFFFFFFFFFFFFFFFFFFFFFFFFFFFFFFFFFFFFFF AND PUSH32 0xDDF252AD1BE2C89B69C2B068FC378DAA952BA7F163C4A11628F55A4DF523B3EF DUP6 PUSH1 0x40 MLOAD PUSH2 0x14CB SWAP2 SWAP1 PUSH2 0x1745 JUMP JUMPDEST PUSH1 0x40 MLOAD DUP1 SWAP2 SUB SWAP1 LOG3 DUP6 PUSH20 0xFFFFFFFFFFFFFFFFFFFFFFFFFFFFFFFFFFFFFFFF AND DUP8 PUSH20 0xFFFFFFFFFFFFFFFFFFFFFFFFFFFFFFFFFFFFFFFF AND PUSH32 0xDDF252AD1BE2C89B69C2B068FC378DAA952BA7F163C4A11628F55A4DF523B3EF DUP4 PUSH1 0x40 MLOAD PUSH2 0x1530 SWAP2 SWAP1 PUSH2 0x1745 JUMP JUMPDEST PUSH1 0x40 MLOAD DUP1 SWAP2 SUB SWAP1 LOG3 PUSH32 0x312C5308F42848705A866C73DEC11FD0783C2D64AAC6A97E94467062AD3F4058 DUP5 DUP5 DUP5 PUSH1 0x40 MLOAD PUSH2 0x156B SWAP4 SWAP3 SWAP2 SWAP1 PUSH2 0x1C74 JUMP JUMPDEST PUSH1 0x40 MLOAD DUP1 SWAP2 SUB SWAP1 LOG1 POP POP POP POP POP POP POP JUMP JUMPDEST PUSH0 PUSH20 0xFFFFFFFFFFFFFFFFFFFFFFFFFFFFFFFFFFFFFFFF DUP3 AND SWAP1 POP SWAP2 SWAP1 POP JUMP JUMPDEST PUSH0 PUSH2 0x15A5 DUP3 PUSH2 0x157C JUMP JUMPDEST SWAP1 POP SWAP2 SWAP1 POP JUMP JUMPDEST PUSH2 0x15B5 DUP2 PUSH2 0x159B JUMP JUMPDEST DUP3 MSTORE POP POP JUMP JUMPDEST PUSH0 PUSH1 0x20 DUP3 ADD SWAP1 POP PUSH2 0x15CE PUSH0 DUP4 ADD DUP5 PUSH2 0x15AC JUMP JUMPDEST SWAP3 SWAP2 POP POP JUMP JUMPDEST PUSH0 DUP2 MLOAD SWAP1 POP SWAP2 SWAP1 POP JUMP JUMPDEST PUSH0 DUP3 DUP3 MSTORE PUSH1 0x20 DUP3 ADD SWAP1 POP SWAP3 SWAP2 POP POP JUMP JUMPDEST DUP3 DUP2 DUP4 MCOPY PUSH0 DUP4 DUP4 ADD MSTORE POP POP POP JUMP JUMPDEST PUSH0 PUSH1 0x1F NOT PUSH1 0x1F DUP4 ADD AND SWAP1 POP SWAP2 SWAP1 POP JUMP JUMPDEST PUSH0 PUSH2 0x1616 DUP3 PUSH2 0x15D4 JUMP JUMPDEST PUSH2 0x1620 DUP2 DUP6 PUSH2 0x15DE JUMP JUMPDEST SWAP4 POP PUSH2 0x1630 DUP2 DUP6 PUSH1 0x20 DUP7 ADD PUSH2 0x15EE JUMP JUMPDEST PUSH2 0x1639 DUP2 PUSH2 0x15FC JUMP JUMPDEST DUP5 ADD SWAP2 POP POP SWAP3 SWAP2 POP POP JUMP JUMPDEST PUSH0 PUSH1 0x20 DUP3 ADD SWAP1 POP DUP2 DUP2 SUB PUSH0 DUP4 ADD MSTORE PUSH2 0x165C DUP2 DUP5 PUSH2 0x160C JUMP JUMPDEST SWAP1 POP SWAP3 SWAP2 POP POP JUMP JUMPDEST PUSH0 PUSH0 REVERT JUMPDEST PUSH2 0x1671 DUP2 PUSH2 0x159B JUMP JUMPDEST DUP2 EQ PUSH2 0x167B JUMPI PUSH0 PUSH0 REVERT JUMPDEST POP JUMP JUMPDEST PUSH0 DUP2 CALLDATALOAD SWAP1 POP PUSH2 0x168C DUP2 PUSH2 0x1668 JUMP JUMPDEST SWAP3 SWAP2 POP POP JUMP JUMPDEST PUSH0 DUP2 SWAP1 POP SWAP2 SWAP1 POP JUMP JUMPDEST PUSH2 0x16A4 DUP2 PUSH2 0x1692 JUMP JUMPDEST DUP2 EQ PUSH2 0x16AE JUMPI PUSH0 PUSH0 REVERT JUMPDEST POP JUMP JUMPDEST PUSH0 DUP2 CALLDATALOAD SWAP1 POP PUSH2 0x16BF DUP2 PUSH2 0x169B JUMP JUMPDEST SWAP3 SWAP2 POP POP JUMP JUMPDEST PUSH0 PUSH0 PUSH1 0x40 DUP4 DUP6 SUB SLT ISZERO PUSH2 0x16DB JUMPI PUSH2 0x16DA PUSH2 0x1664 JUMP JUMPDEST JUMPDEST PUSH0 PUSH2 0x16E8 DUP6 DUP3 DUP7 ADD PUSH2 0x167E JUMP JUMPDEST SWAP3 POP POP PUSH1 0x20 PUSH2 0x16F9 DUP6 DUP3 DUP7 ADD PUSH2 0x16B1 JUMP JUMPDEST SWAP2 POP POP SWAP3 POP SWAP3 SWAP1 POP JUMP JUMPDEST PUSH0 DUP2 ISZERO ISZERO SWAP1 POP SWAP2 SWAP1 POP JUMP JUMPDEST PUSH2 0x1717 DUP2 PUSH2 0x1703 JUMP JUMPDEST DUP3 MSTORE POP POP JUMP JUMPDEST PUSH0 PUSH1 0x20 DUP3 ADD SWAP1 POP PUSH2 0x1730 PUSH0 DUP4 ADD DUP5 PUSH2 0x170E JUMP JUMPDEST SWAP3 SWAP2 POP POP JUMP JUMPDEST PUSH2 0x173F DUP2 PUSH2 0x1692 JUMP JUMPDEST DUP3 MSTORE POP POP JUMP JUMPDEST PUSH0 PUSH1 0x20 DUP3 ADD SWAP1 POP PUSH2 0x1758 PUSH0 DUP4 ADD DUP5 PUSH2 0x1736 JUMP JUMPDEST SWAP3 SWAP2 POP POP JUMP JUMPDEST PUSH0 PUSH0 PUSH0 PUSH1 0x60 DUP5 DUP7 SUB SLT ISZERO PUSH2 0x1775 JUMPI PUSH2 0x1774 PUSH2 0x1664 JUMP JUMPDEST JUMPDEST PUSH0 PUSH2 0x1782 DUP7 DUP3 DUP8 ADD PUSH2 0x167E JUMP JUMPDEST SWAP4 POP POP PUSH1 0x20 PUSH2 0x1793 DUP7 DUP3 DUP8 ADD PUSH2 0x167E JUMP JUMPDEST SWAP3 POP POP PUSH1 0x40 PUSH2 0x17A4 DUP7 DUP3 DUP8 ADD PUSH2 0x16B1 JUMP JUMPDEST SWAP2 POP POP SWAP3 POP SWAP3 POP SWAP3 JUMP JUMPDEST PUSH0 PUSH1 0x20 DUP3 DUP5 SUB SLT ISZERO PUSH2 0x17C3 JUMPI PUSH2 0x17C2 PUSH2 0x1664 JUMP JUMPDEST JUMPDEST PUSH0 PUSH2 0x17D0 DUP5 DUP3 DUP6 ADD PUSH2 0x167E JUMP JUMPDEST SWAP2 POP POP SWAP3 SWAP2 POP POP JUMP JUMPDEST PUSH0 PUSH1 0xFF DUP3 AND SWAP1 POP SWAP2 SWAP1 POP JUMP JUMPDEST PUSH2 0x17EE DUP2 PUSH2 0x17D9 JUMP JUMPDEST DUP3 MSTORE POP POP JUMP JUMPDEST PUSH0 PUSH1 0x20 DUP3 ADD SWAP1 POP PUSH2 0x1807 PUSH0 DUP4 ADD DUP5 PUSH2 0x17E5 JUMP JUMPDEST SWAP3 SWAP2 POP POP JUMP JUMPDEST PUSH0 PUSH0 PUSH1 0x40 DUP4 DUP6 SUB SLT ISZERO PUSH2 0x1823 JUMPI PUSH2 0x1822 PUSH2 0x1664 JUMP JUMPDEST JUMPDEST PUSH0 PUSH2 0x1830 DUP6 DUP3 DUP7 ADD PUSH2 0x167E JUMP JUMPDEST SWAP3 POP POP PUSH1 0x20 PUSH2 0x1841 DUP6 DUP3 DUP7 ADD PUSH2 0x167E JUMP JUMPDEST SWAP2 POP POP SWAP3 POP SWAP3 SWAP1 POP JUMP JUMPDEST PUSH0 PUSH1 0x20 DUP3 DUP5 SUB SLT ISZERO PUSH2 0x1860 JUMPI PUSH2 0x185F PUSH2 0x1664 JUMP JUMPDEST JUMPDEST PUSH0 PUSH2 0x186D DUP5 DUP3 DUP6 ADD PUSH2 0x16B1 JUMP JUMPDEST SWAP2 POP POP SWAP3 SWAP2 POP POP JUMP JUMPDEST PUSH32 0x4E487B7100000000000000000000000000000000000000000000000000000000 PUSH0 MSTORE PUSH1 0x22 PUSH1 0x4 MSTORE PUSH1 0x24 PUSH0 REVERT JUMPDEST PUSH0 PUSH1 0x2 DUP3 DIV SWAP1 POP PUSH1 0x1 DUP3 AND DUP1 PUSH2 0x18BA JUMPI PUSH1 0x7F DUP3 AND SWAP2 POP JUMPDEST PUSH1 0x20 DUP3 LT DUP2 SUB PUSH2 0x18CD JUMPI PUSH2 0x18CC PUSH2 0x1876 JUMP JUMPDEST JUMPDEST POP SWAP2 SWAP1 POP JUMP JUMPDEST PUSH32 0x416C6C6F77616E63652065786365656465640000000000000000000000000000 PUSH0 DUP3 ADD MSTORE POP JUMP JUMPDEST PUSH0 PUSH2 0x1907 PUSH1 0x12 DUP4 PUSH2 0x15DE JUMP JUMPDEST SWAP2 POP PUSH2 0x1912 DUP3 PUSH2 0x18D3 JUMP JUMPDEST PUSH1 0x20 DUP3 ADD SWAP1 POP SWAP2 SWAP1 POP JUMP JUMPDEST PUSH0 PUSH1 0x20 DUP3 ADD SWAP1 POP DUP2 DUP2 SUB PUSH0 DUP4 ADD MSTORE PUSH2 0x1934 DUP2 PUSH2 0x18FB JUMP JUMPDEST SWAP1 POP SWAP2 SWAP1 POP JUMP JUMPDEST PUSH32 0x4E487B7100000000000000000000000000000000000000000000000000000000 PUSH0 MSTORE PUSH1 0x11 PUSH1 0x4 MSTORE PUSH1 0x24 PUSH0 REVERT JUMPDEST PUSH0 PUSH2 0x1972 DUP3 PUSH2 0x1692 JUMP JUMPDEST SWAP2 POP PUSH2 0x197D DUP4 PUSH2 0x1692 JUMP JUMPDEST SWAP3 POP DUP3 DUP3 SUB SWAP1 POP DUP2 DUP2 GT ISZERO PUSH2 0x1995 JUMPI PUSH2 0x1994 PUSH2 0x193B JUMP JUMPDEST JUMPDEST SWAP3 SWAP2 POP POP JUMP JUMPDEST PUSH32 0x4E6F207265776172647320617661696C61626C65000000000000000000000000 PUSH0 DUP3 ADD MSTORE POP JUMP JUMPDEST PUSH0 PUSH2 0x19CF PUSH1 0x14 DUP4 PUSH2 0x15DE JUMP JUMPDEST SWAP2 POP PUSH2 0x19DA DUP3 PUSH2 0x199B JUMP JUMPDEST PUSH1 0x20 DUP3 ADD SWAP1 POP SWAP2 SWAP1 POP JUMP JUMPDEST PUSH0 PUSH1 0x20 DUP3 ADD SWAP1 POP DUP2 DUP2 SUB PUSH0 DUP4 ADD MSTORE PUSH2 0x19FC DUP2 PUSH2 0x19C3 JUMP JUMPDEST SWAP1 POP SWAP2 SWAP1 POP JUMP JUMPDEST PUSH0 PUSH2 0x1A0D DUP3 PUSH2 0x1692 JUMP JUMPDEST SWAP2 POP PUSH2 0x1A18 DUP4 PUSH2 0x1692 JUMP JUMPDEST SWAP3 POP DUP3 DUP3 ADD SWAP1 POP DUP1 DUP3 GT ISZERO PUSH2 0x1A30 JUMPI PUSH2 0x1A2F PUSH2 0x193B JUMP JUMPDEST JUMPDEST SWAP3 SWAP2 POP POP JUMP JUMPDEST PUSH32 0x43616E6E6F7420756E7374616B65203020746F6B656E73000000000000000000 PUSH0 DUP3 ADD MSTORE POP JUMP JUMPDEST PUSH0 PUSH2 0x1A6A PUSH1 0x17 DUP4 PUSH2 0x15DE JUMP JUMPDEST SWAP2 POP PUSH2 0x1A75 DUP3 PUSH2 0x1A36 JUMP JUMPDEST PUSH1 0x20 DUP3 ADD SWAP1 POP SWAP2 SWAP1 POP JUMP JUMPDEST PUSH0 PUSH1 0x20 DUP3 ADD SWAP1 POP DUP2 DUP2 SUB PUSH0 DUP4 ADD MSTORE PUSH2 0x1A97 DUP2 PUSH2 0x1A5E JUMP JUMPDEST SWAP1 POP SWAP2 SWAP1 POP JUMP JUMPDEST PUSH32 0x4E6F7420656E6F756768207374616B65642062616C616E636500000000000000 PUSH0 DUP3 ADD MSTORE POP JUMP JUMPDEST PUSH0 PUSH2 0x1AD2 PUSH1 0x19 DUP4 PUSH2 0x15DE JUMP JUMPDEST SWAP2 POP PUSH2 0x1ADD DUP3 PUSH2 0x1A9E JUMP JUMPDEST PUSH1 0x20 DUP3 ADD SWAP1 POP SWAP2 SWAP1 POP JUMP JUMPDEST PUSH0 PUSH1 0x20 DUP3 ADD SWAP1 POP DUP2 DUP2 SUB PUSH0 DUP4 ADD MSTORE PUSH2 0x1AFF DUP2 PUSH2 0x1AC6 JUMP JUMPDEST SWAP1 POP SWAP2 SWAP1 POP JUMP JUMPDEST PUSH32 0x43616E6E6F74207374616B65203020746F6B656E730000000000000000000000 PUSH0 DUP3 ADD MSTORE POP JUMP JUMPDEST PUSH0 PUSH2 0x1B3A PUSH1 0x15 DUP4 PUSH2 0x15DE JUMP JUMPDEST SWAP2 POP PUSH2 0x1B45 DUP3 PUSH2 0x1B06 JUMP JUMPDEST PUSH1 0x20 DUP3 ADD SWAP1 POP SWAP2 SWAP1 POP JUMP JUMPDEST PUSH0 PUSH1 0x20 DUP3 ADD SWAP1 POP DUP2 DUP2 SUB PUSH0 DUP4 ADD MSTORE PUSH2 0x1B67 DUP2 PUSH2 0x1B2E JUMP JUMPDEST SWAP1 POP SWAP2 SWAP1 POP JUMP JUMPDEST PUSH32 0x496E73756666696369656E742062616C616E6365000000000000000000000000 PUSH0 DUP3 ADD MSTORE POP JUMP JUMPDEST PUSH0 PUSH2 0x1BA2 PUSH1 0x14 DUP4 PUSH2 0x15DE JUMP JUMPDEST SWAP2 POP PUSH2 0x1BAD DUP3 PUSH2 0x1B6E JUMP JUMPDEST PUSH1 0x20 DUP3 ADD SWAP1 POP SWAP2 SWAP1 POP JUMP JUMPDEST PUSH0 PUSH1 0x20 DUP3 ADD SWAP1 POP DUP2 DUP2 SUB PUSH0 DUP4 ADD MSTORE PUSH2 0x1BCF DUP2 PUSH2 0x1B96 JUMP JUMPDEST SWAP1 POP SWAP2 SWAP1 POP JUMP JUMPDEST PUSH0 PUSH2 0x1BE0 DUP3 PUSH2 0x1692 JUMP JUMPDEST SWAP2 POP PUSH2 0x1BEB DUP4 PUSH2 0x1692 JUMP JUMPDEST SWAP3 POP DUP3 DUP3 MUL PUSH2 0x1BF9 DUP2 PUSH2 0x1692 JUMP JUMPDEST SWAP2 POP DUP3 DUP3 DIV DUP5 EQ DUP4 ISZERO OR PUSH2 0x1C10 JUMPI PUSH2 0x1C0F PUSH2 0x193B JUMP JUMPDEST JUMPDEST POP SWAP3 SWAP2 POP POP JUMP JUMPDEST PUSH32 0x4E487B7100000000000000000000000000000000000000000000000000000000 PUSH0 MSTORE PUSH1 0x12 PUSH1 0x4 MSTORE PUSH1 0x24 PUSH0 REVERT JUMPDEST PUSH0 PUSH2 0x1C4E DUP3 PUSH2 0x1692 JUMP JUMPDEST SWAP2 POP PUSH2 0x1C59 DUP4 PUSH2 0x1692 JUMP JUMPDEST SWAP3 POP DUP3 PUSH2 0x1C69 JUMPI PUSH2 0x1C68 PUSH2 0x1C17 JUMP JUMPDEST JUMPDEST DUP3 DUP3 DIV SWAP1 POP SWAP3 SWAP2 POP POP JUMP JUMPDEST PUSH0 PUSH1 0x60 DUP3 ADD SWAP1 POP PUSH2 0x1C87 PUSH0 DUP4 ADD DUP7 PUSH2 0x1736 JUMP JUMPDEST PUSH2 0x1C94 PUSH1 0x20 DUP4 ADD DUP6 PUSH2 0x1736 JUMP JUMPDEST PUSH2 0x1CA1 PUSH1 0x40 DUP4 ADD DUP5 PUSH2 0x1736 JUMP JUMPDEST SWAP5 SWAP4 POP POP POP POP JUMP INVALID LOG2 PUSH5 0x6970667358 0x22 SLT KECCAK256 PUSH5 0x82D8809FF9 PUSH23 0xD08111EB5C71E9CD68826599E4451AFE55B01954FD3768 ADDRESS 0xD0 PUSH5 0x736F6C6343 STOP ADDMOD SHR STOP CALLER "
				},
				"gasEstimates": {
					"creation": {
						"codeDepositCost": "1478200",
						"executionCost": "infinite",
						"totalCost": "infinite"
					},
					"external": {
						"AUTHORITY_FEE()": "392",
						"BURN_FEE()": "393",
						"Contractowner()": "2596",
						"FEE_DENOMINATOR()": "414",
						"LP_FEE()": "414",
						"REWARD_DENOMINATOR()": "414",
						"REWARD_FIRST_MONTH()": "436",
						"REWARD_ONE_YEAR()": "370",
						"REWARD_SIXTH_MONTH()": "436",
						"REWARD_THIRD_MONTH()": "435",
						"allowance(address,address)": "infinite",
						"allowances(address,address)": "infinite",
						"approve(address,uint256)": "infinite",
						"authorityWallet()": "2555",
						"balanceOf(address)": "2874",
						"balances(address)": "2892",
						"calculateReward(address)": "infinite",
						"claimRewards()": "infinite",
						"decimals()": "2578",
						"lastClaimedTime(address)": "2868",
						"liquidityPool()": "2598",
						"name()": "infinite",
						"stakeTokens(uint256)": "infinite",
						"stakingBalances(address)": "2870",
						"symbol()": "infinite",
						"totalSupply()": "2471",
						"transfer(address,uint256)": "infinite",
						"transferFrom(address,address,uint256)": "infinite",
						"unstakeTokens(uint256)": "infinite"
					},
					"internal": {
						"_transfer(address,address,uint256)": "infinite"
					}
				},
				"methodIdentifiers": {
					"AUTHORITY_FEE()": "5d025358",
					"BURN_FEE()": "480df058",
					"Contractowner()": "fe71264e",
					"FEE_DENOMINATOR()": "d73792a9",
					"LP_FEE()": "5e3f2727",
					"REWARD_DENOMINATOR()": "819a9398",
					"REWARD_FIRST_MONTH()": "604453ed",
					"REWARD_ONE_YEAR()": "58f442d2",
					"REWARD_SIXTH_MONTH()": "951f894b",
					"REWARD_THIRD_MONTH()": "fefcb3a9",
					"allowance(address,address)": "dd62ed3e",
					"allowances(address,address)": "55b6ed5c",
					"approve(address,uint256)": "095ea7b3",
					"authorityWallet()": "0361dfb7",
					"balanceOf(address)": "70a08231",
					"balances(address)": "27e235e3",
					"calculateReward(address)": "d82e3962",
					"claimRewards()": "372500ab",
					"decimals()": "313ce567",
					"lastClaimedTime(address)": "f3f91fa0",
					"liquidityPool()": "665a11ca",
					"name()": "06fdde03",
					"stakeTokens(uint256)": "7547c7a3",
					"stakingBalances(address)": "61b8b5dc",
					"symbol()": "95d89b41",
					"totalSupply()": "18160ddd",
					"transfer(address,uint256)": "a9059cbb",
					"transferFrom(address,address,uint256)": "23b872dd",
					"unstakeTokens(uint256)": "608e4dd0"
				}
			},
			"storageLayout": {
				"storage": [
					{
						"astId": 4,
						"contract": "solana.sol:GottaBeytToken",
						"label": "name",
						"offset": 0,
						"slot": "0",
						"type": "t_string_storage"
					},
					{
						"astId": 7,
						"contract": "solana.sol:GottaBeytToken",
						"label": "symbol",
						"offset": 0,
						"slot": "1",
						"type": "t_string_storage"
					},
					{
						"astId": 10,
						"contract": "solana.sol:GottaBeytToken",
						"label": "decimals",
						"offset": 0,
						"slot": "2",
						"type": "t_uint8"
					},
					{
						"astId": 12,
						"contract": "solana.sol:GottaBeytToken",
						"label": "totalSupply",
						"offset": 0,
						"slot": "3",
						"type": "t_uint256"
					},
					{
						"astId": 14,
						"contract": "solana.sol:GottaBeytToken",
						"label": "Contractowner",
						"offset": 0,
						"slot": "4",
						"type": "t_address"
					},
					{
						"astId": 16,
						"contract": "solana.sol:GottaBeytToken",
						"label": "liquidityPool",
						"offset": 0,
						"slot": "5",
						"type": "t_address"
					},
					{
						"astId": 18,
						"contract": "solana.sol:GottaBeytToken",
						"label": "authorityWallet",
						"offset": 0,
						"slot": "6",
						"type": "t_address"
					},
					{
						"astId": 49,
						"contract": "solana.sol:GottaBeytToken",
						"label": "balances",
						"offset": 0,
						"slot": "7",
						"type": "t_mapping(t_address,t_uint256)"
					},
					{
						"astId": 55,
						"contract": "solana.sol:GottaBeytToken",
						"label": "allowances",
						"offset": 0,
						"slot": "8",
						"type": "t_mapping(t_address,t_mapping(t_address,t_uint256))"
					},
					{
						"astId": 59,
						"contract": "solana.sol:GottaBeytToken",
						"label": "stakingBalances",
						"offset": 0,
						"slot": "9",
						"type": "t_mapping(t_address,t_uint256)"
					},
					{
						"astId": 63,
						"contract": "solana.sol:GottaBeytToken",
						"label": "lastClaimedTime",
						"offset": 0,
						"slot": "10",
						"type": "t_mapping(t_address,t_uint256)"
					}
				],
				"types": {
					"t_address": {
						"encoding": "inplace",
						"label": "address",
						"numberOfBytes": "20"
					},
					"t_mapping(t_address,t_mapping(t_address,t_uint256))": {
						"encoding": "mapping",
						"key": "t_address",
						"label": "mapping(address => mapping(address => uint256))",
						"numberOfBytes": "32",
						"value": "t_mapping(t_address,t_uint256)"
					},
					"t_mapping(t_address,t_uint256)": {
						"encoding": "mapping",
						"key": "t_address",
						"label": "mapping(address => uint256)",
						"numberOfBytes": "32",
						"value": "t_uint256"
					},
					"t_string_storage": {
						"encoding": "bytes",
						"label": "string",
						"numberOfBytes": "32"
					},
					"t_uint256": {
						"encoding": "inplace",
						"label": "uint256",
						"numberOfBytes": "32"
					},
					"t_uint8": {
						"encoding": "inplace",
						"label": "uint8",
						"numberOfBytes": "1"
					}
				}
			},
			"userdoc": {
				"kind": "user",
				"methods": {},
				"version": 1
			}
		}
	}
}